{
	"contracts/yusTokenICO.sol": {
		"yusICO": {
			"abi": [
				{
					"inputs": [
						{
							"internalType": "address payable",
							"name": "_deposit",
							"type": "address"
						}
					],
					"stateMutability": "nonpayable",
					"type": "constructor"
				},
				{
					"anonymous": false,
					"inputs": [
						{
							"indexed": true,
							"internalType": "address",
							"name": "tokenOwner",
							"type": "address"
						},
						{
							"indexed": true,
							"internalType": "address",
							"name": "spender",
							"type": "address"
						},
						{
							"indexed": false,
							"internalType": "uint256",
							"name": "tokens",
							"type": "uint256"
						}
					],
					"name": "Approval",
					"type": "event"
				},
				{
					"anonymous": false,
					"inputs": [
						{
							"indexed": false,
							"internalType": "address",
							"name": "investor",
							"type": "address"
						},
						{
							"indexed": false,
							"internalType": "uint256",
							"name": "value",
							"type": "uint256"
						},
						{
							"indexed": false,
							"internalType": "uint256",
							"name": "tokens",
							"type": "uint256"
						}
					],
					"name": "InvestICO",
					"type": "event"
				},
				{
					"anonymous": false,
					"inputs": [
						{
							"indexed": true,
							"internalType": "address",
							"name": "from",
							"type": "address"
						},
						{
							"indexed": true,
							"internalType": "address",
							"name": "to",
							"type": "address"
						},
						{
							"indexed": false,
							"internalType": "uint256",
							"name": "tokens",
							"type": "uint256"
						}
					],
					"name": "Transfer",
					"type": "event"
				},
				{
					"inputs": [],
					"name": "admin",
					"outputs": [
						{
							"internalType": "address",
							"name": "",
							"type": "address"
						}
					],
					"stateMutability": "view",
					"type": "function"
				},
				{
					"inputs": [
						{
							"internalType": "address",
							"name": "tokenOwner",
							"type": "address"
						},
						{
							"internalType": "address",
							"name": "spender",
							"type": "address"
						}
					],
					"name": "allowance",
					"outputs": [
						{
							"internalType": "uint256",
							"name": "",
							"type": "uint256"
						}
					],
					"stateMutability": "view",
					"type": "function"
				},
				{
					"inputs": [
						{
							"internalType": "address",
							"name": "spender",
							"type": "address"
						},
						{
							"internalType": "uint256",
							"name": "tokens",
							"type": "uint256"
						}
					],
					"name": "approve",
					"outputs": [
						{
							"internalType": "bool",
							"name": "success",
							"type": "bool"
						}
					],
					"stateMutability": "nonpayable",
					"type": "function"
				},
				{
					"inputs": [
						{
							"internalType": "address",
							"name": "tokenOwner",
							"type": "address"
						}
					],
					"name": "balanceOf",
					"outputs": [
						{
							"internalType": "uint256",
							"name": "balance",
							"type": "uint256"
						}
					],
					"stateMutability": "view",
					"type": "function"
				},
				{
					"inputs": [
						{
							"internalType": "address",
							"name": "",
							"type": "address"
						}
					],
					"name": "balances",
					"outputs": [
						{
							"internalType": "uint256",
							"name": "",
							"type": "uint256"
						}
					],
					"stateMutability": "view",
					"type": "function"
				},
				{
					"inputs": [],
					"name": "burnTokens",
					"outputs": [
						{
							"internalType": "bool",
							"name": "",
							"type": "bool"
						}
					],
					"stateMutability": "nonpayable",
					"type": "function"
				},
				{
					"inputs": [],
					"name": "cap",
					"outputs": [
						{
							"internalType": "uint256",
							"name": "",
							"type": "uint256"
						}
					],
					"stateMutability": "view",
					"type": "function"
				},
				{
					"inputs": [
						{
							"internalType": "address payable",
							"name": "newDeposit",
							"type": "address"
						}
					],
					"name": "changeDepositAddress",
					"outputs": [],
					"stateMutability": "nonpayable",
					"type": "function"
				},
				{
					"inputs": [],
					"name": "decimals",
					"outputs": [
						{
							"internalType": "uint256",
							"name": "",
							"type": "uint256"
						}
					],
					"stateMutability": "view",
					"type": "function"
				},
				{
					"inputs": [],
					"name": "deposit",
					"outputs": [
						{
							"internalType": "address payable",
							"name": "",
							"type": "address"
						}
					],
					"stateMutability": "view",
					"type": "function"
				},
				{
					"inputs": [],
					"name": "founder",
					"outputs": [
						{
							"internalType": "address",
							"name": "",
							"type": "address"
						}
					],
					"stateMutability": "view",
					"type": "function"
				},
				{
					"inputs": [],
					"name": "getCurrentState",
					"outputs": [
						{
							"internalType": "enum yusICO.State",
							"name": "",
							"type": "uint8"
						}
					],
					"stateMutability": "view",
					"type": "function"
				},
				{
					"inputs": [],
					"name": "haltICO",
					"outputs": [],
					"stateMutability": "nonpayable",
					"type": "function"
				},
				{
					"inputs": [],
					"name": "icoState",
					"outputs": [
						{
							"internalType": "enum yusICO.State",
							"name": "",
							"type": "uint8"
						}
					],
					"stateMutability": "view",
					"type": "function"
				},
				{
					"inputs": [],
					"name": "investICO",
					"outputs": [
						{
							"internalType": "bool",
							"name": "",
							"type": "bool"
						}
					],
					"stateMutability": "payable",
					"type": "function"
				},
				{
					"inputs": [],
					"name": "maxInvestment",
					"outputs": [
						{
							"internalType": "uint256",
							"name": "",
							"type": "uint256"
						}
					],
					"stateMutability": "view",
					"type": "function"
				},
				{
					"inputs": [],
					"name": "minInvestment",
					"outputs": [
						{
							"internalType": "uint256",
							"name": "",
							"type": "uint256"
						}
					],
					"stateMutability": "view",
					"type": "function"
				},
				{
					"inputs": [],
					"name": "name",
					"outputs": [
						{
							"internalType": "string",
							"name": "",
							"type": "string"
						}
					],
					"stateMutability": "view",
					"type": "function"
				},
				{
					"inputs": [],
					"name": "raisedAmount",
					"outputs": [
						{
							"internalType": "uint256",
							"name": "",
							"type": "uint256"
						}
					],
					"stateMutability": "view",
					"type": "function"
				},
				{
					"inputs": [],
					"name": "resumeICO",
					"outputs": [],
					"stateMutability": "nonpayable",
					"type": "function"
				},
				{
					"inputs": [],
					"name": "saleEnd",
					"outputs": [
						{
							"internalType": "uint256",
							"name": "",
							"type": "uint256"
						}
					],
					"stateMutability": "view",
					"type": "function"
				},
				{
					"inputs": [],
					"name": "saleStart",
					"outputs": [
						{
							"internalType": "uint256",
							"name": "",
							"type": "uint256"
						}
					],
					"stateMutability": "view",
					"type": "function"
				},
				{
					"inputs": [],
					"name": "symbol",
					"outputs": [
						{
							"internalType": "string",
							"name": "",
							"type": "string"
						}
					],
					"stateMutability": "view",
					"type": "function"
				},
				{
					"inputs": [],
					"name": "tokenTradeStart",
					"outputs": [
						{
							"internalType": "uint256",
							"name": "",
							"type": "uint256"
						}
					],
					"stateMutability": "view",
					"type": "function"
				},
				{
					"inputs": [],
					"name": "totalSupply",
					"outputs": [
						{
							"internalType": "uint256",
							"name": "",
							"type": "uint256"
						}
					],
					"stateMutability": "view",
					"type": "function"
				},
				{
					"inputs": [
						{
							"internalType": "address",
							"name": "to",
							"type": "address"
						},
						{
							"internalType": "uint256",
							"name": "tokens",
							"type": "uint256"
						}
					],
					"name": "transfer",
					"outputs": [
						{
							"internalType": "bool",
							"name": "success",
							"type": "bool"
						}
					],
					"stateMutability": "nonpayable",
					"type": "function"
				},
				{
					"inputs": [
						{
							"internalType": "address",
							"name": "from",
							"type": "address"
						},
						{
							"internalType": "address",
							"name": "to",
							"type": "address"
						},
						{
							"internalType": "uint256",
							"name": "tokens",
							"type": "uint256"
						}
					],
					"name": "transferFrom",
					"outputs": [
						{
							"internalType": "bool",
							"name": "success",
							"type": "bool"
						}
					],
					"stateMutability": "nonpayable",
					"type": "function"
				},
				{
					"stateMutability": "payable",
					"type": "receive"
				}
			],
			"devdoc": {
				"kind": "dev",
				"methods": {},
				"version": 1
			},
			"evm": {
				"assembly": "    /* \"contracts/yusTokenICO.sol\":2827:6003  contract yusICO is yusToken{... */\n  mstore(0x40, 0x80)\n    /* \"contracts/yusTokenICO.sol\":836:867  string public name = \"YusToken\" */\n  mload(0x40)\n  dup1\n  0x40\n  add\n  0x40\n  mstore\n  dup1\n  0x08\n  dup2\n  mstore\n  0x20\n  add\n  0x597573546f6b656e000000000000000000000000000000000000000000000000\n  dup2\n  mstore\n  pop\n  0x00\n  swap1\n  dup1\n  mload\n  swap1\n  0x20\n  add\n  swap1\n  tag_1\n  swap3\n  swap2\n  swap1\n  tag_2\n  jump\t// in\ntag_1:\n  pop\n    /* \"contracts/yusTokenICO.sol\":878:906  string public symbol = \"YUS\" */\n  mload(0x40)\n  dup1\n  0x40\n  add\n  0x40\n  mstore\n  dup1\n  0x03\n  dup2\n  mstore\n  0x20\n  add\n  0x5955530000000000000000000000000000000000000000000000000000000000\n  dup2\n  mstore\n  pop\n  0x01\n  swap1\n  dup1\n  mload\n  swap1\n  0x20\n  add\n  swap1\n  tag_3\n  swap3\n  swap2\n  swap1\n  tag_2\n  jump\t// in\ntag_3:\n  pop\n    /* \"contracts/yusTokenICO.sol\":940:941  0 */\n  0x00\n    /* \"contracts/yusTokenICO.sol\":917:941  uint public decimals = 0 */\n  0x02\n  sstore\n    /* \"contracts/yusTokenICO.sol\":2956:2967  0.001 ether */\n  0x038d7ea4c68000\n    /* \"contracts/yusTokenICO.sol\":2938:2967  uint tokenPrice = 0.001 ether */\n  0x09\n  sstore\n    /* \"contracts/yusTokenICO.sol\":2996:3005  200 ether */\n  0x0ad78ebc5ac6200000\n    /* \"contracts/yusTokenICO.sol\":2978:3005  uint public cap = 200 ether */\n  0x0a\n  sstore\n    /* \"contracts/yusTokenICO.sol\":3148:3150  60 */\n  0x3c\n    /* \"contracts/yusTokenICO.sol\":3130:3145  block.timestamp */\n  timestamp\n    /* \"contracts/yusTokenICO.sol\":3130:3150  block.timestamp + 60 */\n  tag_4\n  swap2\n  swap1\n  tag_5\n  jump\t// in\ntag_4:\n    /* \"contracts/yusTokenICO.sol\":3106:3150  uint public saleStart = block.timestamp + 60 */\n  0x0c\n  sstore\n    /* \"contracts/yusTokenICO.sol\":3234:3240  604800 */\n  0x093a80\n    /* \"contracts/yusTokenICO.sol\":3217:3232  block.timestamp */\n  timestamp\n    /* \"contracts/yusTokenICO.sol\":3217:3240  block.timestamp +604800 */\n  tag_6\n  swap2\n  swap1\n  tag_5\n  jump\t// in\ntag_6:\n    /* \"contracts/yusTokenICO.sol\":3195:3240  uint public saleEnd = block.timestamp +604800 */\n  0x0d\n  sstore\n    /* \"contracts/yusTokenICO.sol\":3374:3380  604800 */\n  0x093a80\n    /* \"contracts/yusTokenICO.sol\":3364:3371  saleEnd */\n  sload(0x0d)\n    /* \"contracts/yusTokenICO.sol\":3364:3380  saleEnd + 604800 */\n  tag_7\n  swap2\n  swap1\n  tag_5\n  jump\t// in\ntag_7:\n    /* \"contracts/yusTokenICO.sol\":3334:3380  uint public tokenTradeStart = saleEnd + 604800 */\n  0x0e\n  sstore\n    /* \"contracts/yusTokenICO.sol\":3419:3427  10 ether */\n  0x8ac7230489e80000\n    /* \"contracts/yusTokenICO.sol\":3391:3427  uint public maxInvestment = 10 ether */\n  0x0f\n  sstore\n    /* \"contracts/yusTokenICO.sol\":3466:3475  0.1 ether */\n  0x016345785d8a0000\n    /* \"contracts/yusTokenICO.sol\":3438:3475  uint public minInvestment = 0.1 ether */\n  0x10\n  sstore\n    /* \"contracts/yusTokenICO.sol\":3574:3732  constructor(address payable _deposit){... */\n  callvalue\n  dup1\n  iszero\n  tag_8\n  jumpi\n  0x00\n  dup1\n  revert\ntag_8:\n  pop\n  mload(0x40)\n  sub(codesize, bytecodeSize)\n  dup1\n  bytecodeSize\n  dup4\n  codecopy\n  dup2\n  dup2\n  add\n  0x40\n  mstore\n  dup2\n  add\n  swap1\n  tag_9\n  swap2\n  swap1\n  tag_10\n  jump\t// in\ntag_9:\n    /* \"contracts/yusTokenICO.sol\":1254:1264  1000000000 */\n  0x3b9aca00\n    /* \"contracts/yusTokenICO.sol\":1240:1251  totalSupply */\n  0x03\n    /* \"contracts/yusTokenICO.sol\":1240:1264  totalSupply = 1000000000 */\n  dup2\n  swap1\n  sstore\n  pop\n    /* \"contracts/yusTokenICO.sol\":1289:1299  msg.sender */\n  caller\n    /* \"contracts/yusTokenICO.sol\":1279:1286  founder */\n  0x04\n  0x00\n    /* \"contracts/yusTokenICO.sol\":1279:1299  founder = msg.sender */\n  0x0100\n  exp\n  dup2\n  sload\n  dup2\n  0xffffffffffffffffffffffffffffffffffffffff\n  mul\n  not\n  and\n  swap1\n  dup4\n  0xffffffffffffffffffffffffffffffffffffffff\n  and\n  mul\n  or\n  swap1\n  sstore\n  pop\n    /* \"contracts/yusTokenICO.sol\":1384:1395  totalSupply */\n  sload(0x03)\n    /* \"contracts/yusTokenICO.sol\":1364:1372  balances */\n  0x05\n    /* \"contracts/yusTokenICO.sol\":1364:1381  balances[founder] */\n  0x00\n    /* \"contracts/yusTokenICO.sol\":1373:1380  founder */\n  0x04\n  0x00\n  swap1\n  sload\n  swap1\n  0x0100\n  exp\n  swap1\n  div\n  0xffffffffffffffffffffffffffffffffffffffff\n  and\n    /* \"contracts/yusTokenICO.sol\":1364:1381  balances[founder] */\n  0xffffffffffffffffffffffffffffffffffffffff\n  and\n  0xffffffffffffffffffffffffffffffffffffffff\n  and\n  dup2\n  mstore\n  0x20\n  add\n  swap1\n  dup2\n  mstore\n  0x20\n  add\n  0x00\n  keccak256\n    /* \"contracts/yusTokenICO.sol\":1364:1395  balances[founder] = totalSupply */\n  dup2\n  swap1\n  sstore\n  pop\n    /* \"contracts/yusTokenICO.sol\":3636:3644  _deposit */\n  dup1\n    /* \"contracts/yusTokenICO.sol\":3626:3633  deposit */\n  0x08\n  0x00\n    /* \"contracts/yusTokenICO.sol\":3626:3644  deposit = _deposit */\n  0x0100\n  exp\n  dup2\n  sload\n  dup2\n  0xffffffffffffffffffffffffffffffffffffffff\n  mul\n  not\n  and\n  swap1\n  dup4\n  0xffffffffffffffffffffffffffffffffffffffff\n  and\n  mul\n  or\n  swap1\n  sstore\n  pop\n    /* \"contracts/yusTokenICO.sol\":3667:3677  msg.sender */\n  caller\n    /* \"contracts/yusTokenICO.sol\":3659:3664  admin */\n  0x07\n  0x00\n    /* \"contracts/yusTokenICO.sol\":3659:3677  admin = msg.sender */\n  0x0100\n  exp\n  dup2\n  sload\n  dup2\n  0xffffffffffffffffffffffffffffffffffffffff\n  mul\n  not\n  and\n  swap1\n  dup4\n  0xffffffffffffffffffffffffffffffffffffffff\n  and\n  mul\n  or\n  swap1\n  sstore\n  pop\n    /* \"contracts/yusTokenICO.sol\":3703:3720  State.beforeStart */\n  0x00\n    /* \"contracts/yusTokenICO.sol\":3692:3700  icoState */\n  0x11\n  0x00\n    /* \"contracts/yusTokenICO.sol\":3692:3720  icoState = State.beforeStart */\n  0x0100\n  exp\n  dup2\n  sload\n  dup2\n  0xff\n  mul\n  not\n  and\n  swap1\n  dup4\n  0x03\n  dup2\n  gt\n  iszero\n  tag_15\n  jumpi\n  tag_16\n  tag_17\n  jump\t// in\ntag_16:\ntag_15:\n  mul\n  or\n  swap1\n  sstore\n  pop\n    /* \"contracts/yusTokenICO.sol\":3574:3732  constructor(address payable _deposit){... */\n  pop\n    /* \"contracts/yusTokenICO.sol\":2827:6003  contract yusICO is yusToken{... */\n  jump(tag_18)\ntag_2:\n  dup3\n  dup1\n  sload\n  tag_19\n  swap1\n  tag_20\n  jump\t// in\ntag_19:\n  swap1\n  0x00\n  mstore\n  keccak256(0x00, 0x20)\n  swap1\n  0x1f\n  add\n  0x20\n  swap1\n  div\n  dup2\n  add\n  swap3\n  dup3\n  tag_22\n  jumpi\n  0x00\n  dup6\n  sstore\n  jump(tag_21)\ntag_22:\n  dup3\n  0x1f\n  lt\n  tag_23\n  jumpi\n  dup1\n  mload\n  not(0xff)\n  and\n  dup4\n  dup1\n  add\n  or\n  dup6\n  sstore\n  jump(tag_21)\ntag_23:\n  dup3\n  dup1\n  add\n  0x01\n  add\n  dup6\n  sstore\n  dup3\n  iszero\n  tag_21\n  jumpi\n  swap2\n  dup3\n  add\ntag_24:\n  dup3\n  dup2\n  gt\n  iszero\n  tag_25\n  jumpi\n  dup3\n  mload\n  dup3\n  sstore\n  swap2\n  0x20\n  add\n  swap2\n  swap1\n  0x01\n  add\n  swap1\n  jump(tag_24)\ntag_25:\ntag_21:\n  pop\n  swap1\n  pop\n  tag_26\n  swap2\n  swap1\n  tag_27\n  jump\t// in\ntag_26:\n  pop\n  swap1\n  jump\t// out\ntag_27:\ntag_28:\n  dup1\n  dup3\n  gt\n  iszero\n  tag_29\n  jumpi\n  0x00\n  dup2\n  0x00\n  swap1\n  sstore\n  pop\n  0x01\n  add\n  jump(tag_28)\ntag_29:\n  pop\n  swap1\n  jump\t// out\n    /* \"#utility.yul\":7:84   */\ntag_30:\n    /* \"#utility.yul\":44:51   */\n  0x00\n    /* \"#utility.yul\":73:78   */\n  dup2\n    /* \"#utility.yul\":62:78   */\n  swap1\n  pop\n    /* \"#utility.yul\":7:84   */\n  swap2\n  swap1\n  pop\n  jump\t// out\n    /* \"#utility.yul\":90:270   */\ntag_31:\n    /* \"#utility.yul\":138:215   */\n  0x4e487b7100000000000000000000000000000000000000000000000000000000\n    /* \"#utility.yul\":135:136   */\n  0x00\n    /* \"#utility.yul\":128:216   */\n  mstore\n    /* \"#utility.yul\":235:239   */\n  0x11\n    /* \"#utility.yul\":232:233   */\n  0x04\n    /* \"#utility.yul\":225:240   */\n  mstore\n    /* \"#utility.yul\":259:263   */\n  0x24\n    /* \"#utility.yul\":256:257   */\n  0x00\n    /* \"#utility.yul\":249:264   */\n  revert\n    /* \"#utility.yul\":276:581   */\ntag_5:\n    /* \"#utility.yul\":316:319   */\n  0x00\n    /* \"#utility.yul\":335:355   */\n  tag_44\n    /* \"#utility.yul\":353:354   */\n  dup3\n    /* \"#utility.yul\":335:355   */\n  tag_30\n  jump\t// in\ntag_44:\n    /* \"#utility.yul\":330:355   */\n  swap2\n  pop\n    /* \"#utility.yul\":369:389   */\n  tag_45\n    /* \"#utility.yul\":387:388   */\n  dup4\n    /* \"#utility.yul\":369:389   */\n  tag_30\n  jump\t// in\ntag_45:\n    /* \"#utility.yul\":364:389   */\n  swap3\n  pop\n    /* \"#utility.yul\":523:524   */\n  dup3\n    /* \"#utility.yul\":455:521   */\n  0xffffffffffffffffffffffffffffffffffffffffffffffffffffffffffffffff\n    /* \"#utility.yul\":451:525   */\n  sub\n    /* \"#utility.yul\":448:449   */\n  dup3\n    /* \"#utility.yul\":445:526   */\n  gt\n    /* \"#utility.yul\":442:549   */\n  iszero\n  tag_46\n  jumpi\n    /* \"#utility.yul\":529:547   */\n  tag_47\n  tag_31\n  jump\t// in\ntag_47:\n    /* \"#utility.yul\":442:549   */\ntag_46:\n    /* \"#utility.yul\":573:574   */\n  dup3\n    /* \"#utility.yul\":570:571   */\n  dup3\n    /* \"#utility.yul\":566:575   */\n  add\n    /* \"#utility.yul\":559:575   */\n  swap1\n  pop\n    /* \"#utility.yul\":276:581   */\n  swap3\n  swap2\n  pop\n  pop\n  jump\t// out\n    /* \"#utility.yul\":668:785   */\ntag_33:\n    /* \"#utility.yul\":777:778   */\n  0x00\n    /* \"#utility.yul\":774:775   */\n  dup1\n    /* \"#utility.yul\":767:779   */\n  revert\n    /* \"#utility.yul\":914:1040   */\ntag_35:\n    /* \"#utility.yul\":951:958   */\n  0x00\n    /* \"#utility.yul\":991:1033   */\n  0xffffffffffffffffffffffffffffffffffffffff\n    /* \"#utility.yul\":984:989   */\n  dup3\n    /* \"#utility.yul\":980:1034   */\n  and\n    /* \"#utility.yul\":969:1034   */\n  swap1\n  pop\n    /* \"#utility.yul\":914:1040   */\n  swap2\n  swap1\n  pop\n  jump\t// out\n    /* \"#utility.yul\":1046:1150   */\ntag_36:\n    /* \"#utility.yul\":1091:1098   */\n  0x00\n    /* \"#utility.yul\":1120:1144   */\n  tag_53\n    /* \"#utility.yul\":1138:1143   */\n  dup3\n    /* \"#utility.yul\":1120:1144   */\n  tag_35\n  jump\t// in\ntag_53:\n    /* \"#utility.yul\":1109:1144   */\n  swap1\n  pop\n    /* \"#utility.yul\":1046:1150   */\n  swap2\n  swap1\n  pop\n  jump\t// out\n    /* \"#utility.yul\":1156:1294   */\ntag_37:\n    /* \"#utility.yul\":1237:1269   */\n  tag_55\n    /* \"#utility.yul\":1263:1268   */\n  dup2\n    /* \"#utility.yul\":1237:1269   */\n  tag_36\n  jump\t// in\ntag_55:\n    /* \"#utility.yul\":1230:1235   */\n  dup2\n    /* \"#utility.yul\":1227:1270   */\n  eq\n    /* \"#utility.yul\":1217:1288   */\n  tag_56\n  jumpi\n    /* \"#utility.yul\":1284:1285   */\n  0x00\n    /* \"#utility.yul\":1281:1282   */\n  dup1\n    /* \"#utility.yul\":1274:1286   */\n  revert\n    /* \"#utility.yul\":1217:1288   */\ntag_56:\n    /* \"#utility.yul\":1156:1294   */\n  pop\n  jump\t// out\n    /* \"#utility.yul\":1300:1459   */\ntag_38:\n    /* \"#utility.yul\":1365:1370   */\n  0x00\n    /* \"#utility.yul\":1396:1402   */\n  dup2\n    /* \"#utility.yul\":1390:1403   */\n  mload\n    /* \"#utility.yul\":1381:1403   */\n  swap1\n  pop\n    /* \"#utility.yul\":1412:1453   */\n  tag_58\n    /* \"#utility.yul\":1447:1452   */\n  dup2\n    /* \"#utility.yul\":1412:1453   */\n  tag_37\n  jump\t// in\ntag_58:\n    /* \"#utility.yul\":1300:1459   */\n  swap3\n  swap2\n  pop\n  pop\n  jump\t// out\n    /* \"#utility.yul\":1465:1832   */\ntag_10:\n    /* \"#utility.yul\":1543:1549   */\n  0x00\n    /* \"#utility.yul\":1592:1594   */\n  0x20\n    /* \"#utility.yul\":1580:1589   */\n  dup3\n    /* \"#utility.yul\":1571:1578   */\n  dup5\n    /* \"#utility.yul\":1567:1590   */\n  sub\n    /* \"#utility.yul\":1563:1595   */\n  slt\n    /* \"#utility.yul\":1560:1679   */\n  iszero\n  tag_60\n  jumpi\n    /* \"#utility.yul\":1598:1677   */\n  tag_61\n  tag_33\n  jump\t// in\ntag_61:\n    /* \"#utility.yul\":1560:1679   */\ntag_60:\n    /* \"#utility.yul\":1718:1719   */\n  0x00\n    /* \"#utility.yul\":1743:1815   */\n  tag_62\n    /* \"#utility.yul\":1807:1814   */\n  dup5\n    /* \"#utility.yul\":1798:1804   */\n  dup3\n    /* \"#utility.yul\":1787:1796   */\n  dup6\n    /* \"#utility.yul\":1783:1805   */\n  add\n    /* \"#utility.yul\":1743:1815   */\n  tag_38\n  jump\t// in\ntag_62:\n    /* \"#utility.yul\":1733:1815   */\n  swap2\n  pop\n    /* \"#utility.yul\":1689:1825   */\n  pop\n    /* \"#utility.yul\":1465:1832   */\n  swap3\n  swap2\n  pop\n  pop\n  jump\t// out\n    /* \"#utility.yul\":1838:2018   */\ntag_17:\n    /* \"#utility.yul\":1886:1963   */\n  0x4e487b7100000000000000000000000000000000000000000000000000000000\n    /* \"#utility.yul\":1883:1884   */\n  0x00\n    /* \"#utility.yul\":1876:1964   */\n  mstore\n    /* \"#utility.yul\":1983:1987   */\n  0x21\n    /* \"#utility.yul\":1980:1981   */\n  0x04\n    /* \"#utility.yul\":1973:1988   */\n  mstore\n    /* \"#utility.yul\":2007:2011   */\n  0x24\n    /* \"#utility.yul\":2004:2005   */\n  0x00\n    /* \"#utility.yul\":1997:2012   */\n  revert\n    /* \"#utility.yul\":2024:2204   */\ntag_39:\n    /* \"#utility.yul\":2072:2149   */\n  0x4e487b7100000000000000000000000000000000000000000000000000000000\n    /* \"#utility.yul\":2069:2070   */\n  0x00\n    /* \"#utility.yul\":2062:2150   */\n  mstore\n    /* \"#utility.yul\":2169:2173   */\n  0x22\n    /* \"#utility.yul\":2166:2167   */\n  0x04\n    /* \"#utility.yul\":2159:2174   */\n  mstore\n    /* \"#utility.yul\":2193:2197   */\n  0x24\n    /* \"#utility.yul\":2190:2191   */\n  0x00\n    /* \"#utility.yul\":2183:2198   */\n  revert\n    /* \"#utility.yul\":2210:2530   */\ntag_20:\n    /* \"#utility.yul\":2254:2260   */\n  0x00\n    /* \"#utility.yul\":2291:2292   */\n  0x02\n    /* \"#utility.yul\":2285:2289   */\n  dup3\n    /* \"#utility.yul\":2281:2293   */\n  div\n    /* \"#utility.yul\":2271:2293   */\n  swap1\n  pop\n    /* \"#utility.yul\":2338:2339   */\n  0x01\n    /* \"#utility.yul\":2332:2336   */\n  dup3\n    /* \"#utility.yul\":2328:2340   */\n  and\n    /* \"#utility.yul\":2359:2377   */\n  dup1\n    /* \"#utility.yul\":2349:2430   */\n  tag_66\n  jumpi\n    /* \"#utility.yul\":2415:2419   */\n  0x7f\n    /* \"#utility.yul\":2407:2413   */\n  dup3\n    /* \"#utility.yul\":2403:2420   */\n  and\n    /* \"#utility.yul\":2393:2420   */\n  swap2\n  pop\n    /* \"#utility.yul\":2349:2430   */\ntag_66:\n    /* \"#utility.yul\":2477:2479   */\n  0x20\n    /* \"#utility.yul\":2469:2475   */\n  dup3\n    /* \"#utility.yul\":2466:2480   */\n  lt\n    /* \"#utility.yul\":2446:2464   */\n  dup2\n    /* \"#utility.yul\":2443:2481   */\n  sub\n    /* \"#utility.yul\":2440:2524   */\n  tag_67\n  jumpi\n    /* \"#utility.yul\":2496:2514   */\n  tag_68\n  tag_39\n  jump\t// in\ntag_68:\n    /* \"#utility.yul\":2440:2524   */\ntag_67:\n    /* \"#utility.yul\":2261:2530   */\n  pop\n    /* \"#utility.yul\":2210:2530   */\n  swap2\n  swap1\n  pop\n  jump\t// out\n    /* \"contracts/yusTokenICO.sol\":2827:6003  contract yusICO is yusToken{... */\ntag_18:\n  dataSize(sub_0)\n  dup1\n  dataOffset(sub_0)\n  0x00\n  codecopy\n  0x00\n  return\nstop\n\nsub_0: assembly {\n        /* \"contracts/yusTokenICO.sol\":2827:6003  contract yusICO is yusToken{... */\n      mstore(0x40, 0x80)\n      jumpi(tag_1, lt(calldatasize, 0x04))\n      shr(0xe0, calldataload(0x00))\n      dup1\n      0x6d58c88f\n      gt\n      tag_30\n      jumpi\n      dup1\n      0xab0bcc41\n      gt\n      tag_31\n      jumpi\n      dup1\n      0xcc9ba583\n      gt\n      tag_32\n      jumpi\n      dup1\n      0xcc9ba583\n      eq\n      tag_26\n      jumpi\n      dup1\n      0xd0e30db0\n      eq\n      tag_27\n      jumpi\n      dup1\n      0xdd62ed3e\n      eq\n      tag_28\n      jumpi\n      dup1\n      0xf851a440\n      eq\n      tag_29\n      jumpi\n      jump(tag_2)\n    tag_32:\n      dup1\n      0xab0bcc41\n      eq\n      tag_23\n      jumpi\n      dup1\n      0xc10b9358\n      eq\n      tag_24\n      jumpi\n      dup1\n      0xc59ee1dc\n      eq\n      tag_25\n      jumpi\n      jump(tag_2)\n    tag_31:\n      dup1\n      0x8ac2c680\n      gt\n      tag_33\n      jumpi\n      dup1\n      0x8ac2c680\n      eq\n      tag_19\n      jumpi\n      dup1\n      0x95d89b41\n      eq\n      tag_20\n      jumpi\n      dup1\n      0x9cbd7da5\n      eq\n      tag_21\n      jumpi\n      dup1\n      0xa9059cbb\n      eq\n      tag_22\n      jumpi\n      jump(tag_2)\n    tag_33:\n      dup1\n      0x6d58c88f\n      eq\n      tag_16\n      jumpi\n      dup1\n      0x70a08231\n      eq\n      tag_17\n      jumpi\n      dup1\n      0x783f525f\n      eq\n      tag_18\n      jumpi\n      jump(tag_2)\n    tag_30:\n      dup1\n      0x23b872dd\n      gt\n      tag_34\n      jumpi\n      dup1\n      0x355274ea\n      gt\n      tag_35\n      jumpi\n      dup1\n      0x355274ea\n      eq\n      tag_12\n      jumpi\n      dup1\n      0x378aa701\n      eq\n      tag_13\n      jumpi\n      dup1\n      0x44f38756\n      eq\n      tag_14\n      jumpi\n      dup1\n      0x4d853ee5\n      eq\n      tag_15\n      jumpi\n      jump(tag_2)\n    tag_35:\n      dup1\n      0x23b872dd\n      eq\n      tag_9\n      jumpi\n      dup1\n      0x27e235e3\n      eq\n      tag_10\n      jumpi\n      dup1\n      0x313ce567\n      eq\n      tag_11\n      jumpi\n      jump(tag_2)\n    tag_34:\n      dup1\n      0x2e1316\n      eq\n      tag_3\n      jumpi\n      dup1\n      0x06fdde03\n      eq\n      tag_4\n      jumpi\n      dup1\n      0x08003f78\n      eq\n      tag_5\n      jumpi\n      dup1\n      0x095ea7b3\n      eq\n      tag_6\n      jumpi\n      dup1\n      0x129caa18\n      eq\n      tag_7\n      jumpi\n      dup1\n      0x18160ddd\n      eq\n      tag_8\n      jumpi\n      jump(tag_2)\n    tag_1:\n      jumpi(tag_2, calldatasize)\n        /* \"contracts/yusTokenICO.sol\":5265:5276  investICO() */\n      tag_38\n        /* \"contracts/yusTokenICO.sol\":5265:5274  investICO */\n      tag_39\n        /* \"contracts/yusTokenICO.sol\":5265:5276  investICO() */\n      jump\t// in\n    tag_38:\n      stop\n        /* \"contracts/yusTokenICO.sol\":2827:6003  contract yusICO is yusToken{... */\n    tag_2:\n      0x00\n      dup1\n      revert\n        /* \"contracts/yusTokenICO.sol\":3391:3427  uint public maxInvestment = 10 ether */\n    tag_3:\n      callvalue\n      dup1\n      iszero\n      tag_40\n      jumpi\n      0x00\n      dup1\n      revert\n    tag_40:\n      pop\n      tag_41\n      tag_42\n      jump\t// in\n    tag_41:\n      mload(0x40)\n      tag_43\n      swap2\n      swap1\n      tag_44\n      jump\t// in\n    tag_43:\n      mload(0x40)\n      dup1\n      swap2\n      sub\n      swap1\n      return\n        /* \"contracts/yusTokenICO.sol\":836:867  string public name = \"YusToken\" */\n    tag_4:\n      callvalue\n      dup1\n      iszero\n      tag_45\n      jumpi\n      0x00\n      dup1\n      revert\n    tag_45:\n      pop\n      tag_46\n      tag_47\n      jump\t// in\n    tag_46:\n      mload(0x40)\n      tag_48\n      swap2\n      swap1\n      tag_49\n      jump\t// in\n    tag_48:\n      mload(0x40)\n      dup1\n      swap2\n      sub\n      swap1\n      return\n        /* \"contracts/yusTokenICO.sol\":5790:5996  function burnTokens() public returns(bool) {... */\n    tag_5:\n      callvalue\n      dup1\n      iszero\n      tag_50\n      jumpi\n      0x00\n      dup1\n      revert\n    tag_50:\n      pop\n      tag_51\n      tag_52\n      jump\t// in\n    tag_51:\n      mload(0x40)\n      tag_53\n      swap2\n      swap1\n      tag_54\n      jump\t// in\n    tag_53:\n      mload(0x40)\n      dup1\n      swap2\n      sub\n      swap1\n      return\n        /* \"contracts/yusTokenICO.sol\":2056:2375  function approve(address spender, uint tokens) public override returns (bool success) {... */\n    tag_6:\n      callvalue\n      dup1\n      iszero\n      tag_55\n      jumpi\n      0x00\n      dup1\n      revert\n    tag_55:\n      pop\n      tag_56\n      0x04\n      dup1\n      calldatasize\n      sub\n      dup2\n      add\n      swap1\n      tag_57\n      swap2\n      swap1\n      tag_58\n      jump\t// in\n    tag_57:\n      tag_59\n      jump\t// in\n    tag_56:\n      mload(0x40)\n      tag_60\n      swap2\n      swap1\n      tag_54\n      jump\t// in\n    tag_60:\n      mload(0x40)\n      dup1\n      swap2\n      sub\n      swap1\n      return\n        /* \"contracts/yusTokenICO.sol\":3841:3927  function haltICO() onlyAdmin public {... */\n    tag_7:\n      callvalue\n      dup1\n      iszero\n      tag_61\n      jumpi\n      0x00\n      dup1\n      revert\n    tag_61:\n      pop\n      tag_62\n      tag_63\n      jump\t// in\n    tag_62:\n      stop\n        /* \"contracts/yusTokenICO.sol\":952:984  uint public override totalSupply */\n    tag_8:\n      callvalue\n      dup1\n      iszero\n      tag_64\n      jumpi\n      0x00\n      dup1\n      revert\n    tag_64:\n      pop\n      tag_65\n      tag_66\n      jump\t// in\n    tag_65:\n      mload(0x40)\n      tag_67\n      swap2\n      swap1\n      tag_44\n      jump\t// in\n    tag_67:\n      mload(0x40)\n      dup1\n      swap2\n      sub\n      swap1\n      return\n        /* \"contracts/yusTokenICO.sol\":5531:5778  function transferFrom(address from, address to, uint tokens) public override returns(bool success){... */\n    tag_9:\n      callvalue\n      dup1\n      iszero\n      tag_68\n      jumpi\n      0x00\n      dup1\n      revert\n    tag_68:\n      pop\n      tag_69\n      0x04\n      dup1\n      calldatasize\n      sub\n      dup2\n      add\n      swap1\n      tag_70\n      swap2\n      swap1\n      tag_71\n      jump\t// in\n    tag_70:\n      tag_72\n      jump\t// in\n    tag_69:\n      mload(0x40)\n      tag_73\n      swap2\n      swap1\n      tag_54\n      jump\t// in\n    tag_73:\n      mload(0x40)\n      dup1\n      swap2\n      sub\n      swap1\n      return\n        /* \"contracts/yusTokenICO.sol\":1028:1068  mapping(address => uint) public balances */\n    tag_10:\n      callvalue\n      dup1\n      iszero\n      tag_74\n      jumpi\n      0x00\n      dup1\n      revert\n    tag_74:\n      pop\n      tag_75\n      0x04\n      dup1\n      calldatasize\n      sub\n      dup2\n      add\n      swap1\n      tag_76\n      swap2\n      swap1\n      tag_77\n      jump\t// in\n    tag_76:\n      tag_78\n      jump\t// in\n    tag_75:\n      mload(0x40)\n      tag_79\n      swap2\n      swap1\n      tag_44\n      jump\t// in\n    tag_79:\n      mload(0x40)\n      dup1\n      swap2\n      sub\n      swap1\n      return\n        /* \"contracts/yusTokenICO.sol\":917:941  uint public decimals = 0 */\n    tag_11:\n      callvalue\n      dup1\n      iszero\n      tag_80\n      jumpi\n      0x00\n      dup1\n      revert\n    tag_80:\n      pop\n      tag_81\n      tag_82\n      jump\t// in\n    tag_81:\n      mload(0x40)\n      tag_83\n      swap2\n      swap1\n      tag_44\n      jump\t// in\n    tag_83:\n      mload(0x40)\n      dup1\n      swap2\n      sub\n      swap1\n      return\n        /* \"contracts/yusTokenICO.sol\":2978:3005  uint public cap = 200 ether */\n    tag_12:\n      callvalue\n      dup1\n      iszero\n      tag_84\n      jumpi\n      0x00\n      dup1\n      revert\n    tag_84:\n      pop\n      tag_85\n      tag_86\n      jump\t// in\n    tag_85:\n      mload(0x40)\n      tag_87\n      swap2\n      swap1\n      tag_44\n      jump\t// in\n    tag_87:\n      mload(0x40)\n      dup1\n      swap2\n      sub\n      swap1\n      return\n        /* \"contracts/yusTokenICO.sol\":4167:4592  function getCurrentState() public view returns(State){... */\n    tag_13:\n      callvalue\n      dup1\n      iszero\n      tag_88\n      jumpi\n      0x00\n      dup1\n      revert\n    tag_88:\n      pop\n      tag_89\n      tag_90\n      jump\t// in\n    tag_89:\n      mload(0x40)\n      tag_91\n      swap2\n      swap1\n      tag_92\n      jump\t// in\n    tag_91:\n      mload(0x40)\n      dup1\n      swap2\n      sub\n      swap1\n      return\n        /* \"contracts/yusTokenICO.sol\":3541:3562  State public icoState */\n    tag_14:\n      callvalue\n      dup1\n      iszero\n      tag_93\n      jumpi\n      0x00\n      dup1\n      revert\n    tag_93:\n      pop\n      tag_94\n      tag_95\n      jump\t// in\n    tag_94:\n      mload(0x40)\n      tag_96\n      swap2\n      swap1\n      tag_92\n      jump\t// in\n    tag_96:\n      mload(0x40)\n      dup1\n      swap2\n      sub\n      swap1\n      return\n        /* \"contracts/yusTokenICO.sol\":995:1017  address public founder */\n    tag_15:\n      callvalue\n      dup1\n      iszero\n      tag_97\n      jumpi\n      0x00\n      dup1\n      revert\n    tag_97:\n      pop\n      tag_98\n      tag_99\n      jump\t// in\n    tag_98:\n      mload(0x40)\n      tag_100\n      swap2\n      swap1\n      tag_101\n      jump\t// in\n    tag_100:\n      mload(0x40)\n      dup1\n      swap2\n      sub\n      swap1\n      return\n        /* \"contracts/yusTokenICO.sol\":4035:4157  function changeDepositAddress(address payable newDeposit) public onlyAdmin{... */\n    tag_16:\n      callvalue\n      dup1\n      iszero\n      tag_102\n      jumpi\n      0x00\n      dup1\n      revert\n    tag_102:\n      pop\n      tag_103\n      0x04\n      dup1\n      calldatasize\n      sub\n      dup2\n      add\n      swap1\n      tag_104\n      swap2\n      swap1\n      tag_105\n      jump\t// in\n    tag_104:\n      tag_106\n      jump\t// in\n    tag_103:\n      stop\n        /* \"contracts/yusTokenICO.sol\":1419:1556  function balanceOf(address tokenOwner) public override view returns (uint balance){... */\n    tag_17:\n      callvalue\n      dup1\n      iszero\n      tag_107\n      jumpi\n      0x00\n      dup1\n      revert\n    tag_107:\n      pop\n      tag_108\n      0x04\n      dup1\n      calldatasize\n      sub\n      dup2\n      add\n      swap1\n      tag_109\n      swap2\n      swap1\n      tag_77\n      jump\t// in\n    tag_109:\n      tag_110\n      jump\t// in\n    tag_108:\n      mload(0x40)\n      tag_111\n      swap2\n      swap1\n      tag_44\n      jump\t// in\n    tag_111:\n      mload(0x40)\n      dup1\n      swap2\n      sub\n      swap1\n      return\n        /* \"contracts/yusTokenICO.sol\":4671:5218  function investICO() payable public returns(bool){ ... */\n    tag_18:\n      tag_112\n      tag_39\n      jump\t// in\n    tag_112:\n      mload(0x40)\n      tag_113\n      swap2\n      swap1\n      tag_54\n      jump\t// in\n    tag_113:\n      mload(0x40)\n      dup1\n      swap2\n      sub\n      swap1\n      return\n        /* \"contracts/yusTokenICO.sol\":3438:3475  uint public minInvestment = 0.1 ether */\n    tag_19:\n      callvalue\n      dup1\n      iszero\n      tag_114\n      jumpi\n      0x00\n      dup1\n      revert\n    tag_114:\n      pop\n      tag_115\n      tag_116\n      jump\t// in\n    tag_115:\n      mload(0x40)\n      tag_117\n      swap2\n      swap1\n      tag_44\n      jump\t// in\n    tag_117:\n      mload(0x40)\n      dup1\n      swap2\n      sub\n      swap1\n      return\n        /* \"contracts/yusTokenICO.sol\":878:906  string public symbol = \"YUS\" */\n    tag_20:\n      callvalue\n      dup1\n      iszero\n      tag_118\n      jumpi\n      0x00\n      dup1\n      revert\n    tag_118:\n      pop\n      tag_119\n      tag_120\n      jump\t// in\n    tag_119:\n      mload(0x40)\n      tag_121\n      swap2\n      swap1\n      tag_49\n      jump\t// in\n    tag_121:\n      mload(0x40)\n      dup1\n      swap2\n      sub\n      swap1\n      return\n        /* \"contracts/yusTokenICO.sol\":3937:4025  function resumeICO() onlyAdmin public{... */\n    tag_21:\n      callvalue\n      dup1\n      iszero\n      tag_122\n      jumpi\n      0x00\n      dup1\n      revert\n    tag_122:\n      pop\n      tag_123\n      tag_124\n      jump\t// in\n    tag_123:\n      stop\n        /* \"contracts/yusTokenICO.sol\":5298:5518  function transfer(address to, uint tokens) public override returns (bool success){... */\n    tag_22:\n      callvalue\n      dup1\n      iszero\n      tag_125\n      jumpi\n      0x00\n      dup1\n      revert\n    tag_125:\n      pop\n      tag_126\n      0x04\n      dup1\n      calldatasize\n      sub\n      dup2\n      add\n      swap1\n      tag_127\n      swap2\n      swap1\n      tag_58\n      jump\t// in\n    tag_127:\n      tag_128\n      jump\t// in\n    tag_126:\n      mload(0x40)\n      tag_129\n      swap2\n      swap1\n      tag_54\n      jump\t// in\n    tag_129:\n      mload(0x40)\n      dup1\n      swap2\n      sub\n      swap1\n      return\n        /* \"contracts/yusTokenICO.sol\":3106:3150  uint public saleStart = block.timestamp + 60 */\n    tag_23:\n      callvalue\n      dup1\n      iszero\n      tag_130\n      jumpi\n      0x00\n      dup1\n      revert\n    tag_130:\n      pop\n      tag_131\n      tag_132\n      jump\t// in\n    tag_131:\n      mload(0x40)\n      tag_133\n      swap2\n      swap1\n      tag_44\n      jump\t// in\n    tag_133:\n      mload(0x40)\n      dup1\n      swap2\n      sub\n      swap1\n      return\n        /* \"contracts/yusTokenICO.sol\":3195:3240  uint public saleEnd = block.timestamp +604800 */\n    tag_24:\n      callvalue\n      dup1\n      iszero\n      tag_134\n      jumpi\n      0x00\n      dup1\n      revert\n    tag_134:\n      pop\n      tag_135\n      tag_136\n      jump\t// in\n    tag_135:\n      mload(0x40)\n      tag_137\n      swap2\n      swap1\n      tag_44\n      jump\t// in\n    tag_137:\n      mload(0x40)\n      dup1\n      swap2\n      sub\n      swap1\n      return\n        /* \"contracts/yusTokenICO.sol\":3017:3041  uint public raisedAmount */\n    tag_25:\n      callvalue\n      dup1\n      iszero\n      tag_138\n      jumpi\n      0x00\n      dup1\n      revert\n    tag_138:\n      pop\n      tag_139\n      tag_140\n      jump\t// in\n    tag_139:\n      mload(0x40)\n      tag_141\n      swap2\n      swap1\n      tag_44\n      jump\t// in\n    tag_141:\n      mload(0x40)\n      dup1\n      swap2\n      sub\n      swap1\n      return\n        /* \"contracts/yusTokenICO.sol\":3334:3380  uint public tokenTradeStart = saleEnd + 604800 */\n    tag_26:\n      callvalue\n      dup1\n      iszero\n      tag_142\n      jumpi\n      0x00\n      dup1\n      revert\n    tag_142:\n      pop\n      tag_143\n      tag_144\n      jump\t// in\n    tag_143:\n      mload(0x40)\n      tag_145\n      swap2\n      swap1\n      tag_44\n      jump\t// in\n    tag_145:\n      mload(0x40)\n      dup1\n      swap2\n      sub\n      swap1\n      return\n        /* \"contracts/yusTokenICO.sol\":2896:2926  address payable public deposit */\n    tag_27:\n      callvalue\n      dup1\n      iszero\n      tag_146\n      jumpi\n      0x00\n      dup1\n      revert\n    tag_146:\n      pop\n      tag_147\n      tag_148\n      jump\t// in\n    tag_147:\n      mload(0x40)\n      tag_149\n      swap2\n      swap1\n      tag_150\n      jump\t// in\n    tag_149:\n      mload(0x40)\n      dup1\n      swap2\n      sub\n      swap1\n      return\n        /* \"contracts/yusTokenICO.sol\":1894:2046  function allowance(address tokenOwner, address spender) view public override returns(uint){... */\n    tag_28:\n      callvalue\n      dup1\n      iszero\n      tag_151\n      jumpi\n      0x00\n      dup1\n      revert\n    tag_151:\n      pop\n      tag_152\n      0x04\n      dup1\n      calldatasize\n      sub\n      dup2\n      add\n      swap1\n      tag_153\n      swap2\n      swap1\n      tag_154\n      jump\t// in\n    tag_153:\n      tag_155\n      jump\t// in\n    tag_152:\n      mload(0x40)\n      tag_156\n      swap2\n      swap1\n      tag_44\n      jump\t// in\n    tag_156:\n      mload(0x40)\n      dup1\n      swap2\n      sub\n      swap1\n      return\n        /* \"contracts/yusTokenICO.sol\":2865:2885  address public admin */\n    tag_29:\n      callvalue\n      dup1\n      iszero\n      tag_157\n      jumpi\n      0x00\n      dup1\n      revert\n    tag_157:\n      pop\n      tag_158\n      tag_159\n      jump\t// in\n    tag_158:\n      mload(0x40)\n      tag_160\n      swap2\n      swap1\n      tag_101\n      jump\t// in\n    tag_160:\n      mload(0x40)\n      dup1\n      swap2\n      sub\n      swap1\n      return\n        /* \"contracts/yusTokenICO.sol\":4671:5218  function investICO() payable public returns(bool){ ... */\n    tag_39:\n        /* \"contracts/yusTokenICO.sol\":4715:4719  bool */\n      0x00\n        /* \"contracts/yusTokenICO.sol\":4743:4760  getCurrentState() */\n      tag_162\n        /* \"contracts/yusTokenICO.sol\":4743:4758  getCurrentState */\n      tag_90\n        /* \"contracts/yusTokenICO.sol\":4743:4760  getCurrentState() */\n      jump\t// in\n    tag_162:\n        /* \"contracts/yusTokenICO.sol\":4732:4740  icoState */\n      0x11\n      0x00\n        /* \"contracts/yusTokenICO.sol\":4732:4760  icoState = getCurrentState() */\n      0x0100\n      exp\n      dup2\n      sload\n      dup2\n      0xff\n      mul\n      not\n      and\n      swap1\n      dup4\n      0x03\n      dup2\n      gt\n      iszero\n      tag_163\n      jumpi\n      tag_164\n      tag_165\n      jump\t// in\n    tag_164:\n    tag_163:\n      mul\n      or\n      swap1\n      sstore\n      pop\n        /* \"contracts/yusTokenICO.sol\":4791:4804  State.running */\n      0x01\n        /* \"contracts/yusTokenICO.sol\":4779:4804  icoState == State.running */\n      0x03\n      dup2\n      gt\n      iszero\n      tag_166\n      jumpi\n      tag_167\n      tag_165\n      jump\t// in\n    tag_167:\n    tag_166:\n        /* \"contracts/yusTokenICO.sol\":4779:4787  icoState */\n      0x11\n      0x00\n      swap1\n      sload\n      swap1\n      0x0100\n      exp\n      swap1\n      div\n      0xff\n      and\n        /* \"contracts/yusTokenICO.sol\":4779:4804  icoState == State.running */\n      0x03\n      dup2\n      gt\n      iszero\n      tag_168\n      jumpi\n      tag_169\n      tag_165\n      jump\t// in\n    tag_169:\n    tag_168:\n      eq\n        /* \"contracts/yusTokenICO.sol\":4771:4805  require(icoState == State.running) */\n      tag_170\n      jumpi\n      0x00\n      dup1\n      revert\n    tag_170:\n        /* \"contracts/yusTokenICO.sol\":4837:4850  minInvestment */\n      sload(0x10)\n        /* \"contracts/yusTokenICO.sol\":4824:4833  msg.value */\n      callvalue\n        /* \"contracts/yusTokenICO.sol\":4824:4850  msg.value >= minInvestment */\n      lt\n      iszero\n        /* \"contracts/yusTokenICO.sol\":4824:4880  msg.value >= minInvestment && msg.value <= maxInvestment */\n      dup1\n      iszero\n      tag_171\n      jumpi\n      pop\n        /* \"contracts/yusTokenICO.sol\":4867:4880  maxInvestment */\n      sload(0x0f)\n        /* \"contracts/yusTokenICO.sol\":4854:4863  msg.value */\n      callvalue\n        /* \"contracts/yusTokenICO.sol\":4854:4880  msg.value <= maxInvestment */\n      gt\n      iszero\n        /* \"contracts/yusTokenICO.sol\":4824:4880  msg.value >= minInvestment && msg.value <= maxInvestment */\n    tag_171:\n        /* \"contracts/yusTokenICO.sol\":4816:4881  require(msg.value >= minInvestment && msg.value <= maxInvestment) */\n      tag_172\n      jumpi\n      0x00\n      dup1\n      revert\n    tag_172:\n        /* \"contracts/yusTokenICO.sol\":4908:4917  msg.value */\n      callvalue\n        /* \"contracts/yusTokenICO.sol\":4892:4904  raisedAmount */\n      0x0b\n      0x00\n        /* \"contracts/yusTokenICO.sol\":4892:4917  raisedAmount += msg.value */\n      dup3\n      dup3\n      sload\n      tag_173\n      swap2\n      swap1\n      tag_174\n      jump\t// in\n    tag_173:\n      swap3\n      pop\n      pop\n      dup2\n      swap1\n      sstore\n      pop\n        /* \"contracts/yusTokenICO.sol\":4952:4955  cap */\n      sload(0x0a)\n        /* \"contracts/yusTokenICO.sol\":4936:4948  raisedAmount */\n      sload(0x0b)\n        /* \"contracts/yusTokenICO.sol\":4936:4955  raisedAmount <= cap */\n      gt\n      iszero\n        /* \"contracts/yusTokenICO.sol\":4928:4956  require(raisedAmount <= cap) */\n      tag_175\n      jumpi\n      0x00\n      dup1\n      revert\n    tag_175:\n        /* \"contracts/yusTokenICO.sol\":4967:4978  uint tokens */\n      0x00\n        /* \"contracts/yusTokenICO.sol\":4993:5003  tokenPrice */\n      sload(0x09)\n        /* \"contracts/yusTokenICO.sol\":4981:4990  msg.value */\n      callvalue\n        /* \"contracts/yusTokenICO.sol\":4981:5003  msg.value / tokenPrice */\n      tag_176\n      swap2\n      swap1\n      tag_177\n      jump\t// in\n    tag_176:\n        /* \"contracts/yusTokenICO.sol\":4967:5003  uint tokens = msg.value / tokenPrice */\n      swap1\n      pop\n        /* \"contracts/yusTokenICO.sol\":5048:5054  tokens */\n      dup1\n        /* \"contracts/yusTokenICO.sol\":5024:5032  balances */\n      0x05\n        /* \"contracts/yusTokenICO.sol\":5024:5044  balances[msg.sender] */\n      0x00\n        /* \"contracts/yusTokenICO.sol\":5033:5043  msg.sender */\n      caller\n        /* \"contracts/yusTokenICO.sol\":5024:5044  balances[msg.sender] */\n      0xffffffffffffffffffffffffffffffffffffffff\n      and\n      0xffffffffffffffffffffffffffffffffffffffff\n      and\n      dup2\n      mstore\n      0x20\n      add\n      swap1\n      dup2\n      mstore\n      0x20\n      add\n      0x00\n      keccak256\n      0x00\n        /* \"contracts/yusTokenICO.sol\":5024:5054  balances[msg.sender] += tokens */\n      dup3\n      dup3\n      sload\n      tag_178\n      swap2\n      swap1\n      tag_174\n      jump\t// in\n    tag_178:\n      swap3\n      pop\n      pop\n      dup2\n      swap1\n      sstore\n      pop\n        /* \"contracts/yusTokenICO.sol\":5086:5092  tokens */\n      dup1\n        /* \"contracts/yusTokenICO.sol\":5065:5073  balances */\n      0x05\n        /* \"contracts/yusTokenICO.sol\":5065:5082  balances[founder] */\n      0x00\n        /* \"contracts/yusTokenICO.sol\":5074:5081  founder */\n      0x04\n      0x00\n      swap1\n      sload\n      swap1\n      0x0100\n      exp\n      swap1\n      div\n      0xffffffffffffffffffffffffffffffffffffffff\n      and\n        /* \"contracts/yusTokenICO.sol\":5065:5082  balances[founder] */\n      0xffffffffffffffffffffffffffffffffffffffff\n      and\n      0xffffffffffffffffffffffffffffffffffffffff\n      and\n      dup2\n      mstore\n      0x20\n      add\n      swap1\n      dup2\n      mstore\n      0x20\n      add\n      0x00\n      keccak256\n      0x00\n        /* \"contracts/yusTokenICO.sol\":5065:5092  balances[founder] -= tokens */\n      dup3\n      dup3\n      sload\n      tag_179\n      swap2\n      swap1\n      tag_180\n      jump\t// in\n    tag_179:\n      swap3\n      pop\n      pop\n      dup2\n      swap1\n      sstore\n      pop\n        /* \"contracts/yusTokenICO.sol\":5104:5111  deposit */\n      0x08\n      0x00\n      swap1\n      sload\n      swap1\n      0x0100\n      exp\n      swap1\n      div\n      0xffffffffffffffffffffffffffffffffffffffff\n      and\n        /* \"contracts/yusTokenICO.sol\":5104:5120  deposit.transfer */\n      0xffffffffffffffffffffffffffffffffffffffff\n      and\n        /* \"contracts/yusTokenICO.sol\":5104:5131  deposit.transfer(msg.value) */\n      0x08fc\n        /* \"contracts/yusTokenICO.sol\":5121:5130  msg.value */\n      callvalue\n        /* \"contracts/yusTokenICO.sol\":5104:5131  deposit.transfer(msg.value) */\n      swap1\n      dup2\n      iszero\n      mul\n      swap1\n      mload(0x40)\n      0x00\n      mload(0x40)\n      dup1\n      dup4\n      sub\n      dup2\n      dup6\n      dup9\n      dup9\n      call\n      swap4\n      pop\n      pop\n      pop\n      pop\n      iszero\n      dup1\n      iszero\n      tag_182\n      jumpi\n      returndatasize\n      0x00\n      dup1\n      returndatacopy\n      revert(0x00, returndatasize)\n    tag_182:\n      pop\n        /* \"contracts/yusTokenICO.sol\":5148:5188  InvestICO(msg.sender, msg.value, tokens) */\n      0xe58b7d87d21cf1b6c9066ff73d56461fc687bb4858b6501c4273fa5cda210224\n        /* \"contracts/yusTokenICO.sol\":5158:5168  msg.sender */\n      caller\n        /* \"contracts/yusTokenICO.sol\":5170:5179  msg.value */\n      callvalue\n        /* \"contracts/yusTokenICO.sol\":5181:5187  tokens */\n      dup4\n        /* \"contracts/yusTokenICO.sol\":5148:5188  InvestICO(msg.sender, msg.value, tokens) */\n      mload(0x40)\n      tag_183\n      swap4\n      swap3\n      swap2\n      swap1\n      tag_184\n      jump\t// in\n    tag_183:\n      mload(0x40)\n      dup1\n      swap2\n      sub\n      swap1\n      log1\n        /* \"contracts/yusTokenICO.sol\":5206:5210  true */\n      0x01\n        /* \"contracts/yusTokenICO.sol\":5199:5210  return true */\n      swap2\n      pop\n      pop\n        /* \"contracts/yusTokenICO.sol\":4671:5218  function investICO() payable public returns(bool){ ... */\n      swap1\n      jump\t// out\n        /* \"contracts/yusTokenICO.sol\":3391:3427  uint public maxInvestment = 10 ether */\n    tag_42:\n      sload(0x0f)\n      dup2\n      jump\t// out\n        /* \"contracts/yusTokenICO.sol\":836:867  string public name = \"YusToken\" */\n    tag_47:\n      0x00\n      dup1\n      sload\n      tag_185\n      swap1\n      tag_186\n      jump\t// in\n    tag_185:\n      dup1\n      0x1f\n      add\n      0x20\n      dup1\n      swap2\n      div\n      mul\n      0x20\n      add\n      mload(0x40)\n      swap1\n      dup2\n      add\n      0x40\n      mstore\n      dup1\n      swap3\n      swap2\n      swap1\n      dup2\n      dup2\n      mstore\n      0x20\n      add\n      dup3\n      dup1\n      sload\n      tag_187\n      swap1\n      tag_186\n      jump\t// in\n    tag_187:\n      dup1\n      iszero\n      tag_188\n      jumpi\n      dup1\n      0x1f\n      lt\n      tag_189\n      jumpi\n      0x0100\n      dup1\n      dup4\n      sload\n      div\n      mul\n      dup4\n      mstore\n      swap2\n      0x20\n      add\n      swap2\n      jump(tag_188)\n    tag_189:\n      dup3\n      add\n      swap2\n      swap1\n      0x00\n      mstore\n      keccak256(0x00, 0x20)\n      swap1\n    tag_190:\n      dup2\n      sload\n      dup2\n      mstore\n      swap1\n      0x01\n      add\n      swap1\n      0x20\n      add\n      dup1\n      dup4\n      gt\n      tag_190\n      jumpi\n      dup3\n      swap1\n      sub\n      0x1f\n      and\n      dup3\n      add\n      swap2\n    tag_188:\n      pop\n      pop\n      pop\n      pop\n      pop\n      dup2\n      jump\t// out\n        /* \"contracts/yusTokenICO.sol\":5790:5996  function burnTokens() public returns(bool) {... */\n    tag_52:\n        /* \"contracts/yusTokenICO.sol\":5827:5831  bool */\n      0x00\n        /* \"contracts/yusTokenICO.sol\":5859:5876  getCurrentState() */\n      tag_192\n        /* \"contracts/yusTokenICO.sol\":5859:5874  getCurrentState */\n      tag_90\n        /* \"contracts/yusTokenICO.sol\":5859:5876  getCurrentState() */\n      jump\t// in\n    tag_192:\n        /* \"contracts/yusTokenICO.sol\":5848:5856  icoState */\n      0x11\n      0x00\n        /* \"contracts/yusTokenICO.sol\":5848:5876  icoState = getCurrentState() */\n      0x0100\n      exp\n      dup2\n      sload\n      dup2\n      0xff\n      mul\n      not\n      and\n      swap1\n      dup4\n      0x03\n      dup2\n      gt\n      iszero\n      tag_193\n      jumpi\n      tag_194\n      tag_165\n      jump\t// in\n    tag_194:\n    tag_193:\n      mul\n      or\n      swap1\n      sstore\n      pop\n        /* \"contracts/yusTokenICO.sol\":5911:5920  State.end */\n      0x02\n        /* \"contracts/yusTokenICO.sol\":5899:5920  icoState == State.end */\n      0x03\n      dup2\n      gt\n      iszero\n      tag_195\n      jumpi\n      tag_196\n      tag_165\n      jump\t// in\n    tag_196:\n    tag_195:\n        /* \"contracts/yusTokenICO.sol\":5899:5907  icoState */\n      0x11\n      0x00\n      swap1\n      sload\n      swap1\n      0x0100\n      exp\n      swap1\n      div\n      0xff\n      and\n        /* \"contracts/yusTokenICO.sol\":5899:5920  icoState == State.end */\n      0x03\n      dup2\n      gt\n      iszero\n      tag_197\n      jumpi\n      tag_198\n      tag_165\n      jump\t// in\n    tag_198:\n    tag_197:\n      eq\n        /* \"contracts/yusTokenICO.sol\":5891:5921  require(icoState == State.end) */\n      tag_199\n      jumpi\n      0x00\n      dup1\n      revert\n    tag_199:\n        /* \"contracts/yusTokenICO.sol\":5957:5958  0 */\n      0x00\n        /* \"contracts/yusTokenICO.sol\":5936:5944  balances */\n      0x05\n        /* \"contracts/yusTokenICO.sol\":5936:5953  balances[founder] */\n      0x00\n        /* \"contracts/yusTokenICO.sol\":5945:5952  founder */\n      0x04\n      0x00\n      swap1\n      sload\n      swap1\n      0x0100\n      exp\n      swap1\n      div\n      0xffffffffffffffffffffffffffffffffffffffff\n      and\n        /* \"contracts/yusTokenICO.sol\":5936:5953  balances[founder] */\n      0xffffffffffffffffffffffffffffffffffffffff\n      and\n      0xffffffffffffffffffffffffffffffffffffffff\n      and\n      dup2\n      mstore\n      0x20\n      add\n      swap1\n      dup2\n      mstore\n      0x20\n      add\n      0x00\n      keccak256\n      pop\n        /* \"contracts/yusTokenICO.sol\":5936:5958  balances[founder] == 0 */\n      pop\n        /* \"contracts/yusTokenICO.sol\":5980:5984  true */\n      0x01\n        /* \"contracts/yusTokenICO.sol\":5973:5984  return true */\n      swap1\n      pop\n        /* \"contracts/yusTokenICO.sol\":5790:5996  function burnTokens() public returns(bool) {... */\n      swap1\n      jump\t// out\n        /* \"contracts/yusTokenICO.sol\":2056:2375  function approve(address spender, uint tokens) public override returns (bool success) {... */\n    tag_59:\n        /* \"contracts/yusTokenICO.sol\":2128:2140  bool success */\n      0x00\n        /* \"contracts/yusTokenICO.sol\":2189:2195  tokens */\n      dup2\n        /* \"contracts/yusTokenICO.sol\":2165:2173  balances */\n      0x05\n        /* \"contracts/yusTokenICO.sol\":2165:2185  balances[msg.sender] */\n      0x00\n        /* \"contracts/yusTokenICO.sol\":2174:2184  msg.sender */\n      caller\n        /* \"contracts/yusTokenICO.sol\":2165:2185  balances[msg.sender] */\n      0xffffffffffffffffffffffffffffffffffffffff\n      and\n      0xffffffffffffffffffffffffffffffffffffffff\n      and\n      dup2\n      mstore\n      0x20\n      add\n      swap1\n      dup2\n      mstore\n      0x20\n      add\n      0x00\n      keccak256\n      sload\n        /* \"contracts/yusTokenICO.sol\":2165:2195  balances[msg.sender] >= tokens */\n      lt\n      iszero\n        /* \"contracts/yusTokenICO.sol\":2157:2196  require(balances[msg.sender] >= tokens) */\n      tag_201\n      jumpi\n      0x00\n      dup1\n      revert\n    tag_201:\n        /* \"contracts/yusTokenICO.sol\":2228:2229  0 */\n      0x00\n        /* \"contracts/yusTokenICO.sol\":2219:2225  tokens */\n      dup3\n        /* \"contracts/yusTokenICO.sol\":2219:2229  tokens > 0 */\n      gt\n        /* \"contracts/yusTokenICO.sol\":2211:2230  require(tokens > 0) */\n      tag_202\n      jumpi\n      0x00\n      dup1\n      revert\n    tag_202:\n        /* \"contracts/yusTokenICO.sol\":2276:2282  tokens */\n      dup2\n        /* \"contracts/yusTokenICO.sol\":2245:2252  allowed */\n      0x06\n        /* \"contracts/yusTokenICO.sol\":2245:2264  allowed[msg.sender] */\n      0x00\n        /* \"contracts/yusTokenICO.sol\":2253:2263  msg.sender */\n      caller\n        /* \"contracts/yusTokenICO.sol\":2245:2264  allowed[msg.sender] */\n      0xffffffffffffffffffffffffffffffffffffffff\n      and\n      0xffffffffffffffffffffffffffffffffffffffff\n      and\n      dup2\n      mstore\n      0x20\n      add\n      swap1\n      dup2\n      mstore\n      0x20\n      add\n      0x00\n      keccak256\n        /* \"contracts/yusTokenICO.sol\":2245:2273  allowed[msg.sender][spender] */\n      0x00\n        /* \"contracts/yusTokenICO.sol\":2265:2272  spender */\n      dup6\n        /* \"contracts/yusTokenICO.sol\":2245:2273  allowed[msg.sender][spender] */\n      0xffffffffffffffffffffffffffffffffffffffff\n      and\n      0xffffffffffffffffffffffffffffffffffffffff\n      and\n      dup2\n      mstore\n      0x20\n      add\n      swap1\n      dup2\n      mstore\n      0x20\n      add\n      0x00\n      keccak256\n        /* \"contracts/yusTokenICO.sol\":2245:2282  allowed[msg.sender][spender] = tokens */\n      dup2\n      swap1\n      sstore\n      pop\n        /* \"contracts/yusTokenICO.sol\":2322:2329  spender */\n      dup3\n        /* \"contracts/yusTokenICO.sol\":2302:2337  Approval(msg.sender,spender,tokens) */\n      0xffffffffffffffffffffffffffffffffffffffff\n      and\n        /* \"contracts/yusTokenICO.sol\":2311:2321  msg.sender */\n      caller\n        /* \"contracts/yusTokenICO.sol\":2302:2337  Approval(msg.sender,spender,tokens) */\n      0xffffffffffffffffffffffffffffffffffffffff\n      and\n      0x8c5be1e5ebec7d5bd14f71427d1e84f3dd0314c0f7b2291e5b200ac8c7c3b925\n        /* \"contracts/yusTokenICO.sol\":2330:2336  tokens */\n      dup5\n        /* \"contracts/yusTokenICO.sol\":2302:2337  Approval(msg.sender,spender,tokens) */\n      mload(0x40)\n      tag_203\n      swap2\n      swap1\n      tag_44\n      jump\t// in\n    tag_203:\n      mload(0x40)\n      dup1\n      swap2\n      sub\n      swap1\n      log3\n        /* \"contracts/yusTokenICO.sol\":2359:2363  true */\n      0x01\n        /* \"contracts/yusTokenICO.sol\":2352:2363  return true */\n      swap1\n      pop\n        /* \"contracts/yusTokenICO.sol\":2056:2375  function approve(address spender, uint tokens) public override returns (bool success) {... */\n      swap3\n      swap2\n      pop\n      pop\n      jump\t// out\n        /* \"contracts/yusTokenICO.sol\":3841:3927  function haltICO() onlyAdmin public {... */\n    tag_63:\n        /* \"contracts/yusTokenICO.sol\":3797:3802  admin */\n      0x07\n      0x00\n      swap1\n      sload\n      swap1\n      0x0100\n      exp\n      swap1\n      div\n      0xffffffffffffffffffffffffffffffffffffffff\n      and\n        /* \"contracts/yusTokenICO.sol\":3783:3802  msg.sender == admin */\n      0xffffffffffffffffffffffffffffffffffffffff\n      and\n        /* \"contracts/yusTokenICO.sol\":3783:3793  msg.sender */\n      caller\n        /* \"contracts/yusTokenICO.sol\":3783:3802  msg.sender == admin */\n      0xffffffffffffffffffffffffffffffffffffffff\n      and\n      eq\n        /* \"contracts/yusTokenICO.sol\":3775:3803  require(msg.sender == admin) */\n      tag_205\n      jumpi\n      0x00\n      dup1\n      revert\n    tag_205:\n        /* \"contracts/yusTokenICO.sol\":3903:3915  State.halted */\n      0x03\n        /* \"contracts/yusTokenICO.sol\":3892:3900  icoState */\n      0x11\n      0x00\n        /* \"contracts/yusTokenICO.sol\":3892:3915  icoState = State.halted */\n      0x0100\n      exp\n      dup2\n      sload\n      dup2\n      0xff\n      mul\n      not\n      and\n      swap1\n      dup4\n      0x03\n      dup2\n      gt\n      iszero\n      tag_207\n      jumpi\n      tag_208\n      tag_165\n      jump\t// in\n    tag_208:\n    tag_207:\n      mul\n      or\n      swap1\n      sstore\n      pop\n        /* \"contracts/yusTokenICO.sol\":3841:3927  function haltICO() onlyAdmin public {... */\n      jump\t// out\n        /* \"contracts/yusTokenICO.sol\":952:984  uint public override totalSupply */\n    tag_66:\n      sload(0x03)\n      dup2\n      jump\t// out\n        /* \"contracts/yusTokenICO.sol\":5531:5778  function transferFrom(address from, address to, uint tokens) public override returns(bool success){... */\n    tag_72:\n        /* \"contracts/yusTokenICO.sol\":5616:5628  bool success */\n      0x00\n        /* \"contracts/yusTokenICO.sol\":5670:5685  tokenTradeStart */\n      sload(0x0e)\n        /* \"contracts/yusTokenICO.sol\":5652:5667  block.timestamp */\n      timestamp\n        /* \"contracts/yusTokenICO.sol\":5652:5685  block.timestamp > tokenTradeStart */\n      gt\n        /* \"contracts/yusTokenICO.sol\":5644:5686  require(block.timestamp > tokenTradeStart) */\n      tag_210\n      jumpi\n      0x00\n      dup1\n      revert\n    tag_210:\n        /* \"contracts/yusTokenICO.sol\":5701:5740  yusToken.transferFrom(from, to, tokens) */\n      tag_211\n        /* \"contracts/yusTokenICO.sol\":5723:5727  from */\n      dup5\n        /* \"contracts/yusTokenICO.sol\":5729:5731  to */\n      dup5\n        /* \"contracts/yusTokenICO.sol\":5733:5739  tokens */\n      dup5\n        /* \"contracts/yusTokenICO.sol\":5701:5722  yusToken.transferFrom */\n      tag_212\n        /* \"contracts/yusTokenICO.sol\":5701:5740  yusToken.transferFrom(from, to, tokens) */\n      jump\t// in\n    tag_211:\n      pop\n        /* \"contracts/yusTokenICO.sol\":5762:5766  true */\n      0x01\n        /* \"contracts/yusTokenICO.sol\":5755:5766  return true */\n      swap1\n      pop\n        /* \"contracts/yusTokenICO.sol\":5531:5778  function transferFrom(address from, address to, uint tokens) public override returns(bool success){... */\n      swap4\n      swap3\n      pop\n      pop\n      pop\n      jump\t// out\n        /* \"contracts/yusTokenICO.sol\":1028:1068  mapping(address => uint) public balances */\n    tag_78:\n      mstore(0x20, 0x05)\n      dup1\n      0x00\n      mstore\n      keccak256(0x00, 0x40)\n      0x00\n      swap2\n      pop\n      swap1\n      pop\n      sload\n      dup2\n      jump\t// out\n        /* \"contracts/yusTokenICO.sol\":917:941  uint public decimals = 0 */\n    tag_82:\n      sload(0x02)\n      dup2\n      jump\t// out\n        /* \"contracts/yusTokenICO.sol\":2978:3005  uint public cap = 200 ether */\n    tag_86:\n      sload(0x0a)\n      dup2\n      jump\t// out\n        /* \"contracts/yusTokenICO.sol\":4167:4592  function getCurrentState() public view returns(State){... */\n    tag_90:\n        /* \"contracts/yusTokenICO.sol\":4214:4219  State */\n      0x00\n        /* \"contracts/yusTokenICO.sol\":4249:4261  State.halted */\n      0x03\n        /* \"contracts/yusTokenICO.sol\":4237:4261  icoState == State.halted */\n      dup1\n      dup2\n      gt\n      iszero\n      tag_214\n      jumpi\n      tag_215\n      tag_165\n      jump\t// in\n    tag_215:\n    tag_214:\n        /* \"contracts/yusTokenICO.sol\":4237:4245  icoState */\n      0x11\n      0x00\n      swap1\n      sload\n      swap1\n      0x0100\n      exp\n      swap1\n      div\n      0xff\n      and\n        /* \"contracts/yusTokenICO.sol\":4237:4261  icoState == State.halted */\n      0x03\n      dup2\n      gt\n      iszero\n      tag_216\n      jumpi\n      tag_217\n      tag_165\n      jump\t// in\n    tag_217:\n    tag_216:\n      sub\n        /* \"contracts/yusTokenICO.sol\":4234:4581  if(icoState == State.halted){... */\n      tag_218\n      jumpi\n        /* \"contracts/yusTokenICO.sol\":4287:4299  State.halted */\n      0x03\n        /* \"contracts/yusTokenICO.sol\":4280:4299  return State.halted */\n      swap1\n      pop\n      jump(tag_213)\n        /* \"contracts/yusTokenICO.sol\":4234:4581  if(icoState == State.halted){... */\n    tag_218:\n        /* \"contracts/yusTokenICO.sol\":4340:4349  saleStart */\n      sload(0x0c)\n        /* \"contracts/yusTokenICO.sol\":4322:4337  block.timestamp */\n      timestamp\n        /* \"contracts/yusTokenICO.sol\":4322:4349  block.timestamp < saleStart */\n      lt\n        /* \"contracts/yusTokenICO.sol\":4319:4581  if(block.timestamp < saleStart){... */\n      iszero\n      tag_220\n      jumpi\n        /* \"contracts/yusTokenICO.sol\":4375:4392  State.beforeStart */\n      0x00\n        /* \"contracts/yusTokenICO.sol\":4368:4392  return State.beforeStart */\n      swap1\n      pop\n      jump(tag_213)\n        /* \"contracts/yusTokenICO.sol\":4319:4581  if(block.timestamp < saleStart){... */\n    tag_220:\n        /* \"contracts/yusTokenICO.sol\":4435:4442  saleEnd */\n      sload(0x0d)\n        /* \"contracts/yusTokenICO.sol\":4416:4431  block.timestamp */\n      timestamp\n        /* \"contracts/yusTokenICO.sol\":4416:4442  block.timestamp <= saleEnd */\n      gt\n      iszero\n        /* \"contracts/yusTokenICO.sol\":4416:4474  block.timestamp <= saleEnd && block.timestamp >= saleStart */\n      dup1\n      iszero\n      tag_222\n      jumpi\n      pop\n        /* \"contracts/yusTokenICO.sol\":4465:4474  saleStart */\n      sload(0x0c)\n        /* \"contracts/yusTokenICO.sol\":4446:4461  block.timestamp */\n      timestamp\n        /* \"contracts/yusTokenICO.sol\":4446:4474  block.timestamp >= saleStart */\n      lt\n      iszero\n        /* \"contracts/yusTokenICO.sol\":4416:4474  block.timestamp <= saleEnd && block.timestamp >= saleStart */\n    tag_222:\n        /* \"contracts/yusTokenICO.sol\":4412:4581  if (block.timestamp <= saleEnd && block.timestamp >= saleStart){... */\n      iszero\n      tag_223\n      jumpi\n        /* \"contracts/yusTokenICO.sol\":4500:4513  State.running */\n      0x01\n        /* \"contracts/yusTokenICO.sol\":4493:4513  return State.running */\n      swap1\n      pop\n      jump(tag_213)\n        /* \"contracts/yusTokenICO.sol\":4412:4581  if (block.timestamp <= saleEnd && block.timestamp >= saleStart){... */\n    tag_223:\n        /* \"contracts/yusTokenICO.sol\":4557:4566  State.end */\n      0x02\n        /* \"contracts/yusTokenICO.sol\":4550:4566  return State.end */\n      swap1\n      pop\n        /* \"contracts/yusTokenICO.sol\":4167:4592  function getCurrentState() public view returns(State){... */\n    tag_213:\n      swap1\n      jump\t// out\n        /* \"contracts/yusTokenICO.sol\":3541:3562  State public icoState */\n    tag_95:\n      0x11\n      0x00\n      swap1\n      sload\n      swap1\n      0x0100\n      exp\n      swap1\n      div\n      0xff\n      and\n      dup2\n      jump\t// out\n        /* \"contracts/yusTokenICO.sol\":995:1017  address public founder */\n    tag_99:\n      0x04\n      0x00\n      swap1\n      sload\n      swap1\n      0x0100\n      exp\n      swap1\n      div\n      0xffffffffffffffffffffffffffffffffffffffff\n      and\n      dup2\n      jump\t// out\n        /* \"contracts/yusTokenICO.sol\":4035:4157  function changeDepositAddress(address payable newDeposit) public onlyAdmin{... */\n    tag_106:\n        /* \"contracts/yusTokenICO.sol\":3797:3802  admin */\n      0x07\n      0x00\n      swap1\n      sload\n      swap1\n      0x0100\n      exp\n      swap1\n      div\n      0xffffffffffffffffffffffffffffffffffffffff\n      and\n        /* \"contracts/yusTokenICO.sol\":3783:3802  msg.sender == admin */\n      0xffffffffffffffffffffffffffffffffffffffff\n      and\n        /* \"contracts/yusTokenICO.sol\":3783:3793  msg.sender */\n      caller\n        /* \"contracts/yusTokenICO.sol\":3783:3802  msg.sender == admin */\n      0xffffffffffffffffffffffffffffffffffffffff\n      and\n      eq\n        /* \"contracts/yusTokenICO.sol\":3775:3803  require(msg.sender == admin) */\n      tag_226\n      jumpi\n      0x00\n      dup1\n      revert\n    tag_226:\n        /* \"contracts/yusTokenICO.sol\":4134:4144  newDeposit */\n      dup1\n        /* \"contracts/yusTokenICO.sol\":4124:4131  deposit */\n      0x08\n      0x00\n        /* \"contracts/yusTokenICO.sol\":4124:4144  deposit = newDeposit */\n      0x0100\n      exp\n      dup2\n      sload\n      dup2\n      0xffffffffffffffffffffffffffffffffffffffff\n      mul\n      not\n      and\n      swap1\n      dup4\n      0xffffffffffffffffffffffffffffffffffffffff\n      and\n      mul\n      or\n      swap1\n      sstore\n      pop\n        /* \"contracts/yusTokenICO.sol\":4035:4157  function changeDepositAddress(address payable newDeposit) public onlyAdmin{... */\n      pop\n      jump\t// out\n        /* \"contracts/yusTokenICO.sol\":1419:1556  function balanceOf(address tokenOwner) public override view returns (uint balance){... */\n    tag_110:\n        /* \"contracts/yusTokenICO.sol\":1488:1500  uint balance */\n      0x00\n        /* \"contracts/yusTokenICO.sol\":1523:1531  balances */\n      0x05\n        /* \"contracts/yusTokenICO.sol\":1523:1543  balances[tokenOwner] */\n      0x00\n        /* \"contracts/yusTokenICO.sol\":1532:1542  tokenOwner */\n      dup4\n        /* \"contracts/yusTokenICO.sol\":1523:1543  balances[tokenOwner] */\n      0xffffffffffffffffffffffffffffffffffffffff\n      and\n      0xffffffffffffffffffffffffffffffffffffffff\n      and\n      dup2\n      mstore\n      0x20\n      add\n      swap1\n      dup2\n      mstore\n      0x20\n      add\n      0x00\n      keccak256\n      sload\n        /* \"contracts/yusTokenICO.sol\":1516:1543  return balances[tokenOwner] */\n      swap1\n      pop\n        /* \"contracts/yusTokenICO.sol\":1419:1556  function balanceOf(address tokenOwner) public override view returns (uint balance){... */\n      swap2\n      swap1\n      pop\n      jump\t// out\n        /* \"contracts/yusTokenICO.sol\":3438:3475  uint public minInvestment = 0.1 ether */\n    tag_116:\n      sload(0x10)\n      dup2\n      jump\t// out\n        /* \"contracts/yusTokenICO.sol\":878:906  string public symbol = \"YUS\" */\n    tag_120:\n      0x01\n      dup1\n      sload\n      tag_229\n      swap1\n      tag_186\n      jump\t// in\n    tag_229:\n      dup1\n      0x1f\n      add\n      0x20\n      dup1\n      swap2\n      div\n      mul\n      0x20\n      add\n      mload(0x40)\n      swap1\n      dup2\n      add\n      0x40\n      mstore\n      dup1\n      swap3\n      swap2\n      swap1\n      dup2\n      dup2\n      mstore\n      0x20\n      add\n      dup3\n      dup1\n      sload\n      tag_230\n      swap1\n      tag_186\n      jump\t// in\n    tag_230:\n      dup1\n      iszero\n      tag_231\n      jumpi\n      dup1\n      0x1f\n      lt\n      tag_232\n      jumpi\n      0x0100\n      dup1\n      dup4\n      sload\n      div\n      mul\n      dup4\n      mstore\n      swap2\n      0x20\n      add\n      swap2\n      jump(tag_231)\n    tag_232:\n      dup3\n      add\n      swap2\n      swap1\n      0x00\n      mstore\n      keccak256(0x00, 0x20)\n      swap1\n    tag_233:\n      dup2\n      sload\n      dup2\n      mstore\n      swap1\n      0x01\n      add\n      swap1\n      0x20\n      add\n      dup1\n      dup4\n      gt\n      tag_233\n      jumpi\n      dup3\n      swap1\n      sub\n      0x1f\n      and\n      dup3\n      add\n      swap2\n    tag_231:\n      pop\n      pop\n      pop\n      pop\n      pop\n      dup2\n      jump\t// out\n        /* \"contracts/yusTokenICO.sol\":3937:4025  function resumeICO() onlyAdmin public{... */\n    tag_124:\n        /* \"contracts/yusTokenICO.sol\":3797:3802  admin */\n      0x07\n      0x00\n      swap1\n      sload\n      swap1\n      0x0100\n      exp\n      swap1\n      div\n      0xffffffffffffffffffffffffffffffffffffffff\n      and\n        /* \"contracts/yusTokenICO.sol\":3783:3802  msg.sender == admin */\n      0xffffffffffffffffffffffffffffffffffffffff\n      and\n        /* \"contracts/yusTokenICO.sol\":3783:3793  msg.sender */\n      caller\n        /* \"contracts/yusTokenICO.sol\":3783:3802  msg.sender == admin */\n      0xffffffffffffffffffffffffffffffffffffffff\n      and\n      eq\n        /* \"contracts/yusTokenICO.sol\":3775:3803  require(msg.sender == admin) */\n      tag_235\n      jumpi\n      0x00\n      dup1\n      revert\n    tag_235:\n        /* \"contracts/yusTokenICO.sol\":4000:4013  State.running */\n      0x01\n        /* \"contracts/yusTokenICO.sol\":3989:3997  icoState */\n      0x11\n      0x00\n        /* \"contracts/yusTokenICO.sol\":3989:4013  icoState = State.running */\n      0x0100\n      exp\n      dup2\n      sload\n      dup2\n      0xff\n      mul\n      not\n      and\n      swap1\n      dup4\n      0x03\n      dup2\n      gt\n      iszero\n      tag_237\n      jumpi\n      tag_238\n      tag_165\n      jump\t// in\n    tag_238:\n    tag_237:\n      mul\n      or\n      swap1\n      sstore\n      pop\n        /* \"contracts/yusTokenICO.sol\":3937:4025  function resumeICO() onlyAdmin public{... */\n      jump\t// out\n        /* \"contracts/yusTokenICO.sol\":5298:5518  function transfer(address to, uint tokens) public override returns (bool success){... */\n    tag_128:\n        /* \"contracts/yusTokenICO.sol\":5366:5378  bool success */\n      0x00\n        /* \"contracts/yusTokenICO.sol\":5420:5435  tokenTradeStart */\n      sload(0x0e)\n        /* \"contracts/yusTokenICO.sol\":5402:5417  block.timestamp */\n      timestamp\n        /* \"contracts/yusTokenICO.sol\":5402:5435  block.timestamp > tokenTradeStart */\n      gt\n        /* \"contracts/yusTokenICO.sol\":5394:5436  require(block.timestamp > tokenTradeStart) */\n      tag_240\n      jumpi\n      0x00\n      dup1\n      revert\n    tag_240:\n        /* \"contracts/yusTokenICO.sol\":5451:5480  yusToken.transfer(to, tokens) */\n      tag_241\n        /* \"contracts/yusTokenICO.sol\":5469:5471  to */\n      dup4\n        /* \"contracts/yusTokenICO.sol\":5473:5479  tokens */\n      dup4\n        /* \"contracts/yusTokenICO.sol\":5451:5468  yusToken.transfer */\n      tag_242\n        /* \"contracts/yusTokenICO.sol\":5451:5480  yusToken.transfer(to, tokens) */\n      jump\t// in\n    tag_241:\n      pop\n        /* \"contracts/yusTokenICO.sol\":5502:5506  true */\n      0x01\n        /* \"contracts/yusTokenICO.sol\":5495:5506  return true */\n      swap1\n      pop\n        /* \"contracts/yusTokenICO.sol\":5298:5518  function transfer(address to, uint tokens) public override returns (bool success){... */\n      swap3\n      swap2\n      pop\n      pop\n      jump\t// out\n        /* \"contracts/yusTokenICO.sol\":3106:3150  uint public saleStart = block.timestamp + 60 */\n    tag_132:\n      sload(0x0c)\n      dup2\n      jump\t// out\n        /* \"contracts/yusTokenICO.sol\":3195:3240  uint public saleEnd = block.timestamp +604800 */\n    tag_136:\n      sload(0x0d)\n      dup2\n      jump\t// out\n        /* \"contracts/yusTokenICO.sol\":3017:3041  uint public raisedAmount */\n    tag_140:\n      sload(0x0b)\n      dup2\n      jump\t// out\n        /* \"contracts/yusTokenICO.sol\":3334:3380  uint public tokenTradeStart = saleEnd + 604800 */\n    tag_144:\n      sload(0x0e)\n      dup2\n      jump\t// out\n        /* \"contracts/yusTokenICO.sol\":2896:2926  address payable public deposit */\n    tag_148:\n      0x08\n      0x00\n      swap1\n      sload\n      swap1\n      0x0100\n      exp\n      swap1\n      div\n      0xffffffffffffffffffffffffffffffffffffffff\n      and\n      dup2\n      jump\t// out\n        /* \"contracts/yusTokenICO.sol\":1894:2046  function allowance(address tokenOwner, address spender) view public override returns(uint){... */\n    tag_155:\n        /* \"contracts/yusTokenICO.sol\":1979:1983  uint */\n      0x00\n        /* \"contracts/yusTokenICO.sol\":2006:2013  allowed */\n      0x06\n        /* \"contracts/yusTokenICO.sol\":2006:2025  allowed[tokenOwner] */\n      0x00\n        /* \"contracts/yusTokenICO.sol\":2014:2024  tokenOwner */\n      dup5\n        /* \"contracts/yusTokenICO.sol\":2006:2025  allowed[tokenOwner] */\n      0xffffffffffffffffffffffffffffffffffffffff\n      and\n      0xffffffffffffffffffffffffffffffffffffffff\n      and\n      dup2\n      mstore\n      0x20\n      add\n      swap1\n      dup2\n      mstore\n      0x20\n      add\n      0x00\n      keccak256\n        /* \"contracts/yusTokenICO.sol\":2006:2034  allowed[tokenOwner][spender] */\n      0x00\n        /* \"contracts/yusTokenICO.sol\":2026:2033  spender */\n      dup4\n        /* \"contracts/yusTokenICO.sol\":2006:2034  allowed[tokenOwner][spender] */\n      0xffffffffffffffffffffffffffffffffffffffff\n      and\n      0xffffffffffffffffffffffffffffffffffffffff\n      and\n      dup2\n      mstore\n      0x20\n      add\n      swap1\n      dup2\n      mstore\n      0x20\n      add\n      0x00\n      keccak256\n      sload\n        /* \"contracts/yusTokenICO.sol\":1999:2034  return allowed[tokenOwner][spender] */\n      swap1\n      pop\n        /* \"contracts/yusTokenICO.sol\":1894:2046  function allowance(address tokenOwner, address spender) view public override returns(uint){... */\n      swap3\n      swap2\n      pop\n      pop\n      jump\t// out\n        /* \"contracts/yusTokenICO.sol\":2865:2885  address public admin */\n    tag_159:\n      0x07\n      0x00\n      swap1\n      sload\n      swap1\n      0x0100\n      exp\n      swap1\n      div\n      0xffffffffffffffffffffffffffffffffffffffff\n      and\n      dup2\n      jump\t// out\n        /* \"contracts/yusTokenICO.sol\":2387:2812  function transferFrom(address from, address to, uint tokens) public virtual override returns(bool success){... */\n    tag_212:\n        /* \"contracts/yusTokenICO.sol\":2480:2492  bool success */\n      0x00\n        /* \"contracts/yusTokenICO.sol\":2545:2551  tokens */\n      dup2\n        /* \"contracts/yusTokenICO.sol\":2516:2523  allowed */\n      0x06\n        /* \"contracts/yusTokenICO.sol\":2516:2529  allowed[from] */\n      0x00\n        /* \"contracts/yusTokenICO.sol\":2524:2528  from */\n      dup7\n        /* \"contracts/yusTokenICO.sol\":2516:2529  allowed[from] */\n      0xffffffffffffffffffffffffffffffffffffffff\n      and\n      0xffffffffffffffffffffffffffffffffffffffff\n      and\n      dup2\n      mstore\n      0x20\n      add\n      swap1\n      dup2\n      mstore\n      0x20\n      add\n      0x00\n      keccak256\n        /* \"contracts/yusTokenICO.sol\":2516:2541  allowed[from][msg.sender] */\n      0x00\n        /* \"contracts/yusTokenICO.sol\":2530:2540  msg.sender */\n      caller\n        /* \"contracts/yusTokenICO.sol\":2516:2541  allowed[from][msg.sender] */\n      0xffffffffffffffffffffffffffffffffffffffff\n      and\n      0xffffffffffffffffffffffffffffffffffffffff\n      and\n      dup2\n      mstore\n      0x20\n      add\n      swap1\n      dup2\n      mstore\n      0x20\n      add\n      0x00\n      keccak256\n      sload\n        /* \"contracts/yusTokenICO.sol\":2516:2551  allowed[from][msg.sender] >= tokens */\n      lt\n      iszero\n        /* \"contracts/yusTokenICO.sol\":2508:2552  require(allowed[from][msg.sender] >= tokens) */\n      tag_245\n      jumpi\n      0x00\n      dup1\n      revert\n    tag_245:\n        /* \"contracts/yusTokenICO.sol\":2593:2599  tokens */\n      dup2\n        /* \"contracts/yusTokenICO.sol\":2575:2583  balances */\n      0x05\n        /* \"contracts/yusTokenICO.sol\":2575:2589  balances[from] */\n      0x00\n        /* \"contracts/yusTokenICO.sol\":2584:2588  from */\n      dup7\n        /* \"contracts/yusTokenICO.sol\":2575:2589  balances[from] */\n      0xffffffffffffffffffffffffffffffffffffffff\n      and\n      0xffffffffffffffffffffffffffffffffffffffff\n      and\n      dup2\n      mstore\n      0x20\n      add\n      swap1\n      dup2\n      mstore\n      0x20\n      add\n      0x00\n      keccak256\n      sload\n        /* \"contracts/yusTokenICO.sol\":2575:2599  balances[from] >= tokens */\n      lt\n      iszero\n        /* \"contracts/yusTokenICO.sol\":2567:2600  require(balances[from] >= tokens) */\n      tag_246\n      jumpi\n      0x00\n      dup1\n      revert\n    tag_246:\n        /* \"contracts/yusTokenICO.sol\":2633:2639  tokens */\n      dup2\n        /* \"contracts/yusTokenICO.sol\":2615:2623  balances */\n      0x05\n        /* \"contracts/yusTokenICO.sol\":2615:2629  balances[from] */\n      0x00\n        /* \"contracts/yusTokenICO.sol\":2624:2628  from */\n      dup7\n        /* \"contracts/yusTokenICO.sol\":2615:2629  balances[from] */\n      0xffffffffffffffffffffffffffffffffffffffff\n      and\n      0xffffffffffffffffffffffffffffffffffffffff\n      and\n      dup2\n      mstore\n      0x20\n      add\n      swap1\n      dup2\n      mstore\n      0x20\n      add\n      0x00\n      keccak256\n      0x00\n        /* \"contracts/yusTokenICO.sol\":2615:2639  balances[from] -= tokens */\n      dup3\n      dup3\n      sload\n      tag_247\n      swap2\n      swap1\n      tag_180\n      jump\t// in\n    tag_247:\n      swap3\n      pop\n      pop\n      dup2\n      swap1\n      sstore\n      pop\n        /* \"contracts/yusTokenICO.sol\":2683:2689  tokens */\n      dup2\n        /* \"contracts/yusTokenICO.sol\":2654:2661  allowed */\n      0x06\n        /* \"contracts/yusTokenICO.sol\":2654:2667  allowed[from] */\n      0x00\n        /* \"contracts/yusTokenICO.sol\":2662:2666  from */\n      dup7\n        /* \"contracts/yusTokenICO.sol\":2654:2667  allowed[from] */\n      0xffffffffffffffffffffffffffffffffffffffff\n      and\n      0xffffffffffffffffffffffffffffffffffffffff\n      and\n      dup2\n      mstore\n      0x20\n      add\n      swap1\n      dup2\n      mstore\n      0x20\n      add\n      0x00\n      keccak256\n        /* \"contracts/yusTokenICO.sol\":2654:2679  allowed[from][msg.sender] */\n      0x00\n        /* \"contracts/yusTokenICO.sol\":2668:2678  msg.sender */\n      caller\n        /* \"contracts/yusTokenICO.sol\":2654:2679  allowed[from][msg.sender] */\n      0xffffffffffffffffffffffffffffffffffffffff\n      and\n      0xffffffffffffffffffffffffffffffffffffffff\n      and\n      dup2\n      mstore\n      0x20\n      add\n      swap1\n      dup2\n      mstore\n      0x20\n      add\n      0x00\n      keccak256\n      0x00\n        /* \"contracts/yusTokenICO.sol\":2654:2689  allowed[from][msg.sender] -= tokens */\n      dup3\n      dup3\n      sload\n      tag_248\n      swap2\n      swap1\n      tag_180\n      jump\t// in\n    tag_248:\n      swap3\n      pop\n      pop\n      dup2\n      swap1\n      sstore\n      pop\n        /* \"contracts/yusTokenICO.sol\":2720:2726  tokens */\n      dup2\n        /* \"contracts/yusTokenICO.sol\":2704:2712  balances */\n      0x05\n        /* \"contracts/yusTokenICO.sol\":2704:2716  balances[to] */\n      0x00\n        /* \"contracts/yusTokenICO.sol\":2713:2715  to */\n      dup6\n        /* \"contracts/yusTokenICO.sol\":2704:2716  balances[to] */\n      0xffffffffffffffffffffffffffffffffffffffff\n      and\n      0xffffffffffffffffffffffffffffffffffffffff\n      and\n      dup2\n      mstore\n      0x20\n      add\n      swap1\n      dup2\n      mstore\n      0x20\n      add\n      0x00\n      keccak256\n      0x00\n        /* \"contracts/yusTokenICO.sol\":2704:2726  balances[to] += tokens */\n      dup3\n      dup3\n      sload\n      tag_249\n      swap2\n      swap1\n      tag_174\n      jump\t// in\n    tag_249:\n      swap3\n      pop\n      pop\n      dup2\n      swap1\n      sstore\n      pop\n        /* \"contracts/yusTokenICO.sol\":2761:2763  to */\n      dup3\n        /* \"contracts/yusTokenICO.sol\":2746:2773  Transfer(from, to , tokens) */\n      0xffffffffffffffffffffffffffffffffffffffff\n      and\n        /* \"contracts/yusTokenICO.sol\":2755:2759  from */\n      dup5\n        /* \"contracts/yusTokenICO.sol\":2746:2773  Transfer(from, to , tokens) */\n      0xffffffffffffffffffffffffffffffffffffffff\n      and\n      0xddf252ad1be2c89b69c2b068fc378daa952ba7f163c4a11628f55a4df523b3ef\n        /* \"contracts/yusTokenICO.sol\":2766:2772  tokens */\n      dup5\n        /* \"contracts/yusTokenICO.sol\":2746:2773  Transfer(from, to , tokens) */\n      mload(0x40)\n      tag_250\n      swap2\n      swap1\n      tag_44\n      jump\t// in\n    tag_250:\n      mload(0x40)\n      dup1\n      swap2\n      sub\n      swap1\n      log3\n        /* \"contracts/yusTokenICO.sol\":2795:2799  true */\n      0x01\n        /* \"contracts/yusTokenICO.sol\":2788:2799  return true */\n      swap1\n      pop\n        /* \"contracts/yusTokenICO.sol\":2387:2812  function transferFrom(address from, address to, uint tokens) public virtual override returns(bool success){... */\n      swap4\n      swap3\n      pop\n      pop\n      pop\n      jump\t// out\n        /* \"contracts/yusTokenICO.sol\":1568:1882  function transfer(address to, uint tokens) public virtual override returns (bool success){... */\n    tag_242:\n        /* \"contracts/yusTokenICO.sol\":1644:1656  bool success */\n      0x00\n        /* \"contracts/yusTokenICO.sol\":1704:1710  tokens */\n      dup2\n        /* \"contracts/yusTokenICO.sol\":1680:1688  balances */\n      0x05\n        /* \"contracts/yusTokenICO.sol\":1680:1700  balances[msg.sender] */\n      0x00\n        /* \"contracts/yusTokenICO.sol\":1689:1699  msg.sender */\n      caller\n        /* \"contracts/yusTokenICO.sol\":1680:1700  balances[msg.sender] */\n      0xffffffffffffffffffffffffffffffffffffffff\n      and\n      0xffffffffffffffffffffffffffffffffffffffff\n      and\n      dup2\n      mstore\n      0x20\n      add\n      swap1\n      dup2\n      mstore\n      0x20\n      add\n      0x00\n      keccak256\n      sload\n        /* \"contracts/yusTokenICO.sol\":1680:1710  balances[msg.sender] >= tokens */\n      lt\n      iszero\n        /* \"contracts/yusTokenICO.sol\":1672:1711  require(balances[msg.sender] >= tokens) */\n      tag_252\n      jumpi\n      0x00\n      dup1\n      revert\n    tag_252:\n        /* \"contracts/yusTokenICO.sol\":1742:1748  tokens */\n      dup2\n        /* \"contracts/yusTokenICO.sol\":1726:1734  balances */\n      0x05\n        /* \"contracts/yusTokenICO.sol\":1726:1738  balances[to] */\n      0x00\n        /* \"contracts/yusTokenICO.sol\":1735:1737  to */\n      dup6\n        /* \"contracts/yusTokenICO.sol\":1726:1738  balances[to] */\n      0xffffffffffffffffffffffffffffffffffffffff\n      and\n      0xffffffffffffffffffffffffffffffffffffffff\n      and\n      dup2\n      mstore\n      0x20\n      add\n      swap1\n      dup2\n      mstore\n      0x20\n      add\n      0x00\n      keccak256\n      0x00\n        /* \"contracts/yusTokenICO.sol\":1726:1748  balances[to] += tokens */\n      dup3\n      dup3\n      sload\n      tag_253\n      swap2\n      swap1\n      tag_174\n      jump\t// in\n    tag_253:\n      swap3\n      pop\n      pop\n      dup2\n      swap1\n      sstore\n      pop\n        /* \"contracts/yusTokenICO.sol\":1787:1793  tokens */\n      dup2\n        /* \"contracts/yusTokenICO.sol\":1763:1771  balances */\n      0x05\n        /* \"contracts/yusTokenICO.sol\":1763:1783  balances[msg.sender] */\n      0x00\n        /* \"contracts/yusTokenICO.sol\":1772:1782  msg.sender */\n      caller\n        /* \"contracts/yusTokenICO.sol\":1763:1783  balances[msg.sender] */\n      0xffffffffffffffffffffffffffffffffffffffff\n      and\n      0xffffffffffffffffffffffffffffffffffffffff\n      and\n      dup2\n      mstore\n      0x20\n      add\n      swap1\n      dup2\n      mstore\n      0x20\n      add\n      0x00\n      keccak256\n      0x00\n        /* \"contracts/yusTokenICO.sol\":1763:1793  balances[msg.sender] -= tokens */\n      dup3\n      dup3\n      sload\n      tag_254\n      swap2\n      swap1\n      tag_180\n      jump\t// in\n    tag_254:\n      swap3\n      pop\n      pop\n      dup2\n      swap1\n      sstore\n      pop\n        /* \"contracts/yusTokenICO.sol\":1833:1835  to */\n      dup3\n        /* \"contracts/yusTokenICO.sol\":1813:1844  Transfer(msg.sender,to, tokens) */\n      0xffffffffffffffffffffffffffffffffffffffff\n      and\n        /* \"contracts/yusTokenICO.sol\":1822:1832  msg.sender */\n      caller\n        /* \"contracts/yusTokenICO.sol\":1813:1844  Transfer(msg.sender,to, tokens) */\n      0xffffffffffffffffffffffffffffffffffffffff\n      and\n      0xddf252ad1be2c89b69c2b068fc378daa952ba7f163c4a11628f55a4df523b3ef\n        /* \"contracts/yusTokenICO.sol\":1837:1843  tokens */\n      dup5\n        /* \"contracts/yusTokenICO.sol\":1813:1844  Transfer(msg.sender,to, tokens) */\n      mload(0x40)\n      tag_255\n      swap2\n      swap1\n      tag_44\n      jump\t// in\n    tag_255:\n      mload(0x40)\n      dup1\n      swap2\n      sub\n      swap1\n      log3\n        /* \"contracts/yusTokenICO.sol\":1866:1870  true */\n      0x01\n        /* \"contracts/yusTokenICO.sol\":1859:1870  return true */\n      swap1\n      pop\n        /* \"contracts/yusTokenICO.sol\":1568:1882  function transfer(address to, uint tokens) public virtual override returns (bool success){... */\n      swap3\n      swap2\n      pop\n      pop\n      jump\t// out\n        /* \"#utility.yul\":7:84   */\n    tag_256:\n        /* \"#utility.yul\":44:51   */\n      0x00\n        /* \"#utility.yul\":73:78   */\n      dup2\n        /* \"#utility.yul\":62:78   */\n      swap1\n      pop\n        /* \"#utility.yul\":7:84   */\n      swap2\n      swap1\n      pop\n      jump\t// out\n        /* \"#utility.yul\":90:208   */\n    tag_257:\n        /* \"#utility.yul\":177:201   */\n      tag_289\n        /* \"#utility.yul\":195:200   */\n      dup2\n        /* \"#utility.yul\":177:201   */\n      tag_256\n      jump\t// in\n    tag_289:\n        /* \"#utility.yul\":172:175   */\n      dup3\n        /* \"#utility.yul\":165:202   */\n      mstore\n        /* \"#utility.yul\":90:208   */\n      pop\n      pop\n      jump\t// out\n        /* \"#utility.yul\":214:436   */\n    tag_44:\n        /* \"#utility.yul\":307:311   */\n      0x00\n        /* \"#utility.yul\":345:347   */\n      0x20\n        /* \"#utility.yul\":334:343   */\n      dup3\n        /* \"#utility.yul\":330:348   */\n      add\n        /* \"#utility.yul\":322:348   */\n      swap1\n      pop\n        /* \"#utility.yul\":358:429   */\n      tag_291\n        /* \"#utility.yul\":426:427   */\n      0x00\n        /* \"#utility.yul\":415:424   */\n      dup4\n        /* \"#utility.yul\":411:428   */\n      add\n        /* \"#utility.yul\":402:408   */\n      dup5\n        /* \"#utility.yul\":358:429   */\n      tag_257\n      jump\t// in\n    tag_291:\n        /* \"#utility.yul\":214:436   */\n      swap3\n      swap2\n      pop\n      pop\n      jump\t// out\n        /* \"#utility.yul\":442:541   */\n    tag_258:\n        /* \"#utility.yul\":494:500   */\n      0x00\n        /* \"#utility.yul\":528:533   */\n      dup2\n        /* \"#utility.yul\":522:534   */\n      mload\n        /* \"#utility.yul\":512:534   */\n      swap1\n      pop\n        /* \"#utility.yul\":442:541   */\n      swap2\n      swap1\n      pop\n      jump\t// out\n        /* \"#utility.yul\":547:716   */\n    tag_259:\n        /* \"#utility.yul\":631:642   */\n      0x00\n        /* \"#utility.yul\":665:671   */\n      dup3\n        /* \"#utility.yul\":660:663   */\n      dup3\n        /* \"#utility.yul\":653:672   */\n      mstore\n        /* \"#utility.yul\":705:709   */\n      0x20\n        /* \"#utility.yul\":700:703   */\n      dup3\n        /* \"#utility.yul\":696:710   */\n      add\n        /* \"#utility.yul\":681:710   */\n      swap1\n      pop\n        /* \"#utility.yul\":547:716   */\n      swap3\n      swap2\n      pop\n      pop\n      jump\t// out\n        /* \"#utility.yul\":722:1029   */\n    tag_260:\n        /* \"#utility.yul\":790:791   */\n      0x00\n        /* \"#utility.yul\":800:913   */\n    tag_295:\n        /* \"#utility.yul\":814:820   */\n      dup4\n        /* \"#utility.yul\":811:812   */\n      dup2\n        /* \"#utility.yul\":808:821   */\n      lt\n        /* \"#utility.yul\":800:913   */\n      iszero\n      tag_297\n      jumpi\n        /* \"#utility.yul\":899:900   */\n      dup1\n        /* \"#utility.yul\":894:897   */\n      dup3\n        /* \"#utility.yul\":890:901   */\n      add\n        /* \"#utility.yul\":884:902   */\n      mload\n        /* \"#utility.yul\":880:881   */\n      dup2\n        /* \"#utility.yul\":875:878   */\n      dup5\n        /* \"#utility.yul\":871:882   */\n      add\n        /* \"#utility.yul\":864:903   */\n      mstore\n        /* \"#utility.yul\":836:838   */\n      0x20\n        /* \"#utility.yul\":833:834   */\n      dup2\n        /* \"#utility.yul\":829:839   */\n      add\n        /* \"#utility.yul\":824:839   */\n      swap1\n      pop\n        /* \"#utility.yul\":800:913   */\n      jump(tag_295)\n    tag_297:\n        /* \"#utility.yul\":931:937   */\n      dup4\n        /* \"#utility.yul\":928:929   */\n      dup2\n        /* \"#utility.yul\":925:938   */\n      gt\n        /* \"#utility.yul\":922:1023   */\n      iszero\n      tag_298\n      jumpi\n        /* \"#utility.yul\":1011:1012   */\n      0x00\n        /* \"#utility.yul\":1002:1008   */\n      dup5\n        /* \"#utility.yul\":997:1000   */\n      dup5\n        /* \"#utility.yul\":993:1009   */\n      add\n        /* \"#utility.yul\":986:1013   */\n      mstore\n        /* \"#utility.yul\":922:1023   */\n    tag_298:\n        /* \"#utility.yul\":771:1029   */\n      pop\n        /* \"#utility.yul\":722:1029   */\n      pop\n      pop\n      pop\n      jump\t// out\n        /* \"#utility.yul\":1035:1137   */\n    tag_261:\n        /* \"#utility.yul\":1076:1082   */\n      0x00\n        /* \"#utility.yul\":1127:1129   */\n      0x1f\n        /* \"#utility.yul\":1123:1130   */\n      not\n        /* \"#utility.yul\":1118:1120   */\n      0x1f\n        /* \"#utility.yul\":1111:1116   */\n      dup4\n        /* \"#utility.yul\":1107:1121   */\n      add\n        /* \"#utility.yul\":1103:1131   */\n      and\n        /* \"#utility.yul\":1093:1131   */\n      swap1\n      pop\n        /* \"#utility.yul\":1035:1137   */\n      swap2\n      swap1\n      pop\n      jump\t// out\n        /* \"#utility.yul\":1143:1507   */\n    tag_262:\n        /* \"#utility.yul\":1231:1234   */\n      0x00\n        /* \"#utility.yul\":1259:1298   */\n      tag_301\n        /* \"#utility.yul\":1292:1297   */\n      dup3\n        /* \"#utility.yul\":1259:1298   */\n      tag_258\n      jump\t// in\n    tag_301:\n        /* \"#utility.yul\":1314:1385   */\n      tag_302\n        /* \"#utility.yul\":1378:1384   */\n      dup2\n        /* \"#utility.yul\":1373:1376   */\n      dup6\n        /* \"#utility.yul\":1314:1385   */\n      tag_259\n      jump\t// in\n    tag_302:\n        /* \"#utility.yul\":1307:1385   */\n      swap4\n      pop\n        /* \"#utility.yul\":1394:1446   */\n      tag_303\n        /* \"#utility.yul\":1439:1445   */\n      dup2\n        /* \"#utility.yul\":1434:1437   */\n      dup6\n        /* \"#utility.yul\":1427:1431   */\n      0x20\n        /* \"#utility.yul\":1420:1425   */\n      dup7\n        /* \"#utility.yul\":1416:1432   */\n      add\n        /* \"#utility.yul\":1394:1446   */\n      tag_260\n      jump\t// in\n    tag_303:\n        /* \"#utility.yul\":1471:1500   */\n      tag_304\n        /* \"#utility.yul\":1493:1499   */\n      dup2\n        /* \"#utility.yul\":1471:1500   */\n      tag_261\n      jump\t// in\n    tag_304:\n        /* \"#utility.yul\":1466:1469   */\n      dup5\n        /* \"#utility.yul\":1462:1501   */\n      add\n        /* \"#utility.yul\":1455:1501   */\n      swap2\n      pop\n        /* \"#utility.yul\":1235:1507   */\n      pop\n        /* \"#utility.yul\":1143:1507   */\n      swap3\n      swap2\n      pop\n      pop\n      jump\t// out\n        /* \"#utility.yul\":1513:1826   */\n    tag_49:\n        /* \"#utility.yul\":1626:1630   */\n      0x00\n        /* \"#utility.yul\":1664:1666   */\n      0x20\n        /* \"#utility.yul\":1653:1662   */\n      dup3\n        /* \"#utility.yul\":1649:1667   */\n      add\n        /* \"#utility.yul\":1641:1667   */\n      swap1\n      pop\n        /* \"#utility.yul\":1713:1722   */\n      dup2\n        /* \"#utility.yul\":1707:1711   */\n      dup2\n        /* \"#utility.yul\":1703:1723   */\n      sub\n        /* \"#utility.yul\":1699:1700   */\n      0x00\n        /* \"#utility.yul\":1688:1697   */\n      dup4\n        /* \"#utility.yul\":1684:1701   */\n      add\n        /* \"#utility.yul\":1677:1724   */\n      mstore\n        /* \"#utility.yul\":1741:1819   */\n      tag_306\n        /* \"#utility.yul\":1814:1818   */\n      dup2\n        /* \"#utility.yul\":1805:1811   */\n      dup5\n        /* \"#utility.yul\":1741:1819   */\n      tag_262\n      jump\t// in\n    tag_306:\n        /* \"#utility.yul\":1733:1819   */\n      swap1\n      pop\n        /* \"#utility.yul\":1513:1826   */\n      swap3\n      swap2\n      pop\n      pop\n      jump\t// out\n        /* \"#utility.yul\":1832:1922   */\n    tag_263:\n        /* \"#utility.yul\":1866:1873   */\n      0x00\n        /* \"#utility.yul\":1909:1914   */\n      dup2\n        /* \"#utility.yul\":1902:1915   */\n      iszero\n        /* \"#utility.yul\":1895:1916   */\n      iszero\n        /* \"#utility.yul\":1884:1916   */\n      swap1\n      pop\n        /* \"#utility.yul\":1832:1922   */\n      swap2\n      swap1\n      pop\n      jump\t// out\n        /* \"#utility.yul\":1928:2037   */\n    tag_264:\n        /* \"#utility.yul\":2009:2030   */\n      tag_309\n        /* \"#utility.yul\":2024:2029   */\n      dup2\n        /* \"#utility.yul\":2009:2030   */\n      tag_263\n      jump\t// in\n    tag_309:\n        /* \"#utility.yul\":2004:2007   */\n      dup3\n        /* \"#utility.yul\":1997:2031   */\n      mstore\n        /* \"#utility.yul\":1928:2037   */\n      pop\n      pop\n      jump\t// out\n        /* \"#utility.yul\":2043:2253   */\n    tag_54:\n        /* \"#utility.yul\":2130:2134   */\n      0x00\n        /* \"#utility.yul\":2168:2170   */\n      0x20\n        /* \"#utility.yul\":2157:2166   */\n      dup3\n        /* \"#utility.yul\":2153:2171   */\n      add\n        /* \"#utility.yul\":2145:2171   */\n      swap1\n      pop\n        /* \"#utility.yul\":2181:2246   */\n      tag_311\n        /* \"#utility.yul\":2243:2244   */\n      0x00\n        /* \"#utility.yul\":2232:2241   */\n      dup4\n        /* \"#utility.yul\":2228:2245   */\n      add\n        /* \"#utility.yul\":2219:2225   */\n      dup5\n        /* \"#utility.yul\":2181:2246   */\n      tag_264\n      jump\t// in\n    tag_311:\n        /* \"#utility.yul\":2043:2253   */\n      swap3\n      swap2\n      pop\n      pop\n      jump\t// out\n        /* \"#utility.yul\":2340:2457   */\n    tag_266:\n        /* \"#utility.yul\":2449:2450   */\n      0x00\n        /* \"#utility.yul\":2446:2447   */\n      dup1\n        /* \"#utility.yul\":2439:2451   */\n      revert\n        /* \"#utility.yul\":2586:2712   */\n    tag_268:\n        /* \"#utility.yul\":2623:2630   */\n      0x00\n        /* \"#utility.yul\":2663:2705   */\n      0xffffffffffffffffffffffffffffffffffffffff\n        /* \"#utility.yul\":2656:2661   */\n      dup3\n        /* \"#utility.yul\":2652:2706   */\n      and\n        /* \"#utility.yul\":2641:2706   */\n      swap1\n      pop\n        /* \"#utility.yul\":2586:2712   */\n      swap2\n      swap1\n      pop\n      jump\t// out\n        /* \"#utility.yul\":2718:2814   */\n    tag_269:\n        /* \"#utility.yul\":2755:2762   */\n      0x00\n        /* \"#utility.yul\":2784:2808   */\n      tag_317\n        /* \"#utility.yul\":2802:2807   */\n      dup3\n        /* \"#utility.yul\":2784:2808   */\n      tag_268\n      jump\t// in\n    tag_317:\n        /* \"#utility.yul\":2773:2808   */\n      swap1\n      pop\n        /* \"#utility.yul\":2718:2814   */\n      swap2\n      swap1\n      pop\n      jump\t// out\n        /* \"#utility.yul\":2820:2942   */\n    tag_270:\n        /* \"#utility.yul\":2893:2917   */\n      tag_319\n        /* \"#utility.yul\":2911:2916   */\n      dup2\n        /* \"#utility.yul\":2893:2917   */\n      tag_269\n      jump\t// in\n    tag_319:\n        /* \"#utility.yul\":2886:2891   */\n      dup2\n        /* \"#utility.yul\":2883:2918   */\n      eq\n        /* \"#utility.yul\":2873:2936   */\n      tag_320\n      jumpi\n        /* \"#utility.yul\":2932:2933   */\n      0x00\n        /* \"#utility.yul\":2929:2930   */\n      dup1\n        /* \"#utility.yul\":2922:2934   */\n      revert\n        /* \"#utility.yul\":2873:2936   */\n    tag_320:\n        /* \"#utility.yul\":2820:2942   */\n      pop\n      jump\t// out\n        /* \"#utility.yul\":2948:3087   */\n    tag_271:\n        /* \"#utility.yul\":2994:2999   */\n      0x00\n        /* \"#utility.yul\":3032:3038   */\n      dup2\n        /* \"#utility.yul\":3019:3039   */\n      calldataload\n        /* \"#utility.yul\":3010:3039   */\n      swap1\n      pop\n        /* \"#utility.yul\":3048:3081   */\n      tag_322\n        /* \"#utility.yul\":3075:3080   */\n      dup2\n        /* \"#utility.yul\":3048:3081   */\n      tag_270\n      jump\t// in\n    tag_322:\n        /* \"#utility.yul\":2948:3087   */\n      swap3\n      swap2\n      pop\n      pop\n      jump\t// out\n        /* \"#utility.yul\":3093:3215   */\n    tag_272:\n        /* \"#utility.yul\":3166:3190   */\n      tag_324\n        /* \"#utility.yul\":3184:3189   */\n      dup2\n        /* \"#utility.yul\":3166:3190   */\n      tag_256\n      jump\t// in\n    tag_324:\n        /* \"#utility.yul\":3159:3164   */\n      dup2\n        /* \"#utility.yul\":3156:3191   */\n      eq\n        /* \"#utility.yul\":3146:3209   */\n      tag_325\n      jumpi\n        /* \"#utility.yul\":3205:3206   */\n      0x00\n        /* \"#utility.yul\":3202:3203   */\n      dup1\n        /* \"#utility.yul\":3195:3207   */\n      revert\n        /* \"#utility.yul\":3146:3209   */\n    tag_325:\n        /* \"#utility.yul\":3093:3215   */\n      pop\n      jump\t// out\n        /* \"#utility.yul\":3221:3360   */\n    tag_273:\n        /* \"#utility.yul\":3267:3272   */\n      0x00\n        /* \"#utility.yul\":3305:3311   */\n      dup2\n        /* \"#utility.yul\":3292:3312   */\n      calldataload\n        /* \"#utility.yul\":3283:3312   */\n      swap1\n      pop\n        /* \"#utility.yul\":3321:3354   */\n      tag_327\n        /* \"#utility.yul\":3348:3353   */\n      dup2\n        /* \"#utility.yul\":3321:3354   */\n      tag_272\n      jump\t// in\n    tag_327:\n        /* \"#utility.yul\":3221:3360   */\n      swap3\n      swap2\n      pop\n      pop\n      jump\t// out\n        /* \"#utility.yul\":3366:3840   */\n    tag_58:\n        /* \"#utility.yul\":3434:3440   */\n      0x00\n        /* \"#utility.yul\":3442:3448   */\n      dup1\n        /* \"#utility.yul\":3491:3493   */\n      0x40\n        /* \"#utility.yul\":3479:3488   */\n      dup4\n        /* \"#utility.yul\":3470:3477   */\n      dup6\n        /* \"#utility.yul\":3466:3489   */\n      sub\n        /* \"#utility.yul\":3462:3494   */\n      slt\n        /* \"#utility.yul\":3459:3578   */\n      iszero\n      tag_329\n      jumpi\n        /* \"#utility.yul\":3497:3576   */\n      tag_330\n      tag_266\n      jump\t// in\n    tag_330:\n        /* \"#utility.yul\":3459:3578   */\n    tag_329:\n        /* \"#utility.yul\":3617:3618   */\n      0x00\n        /* \"#utility.yul\":3642:3695   */\n      tag_331\n        /* \"#utility.yul\":3687:3694   */\n      dup6\n        /* \"#utility.yul\":3678:3684   */\n      dup3\n        /* \"#utility.yul\":3667:3676   */\n      dup7\n        /* \"#utility.yul\":3663:3685   */\n      add\n        /* \"#utility.yul\":3642:3695   */\n      tag_271\n      jump\t// in\n    tag_331:\n        /* \"#utility.yul\":3632:3695   */\n      swap3\n      pop\n        /* \"#utility.yul\":3588:3705   */\n      pop\n        /* \"#utility.yul\":3744:3746   */\n      0x20\n        /* \"#utility.yul\":3770:3823   */\n      tag_332\n        /* \"#utility.yul\":3815:3822   */\n      dup6\n        /* \"#utility.yul\":3806:3812   */\n      dup3\n        /* \"#utility.yul\":3795:3804   */\n      dup7\n        /* \"#utility.yul\":3791:3813   */\n      add\n        /* \"#utility.yul\":3770:3823   */\n      tag_273\n      jump\t// in\n    tag_332:\n        /* \"#utility.yul\":3760:3823   */\n      swap2\n      pop\n        /* \"#utility.yul\":3715:3833   */\n      pop\n        /* \"#utility.yul\":3366:3840   */\n      swap3\n      pop\n      swap3\n      swap1\n      pop\n      jump\t// out\n        /* \"#utility.yul\":3846:4465   */\n    tag_71:\n        /* \"#utility.yul\":3923:3929   */\n      0x00\n        /* \"#utility.yul\":3931:3937   */\n      dup1\n        /* \"#utility.yul\":3939:3945   */\n      0x00\n        /* \"#utility.yul\":3988:3990   */\n      0x60\n        /* \"#utility.yul\":3976:3985   */\n      dup5\n        /* \"#utility.yul\":3967:3974   */\n      dup7\n        /* \"#utility.yul\":3963:3986   */\n      sub\n        /* \"#utility.yul\":3959:3991   */\n      slt\n        /* \"#utility.yul\":3956:4075   */\n      iszero\n      tag_334\n      jumpi\n        /* \"#utility.yul\":3994:4073   */\n      tag_335\n      tag_266\n      jump\t// in\n    tag_335:\n        /* \"#utility.yul\":3956:4075   */\n    tag_334:\n        /* \"#utility.yul\":4114:4115   */\n      0x00\n        /* \"#utility.yul\":4139:4192   */\n      tag_336\n        /* \"#utility.yul\":4184:4191   */\n      dup7\n        /* \"#utility.yul\":4175:4181   */\n      dup3\n        /* \"#utility.yul\":4164:4173   */\n      dup8\n        /* \"#utility.yul\":4160:4182   */\n      add\n        /* \"#utility.yul\":4139:4192   */\n      tag_271\n      jump\t// in\n    tag_336:\n        /* \"#utility.yul\":4129:4192   */\n      swap4\n      pop\n        /* \"#utility.yul\":4085:4202   */\n      pop\n        /* \"#utility.yul\":4241:4243   */\n      0x20\n        /* \"#utility.yul\":4267:4320   */\n      tag_337\n        /* \"#utility.yul\":4312:4319   */\n      dup7\n        /* \"#utility.yul\":4303:4309   */\n      dup3\n        /* \"#utility.yul\":4292:4301   */\n      dup8\n        /* \"#utility.yul\":4288:4310   */\n      add\n        /* \"#utility.yul\":4267:4320   */\n      tag_271\n      jump\t// in\n    tag_337:\n        /* \"#utility.yul\":4257:4320   */\n      swap3\n      pop\n        /* \"#utility.yul\":4212:4330   */\n      pop\n        /* \"#utility.yul\":4369:4371   */\n      0x40\n        /* \"#utility.yul\":4395:4448   */\n      tag_338\n        /* \"#utility.yul\":4440:4447   */\n      dup7\n        /* \"#utility.yul\":4431:4437   */\n      dup3\n        /* \"#utility.yul\":4420:4429   */\n      dup8\n        /* \"#utility.yul\":4416:4438   */\n      add\n        /* \"#utility.yul\":4395:4448   */\n      tag_273\n      jump\t// in\n    tag_338:\n        /* \"#utility.yul\":4385:4448   */\n      swap2\n      pop\n        /* \"#utility.yul\":4340:4458   */\n      pop\n        /* \"#utility.yul\":3846:4465   */\n      swap3\n      pop\n      swap3\n      pop\n      swap3\n      jump\t// out\n        /* \"#utility.yul\":4471:4800   */\n    tag_77:\n        /* \"#utility.yul\":4530:4536   */\n      0x00\n        /* \"#utility.yul\":4579:4581   */\n      0x20\n        /* \"#utility.yul\":4567:4576   */\n      dup3\n        /* \"#utility.yul\":4558:4565   */\n      dup5\n        /* \"#utility.yul\":4554:4577   */\n      sub\n        /* \"#utility.yul\":4550:4582   */\n      slt\n        /* \"#utility.yul\":4547:4666   */\n      iszero\n      tag_340\n      jumpi\n        /* \"#utility.yul\":4585:4664   */\n      tag_341\n      tag_266\n      jump\t// in\n    tag_341:\n        /* \"#utility.yul\":4547:4666   */\n    tag_340:\n        /* \"#utility.yul\":4705:4706   */\n      0x00\n        /* \"#utility.yul\":4730:4783   */\n      tag_342\n        /* \"#utility.yul\":4775:4782   */\n      dup5\n        /* \"#utility.yul\":4766:4772   */\n      dup3\n        /* \"#utility.yul\":4755:4764   */\n      dup6\n        /* \"#utility.yul\":4751:4773   */\n      add\n        /* \"#utility.yul\":4730:4783   */\n      tag_271\n      jump\t// in\n    tag_342:\n        /* \"#utility.yul\":4720:4783   */\n      swap2\n      pop\n        /* \"#utility.yul\":4676:4793   */\n      pop\n        /* \"#utility.yul\":4471:4800   */\n      swap3\n      swap2\n      pop\n      pop\n      jump\t// out\n        /* \"#utility.yul\":4806:4986   */\n    tag_165:\n        /* \"#utility.yul\":4854:4931   */\n      0x4e487b7100000000000000000000000000000000000000000000000000000000\n        /* \"#utility.yul\":4851:4852   */\n      0x00\n        /* \"#utility.yul\":4844:4932   */\n      mstore\n        /* \"#utility.yul\":4951:4955   */\n      0x21\n        /* \"#utility.yul\":4948:4949   */\n      0x04\n        /* \"#utility.yul\":4941:4956   */\n      mstore\n        /* \"#utility.yul\":4975:4979   */\n      0x24\n        /* \"#utility.yul\":4972:4973   */\n      0x00\n        /* \"#utility.yul\":4965:4980   */\n      revert\n        /* \"#utility.yul\":4992:5106   */\n    tag_274:\n        /* \"#utility.yul\":5074:5075   */\n      0x04\n        /* \"#utility.yul\":5067:5072   */\n      dup2\n        /* \"#utility.yul\":5064:5076   */\n      lt\n        /* \"#utility.yul\":5054:5100   */\n      tag_345\n      jumpi\n        /* \"#utility.yul\":5080:5098   */\n      tag_346\n      tag_165\n      jump\t// in\n    tag_346:\n        /* \"#utility.yul\":5054:5100   */\n    tag_345:\n        /* \"#utility.yul\":4992:5106   */\n      pop\n      jump\t// out\n        /* \"#utility.yul\":5112:5241   */\n    tag_275:\n        /* \"#utility.yul\":5158:5165   */\n      0x00\n        /* \"#utility.yul\":5187:5192   */\n      dup2\n        /* \"#utility.yul\":5176:5192   */\n      swap1\n      pop\n        /* \"#utility.yul\":5193:5235   */\n      tag_348\n        /* \"#utility.yul\":5229:5234   */\n      dup3\n        /* \"#utility.yul\":5193:5235   */\n      tag_274\n      jump\t// in\n    tag_348:\n        /* \"#utility.yul\":5112:5241   */\n      swap2\n      swap1\n      pop\n      jump\t// out\n        /* \"#utility.yul\":5247:5376   */\n    tag_276:\n        /* \"#utility.yul\":5304:5313   */\n      0x00\n        /* \"#utility.yul\":5337:5370   */\n      tag_350\n        /* \"#utility.yul\":5364:5369   */\n      dup3\n        /* \"#utility.yul\":5337:5370   */\n      tag_275\n      jump\t// in\n    tag_350:\n        /* \"#utility.yul\":5324:5370   */\n      swap1\n      pop\n        /* \"#utility.yul\":5247:5376   */\n      swap2\n      swap1\n      pop\n      jump\t// out\n        /* \"#utility.yul\":5382:5527   */\n    tag_277:\n        /* \"#utility.yul\":5476:5520   */\n      tag_352\n        /* \"#utility.yul\":5514:5519   */\n      dup2\n        /* \"#utility.yul\":5476:5520   */\n      tag_276\n      jump\t// in\n    tag_352:\n        /* \"#utility.yul\":5471:5474   */\n      dup3\n        /* \"#utility.yul\":5464:5521   */\n      mstore\n        /* \"#utility.yul\":5382:5527   */\n      pop\n      pop\n      jump\t// out\n        /* \"#utility.yul\":5533:5769   */\n    tag_92:\n        /* \"#utility.yul\":5633:5637   */\n      0x00\n        /* \"#utility.yul\":5671:5673   */\n      0x20\n        /* \"#utility.yul\":5660:5669   */\n      dup3\n        /* \"#utility.yul\":5656:5674   */\n      add\n        /* \"#utility.yul\":5648:5674   */\n      swap1\n      pop\n        /* \"#utility.yul\":5684:5762   */\n      tag_354\n        /* \"#utility.yul\":5759:5760   */\n      0x00\n        /* \"#utility.yul\":5748:5757   */\n      dup4\n        /* \"#utility.yul\":5744:5761   */\n      add\n        /* \"#utility.yul\":5735:5741   */\n      dup5\n        /* \"#utility.yul\":5684:5762   */\n      tag_277\n      jump\t// in\n    tag_354:\n        /* \"#utility.yul\":5533:5769   */\n      swap3\n      swap2\n      pop\n      pop\n      jump\t// out\n        /* \"#utility.yul\":5775:5893   */\n    tag_278:\n        /* \"#utility.yul\":5862:5886   */\n      tag_356\n        /* \"#utility.yul\":5880:5885   */\n      dup2\n        /* \"#utility.yul\":5862:5886   */\n      tag_269\n      jump\t// in\n    tag_356:\n        /* \"#utility.yul\":5857:5860   */\n      dup3\n        /* \"#utility.yul\":5850:5887   */\n      mstore\n        /* \"#utility.yul\":5775:5893   */\n      pop\n      pop\n      jump\t// out\n        /* \"#utility.yul\":5899:6121   */\n    tag_101:\n        /* \"#utility.yul\":5992:5996   */\n      0x00\n        /* \"#utility.yul\":6030:6032   */\n      0x20\n        /* \"#utility.yul\":6019:6028   */\n      dup3\n        /* \"#utility.yul\":6015:6033   */\n      add\n        /* \"#utility.yul\":6007:6033   */\n      swap1\n      pop\n        /* \"#utility.yul\":6043:6114   */\n      tag_358\n        /* \"#utility.yul\":6111:6112   */\n      0x00\n        /* \"#utility.yul\":6100:6109   */\n      dup4\n        /* \"#utility.yul\":6096:6113   */\n      add\n        /* \"#utility.yul\":6087:6093   */\n      dup5\n        /* \"#utility.yul\":6043:6114   */\n      tag_278\n      jump\t// in\n    tag_358:\n        /* \"#utility.yul\":5899:6121   */\n      swap3\n      swap2\n      pop\n      pop\n      jump\t// out\n        /* \"#utility.yul\":6127:6231   */\n    tag_279:\n        /* \"#utility.yul\":6172:6179   */\n      0x00\n        /* \"#utility.yul\":6201:6225   */\n      tag_360\n        /* \"#utility.yul\":6219:6224   */\n      dup3\n        /* \"#utility.yul\":6201:6225   */\n      tag_268\n      jump\t// in\n    tag_360:\n        /* \"#utility.yul\":6190:6225   */\n      swap1\n      pop\n        /* \"#utility.yul\":6127:6231   */\n      swap2\n      swap1\n      pop\n      jump\t// out\n        /* \"#utility.yul\":6237:6375   */\n    tag_280:\n        /* \"#utility.yul\":6318:6350   */\n      tag_362\n        /* \"#utility.yul\":6344:6349   */\n      dup2\n        /* \"#utility.yul\":6318:6350   */\n      tag_279\n      jump\t// in\n    tag_362:\n        /* \"#utility.yul\":6311:6316   */\n      dup2\n        /* \"#utility.yul\":6308:6351   */\n      eq\n        /* \"#utility.yul\":6298:6369   */\n      tag_363\n      jumpi\n        /* \"#utility.yul\":6365:6366   */\n      0x00\n        /* \"#utility.yul\":6362:6363   */\n      dup1\n        /* \"#utility.yul\":6355:6367   */\n      revert\n        /* \"#utility.yul\":6298:6369   */\n    tag_363:\n        /* \"#utility.yul\":6237:6375   */\n      pop\n      jump\t// out\n        /* \"#utility.yul\":6381:6536   */\n    tag_281:\n        /* \"#utility.yul\":6435:6440   */\n      0x00\n        /* \"#utility.yul\":6473:6479   */\n      dup2\n        /* \"#utility.yul\":6460:6480   */\n      calldataload\n        /* \"#utility.yul\":6451:6480   */\n      swap1\n      pop\n        /* \"#utility.yul\":6489:6530   */\n      tag_365\n        /* \"#utility.yul\":6524:6529   */\n      dup2\n        /* \"#utility.yul\":6489:6530   */\n      tag_280\n      jump\t// in\n    tag_365:\n        /* \"#utility.yul\":6381:6536   */\n      swap3\n      swap2\n      pop\n      pop\n      jump\t// out\n        /* \"#utility.yul\":6542:6887   */\n    tag_105:\n        /* \"#utility.yul\":6609:6615   */\n      0x00\n        /* \"#utility.yul\":6658:6660   */\n      0x20\n        /* \"#utility.yul\":6646:6655   */\n      dup3\n        /* \"#utility.yul\":6637:6644   */\n      dup5\n        /* \"#utility.yul\":6633:6656   */\n      sub\n        /* \"#utility.yul\":6629:6661   */\n      slt\n        /* \"#utility.yul\":6626:6745   */\n      iszero\n      tag_367\n      jumpi\n        /* \"#utility.yul\":6664:6743   */\n      tag_368\n      tag_266\n      jump\t// in\n    tag_368:\n        /* \"#utility.yul\":6626:6745   */\n    tag_367:\n        /* \"#utility.yul\":6784:6785   */\n      0x00\n        /* \"#utility.yul\":6809:6870   */\n      tag_369\n        /* \"#utility.yul\":6862:6869   */\n      dup5\n        /* \"#utility.yul\":6853:6859   */\n      dup3\n        /* \"#utility.yul\":6842:6851   */\n      dup6\n        /* \"#utility.yul\":6838:6860   */\n      add\n        /* \"#utility.yul\":6809:6870   */\n      tag_281\n      jump\t// in\n    tag_369:\n        /* \"#utility.yul\":6799:6870   */\n      swap2\n      pop\n        /* \"#utility.yul\":6755:6880   */\n      pop\n        /* \"#utility.yul\":6542:6887   */\n      swap3\n      swap2\n      pop\n      pop\n      jump\t// out\n        /* \"#utility.yul\":6893:7035   */\n    tag_282:\n        /* \"#utility.yul\":6996:7028   */\n      tag_371\n        /* \"#utility.yul\":7022:7027   */\n      dup2\n        /* \"#utility.yul\":6996:7028   */\n      tag_279\n      jump\t// in\n    tag_371:\n        /* \"#utility.yul\":6991:6994   */\n      dup3\n        /* \"#utility.yul\":6984:7029   */\n      mstore\n        /* \"#utility.yul\":6893:7035   */\n      pop\n      pop\n      jump\t// out\n        /* \"#utility.yul\":7041:7295   */\n    tag_150:\n        /* \"#utility.yul\":7150:7154   */\n      0x00\n        /* \"#utility.yul\":7188:7190   */\n      0x20\n        /* \"#utility.yul\":7177:7186   */\n      dup3\n        /* \"#utility.yul\":7173:7191   */\n      add\n        /* \"#utility.yul\":7165:7191   */\n      swap1\n      pop\n        /* \"#utility.yul\":7201:7288   */\n      tag_373\n        /* \"#utility.yul\":7285:7286   */\n      0x00\n        /* \"#utility.yul\":7274:7283   */\n      dup4\n        /* \"#utility.yul\":7270:7287   */\n      add\n        /* \"#utility.yul\":7261:7267   */\n      dup5\n        /* \"#utility.yul\":7201:7288   */\n      tag_282\n      jump\t// in\n    tag_373:\n        /* \"#utility.yul\":7041:7295   */\n      swap3\n      swap2\n      pop\n      pop\n      jump\t// out\n        /* \"#utility.yul\":7301:7775   */\n    tag_154:\n        /* \"#utility.yul\":7369:7375   */\n      0x00\n        /* \"#utility.yul\":7377:7383   */\n      dup1\n        /* \"#utility.yul\":7426:7428   */\n      0x40\n        /* \"#utility.yul\":7414:7423   */\n      dup4\n        /* \"#utility.yul\":7405:7412   */\n      dup6\n        /* \"#utility.yul\":7401:7424   */\n      sub\n        /* \"#utility.yul\":7397:7429   */\n      slt\n        /* \"#utility.yul\":7394:7513   */\n      iszero\n      tag_375\n      jumpi\n        /* \"#utility.yul\":7432:7511   */\n      tag_376\n      tag_266\n      jump\t// in\n    tag_376:\n        /* \"#utility.yul\":7394:7513   */\n    tag_375:\n        /* \"#utility.yul\":7552:7553   */\n      0x00\n        /* \"#utility.yul\":7577:7630   */\n      tag_377\n        /* \"#utility.yul\":7622:7629   */\n      dup6\n        /* \"#utility.yul\":7613:7619   */\n      dup3\n        /* \"#utility.yul\":7602:7611   */\n      dup7\n        /* \"#utility.yul\":7598:7620   */\n      add\n        /* \"#utility.yul\":7577:7630   */\n      tag_271\n      jump\t// in\n    tag_377:\n        /* \"#utility.yul\":7567:7630   */\n      swap3\n      pop\n        /* \"#utility.yul\":7523:7640   */\n      pop\n        /* \"#utility.yul\":7679:7681   */\n      0x20\n        /* \"#utility.yul\":7705:7758   */\n      tag_378\n        /* \"#utility.yul\":7750:7757   */\n      dup6\n        /* \"#utility.yul\":7741:7747   */\n      dup3\n        /* \"#utility.yul\":7730:7739   */\n      dup7\n        /* \"#utility.yul\":7726:7748   */\n      add\n        /* \"#utility.yul\":7705:7758   */\n      tag_271\n      jump\t// in\n    tag_378:\n        /* \"#utility.yul\":7695:7758   */\n      swap2\n      pop\n        /* \"#utility.yul\":7650:7768   */\n      pop\n        /* \"#utility.yul\":7301:7775   */\n      swap3\n      pop\n      swap3\n      swap1\n      pop\n      jump\t// out\n        /* \"#utility.yul\":7781:7961   */\n    tag_283:\n        /* \"#utility.yul\":7829:7906   */\n      0x4e487b7100000000000000000000000000000000000000000000000000000000\n        /* \"#utility.yul\":7826:7827   */\n      0x00\n        /* \"#utility.yul\":7819:7907   */\n      mstore\n        /* \"#utility.yul\":7926:7930   */\n      0x11\n        /* \"#utility.yul\":7923:7924   */\n      0x04\n        /* \"#utility.yul\":7916:7931   */\n      mstore\n        /* \"#utility.yul\":7950:7954   */\n      0x24\n        /* \"#utility.yul\":7947:7948   */\n      0x00\n        /* \"#utility.yul\":7940:7955   */\n      revert\n        /* \"#utility.yul\":7967:8272   */\n    tag_174:\n        /* \"#utility.yul\":8007:8010   */\n      0x00\n        /* \"#utility.yul\":8026:8046   */\n      tag_381\n        /* \"#utility.yul\":8044:8045   */\n      dup3\n        /* \"#utility.yul\":8026:8046   */\n      tag_256\n      jump\t// in\n    tag_381:\n        /* \"#utility.yul\":8021:8046   */\n      swap2\n      pop\n        /* \"#utility.yul\":8060:8080   */\n      tag_382\n        /* \"#utility.yul\":8078:8079   */\n      dup4\n        /* \"#utility.yul\":8060:8080   */\n      tag_256\n      jump\t// in\n    tag_382:\n        /* \"#utility.yul\":8055:8080   */\n      swap3\n      pop\n        /* \"#utility.yul\":8214:8215   */\n      dup3\n        /* \"#utility.yul\":8146:8212   */\n      0xffffffffffffffffffffffffffffffffffffffffffffffffffffffffffffffff\n        /* \"#utility.yul\":8142:8216   */\n      sub\n        /* \"#utility.yul\":8139:8140   */\n      dup3\n        /* \"#utility.yul\":8136:8217   */\n      gt\n        /* \"#utility.yul\":8133:8240   */\n      iszero\n      tag_383\n      jumpi\n        /* \"#utility.yul\":8220:8238   */\n      tag_384\n      tag_283\n      jump\t// in\n    tag_384:\n        /* \"#utility.yul\":8133:8240   */\n    tag_383:\n        /* \"#utility.yul\":8264:8265   */\n      dup3\n        /* \"#utility.yul\":8261:8262   */\n      dup3\n        /* \"#utility.yul\":8257:8266   */\n      add\n        /* \"#utility.yul\":8250:8266   */\n      swap1\n      pop\n        /* \"#utility.yul\":7967:8272   */\n      swap3\n      swap2\n      pop\n      pop\n      jump\t// out\n        /* \"#utility.yul\":8278:8458   */\n    tag_284:\n        /* \"#utility.yul\":8326:8403   */\n      0x4e487b7100000000000000000000000000000000000000000000000000000000\n        /* \"#utility.yul\":8323:8324   */\n      0x00\n        /* \"#utility.yul\":8316:8404   */\n      mstore\n        /* \"#utility.yul\":8423:8427   */\n      0x12\n        /* \"#utility.yul\":8420:8421   */\n      0x04\n        /* \"#utility.yul\":8413:8428   */\n      mstore\n        /* \"#utility.yul\":8447:8451   */\n      0x24\n        /* \"#utility.yul\":8444:8445   */\n      0x00\n        /* \"#utility.yul\":8437:8452   */\n      revert\n        /* \"#utility.yul\":8464:8649   */\n    tag_177:\n        /* \"#utility.yul\":8504:8505   */\n      0x00\n        /* \"#utility.yul\":8521:8541   */\n      tag_387\n        /* \"#utility.yul\":8539:8540   */\n      dup3\n        /* \"#utility.yul\":8521:8541   */\n      tag_256\n      jump\t// in\n    tag_387:\n        /* \"#utility.yul\":8516:8541   */\n      swap2\n      pop\n        /* \"#utility.yul\":8555:8575   */\n      tag_388\n        /* \"#utility.yul\":8573:8574   */\n      dup4\n        /* \"#utility.yul\":8555:8575   */\n      tag_256\n      jump\t// in\n    tag_388:\n        /* \"#utility.yul\":8550:8575   */\n      swap3\n      pop\n        /* \"#utility.yul\":8594:8595   */\n      dup3\n        /* \"#utility.yul\":8584:8619   */\n      tag_389\n      jumpi\n        /* \"#utility.yul\":8599:8617   */\n      tag_390\n      tag_284\n      jump\t// in\n    tag_390:\n        /* \"#utility.yul\":8584:8619   */\n    tag_389:\n        /* \"#utility.yul\":8641:8642   */\n      dup3\n        /* \"#utility.yul\":8638:8639   */\n      dup3\n        /* \"#utility.yul\":8634:8643   */\n      div\n        /* \"#utility.yul\":8629:8643   */\n      swap1\n      pop\n        /* \"#utility.yul\":8464:8649   */\n      swap3\n      swap2\n      pop\n      pop\n      jump\t// out\n        /* \"#utility.yul\":8655:8846   */\n    tag_180:\n        /* \"#utility.yul\":8695:8699   */\n      0x00\n        /* \"#utility.yul\":8715:8735   */\n      tag_392\n        /* \"#utility.yul\":8733:8734   */\n      dup3\n        /* \"#utility.yul\":8715:8735   */\n      tag_256\n      jump\t// in\n    tag_392:\n        /* \"#utility.yul\":8710:8735   */\n      swap2\n      pop\n        /* \"#utility.yul\":8749:8769   */\n      tag_393\n        /* \"#utility.yul\":8767:8768   */\n      dup4\n        /* \"#utility.yul\":8749:8769   */\n      tag_256\n      jump\t// in\n    tag_393:\n        /* \"#utility.yul\":8744:8769   */\n      swap3\n      pop\n        /* \"#utility.yul\":8788:8789   */\n      dup3\n        /* \"#utility.yul\":8785:8786   */\n      dup3\n        /* \"#utility.yul\":8782:8790   */\n      lt\n        /* \"#utility.yul\":8779:8813   */\n      iszero\n      tag_394\n      jumpi\n        /* \"#utility.yul\":8793:8811   */\n      tag_395\n      tag_283\n      jump\t// in\n    tag_395:\n        /* \"#utility.yul\":8779:8813   */\n    tag_394:\n        /* \"#utility.yul\":8838:8839   */\n      dup3\n        /* \"#utility.yul\":8835:8836   */\n      dup3\n        /* \"#utility.yul\":8831:8840   */\n      sub\n        /* \"#utility.yul\":8823:8840   */\n      swap1\n      pop\n        /* \"#utility.yul\":8655:8846   */\n      swap3\n      swap2\n      pop\n      pop\n      jump\t// out\n        /* \"#utility.yul\":8852:9294   */\n    tag_184:\n        /* \"#utility.yul\":9001:9005   */\n      0x00\n        /* \"#utility.yul\":9039:9041   */\n      0x60\n        /* \"#utility.yul\":9028:9037   */\n      dup3\n        /* \"#utility.yul\":9024:9042   */\n      add\n        /* \"#utility.yul\":9016:9042   */\n      swap1\n      pop\n        /* \"#utility.yul\":9052:9123   */\n      tag_397\n        /* \"#utility.yul\":9120:9121   */\n      0x00\n        /* \"#utility.yul\":9109:9118   */\n      dup4\n        /* \"#utility.yul\":9105:9122   */\n      add\n        /* \"#utility.yul\":9096:9102   */\n      dup7\n        /* \"#utility.yul\":9052:9123   */\n      tag_278\n      jump\t// in\n    tag_397:\n        /* \"#utility.yul\":9133:9205   */\n      tag_398\n        /* \"#utility.yul\":9201:9203   */\n      0x20\n        /* \"#utility.yul\":9190:9199   */\n      dup4\n        /* \"#utility.yul\":9186:9204   */\n      add\n        /* \"#utility.yul\":9177:9183   */\n      dup6\n        /* \"#utility.yul\":9133:9205   */\n      tag_257\n      jump\t// in\n    tag_398:\n        /* \"#utility.yul\":9215:9287   */\n      tag_399\n        /* \"#utility.yul\":9283:9285   */\n      0x40\n        /* \"#utility.yul\":9272:9281   */\n      dup4\n        /* \"#utility.yul\":9268:9286   */\n      add\n        /* \"#utility.yul\":9259:9265   */\n      dup5\n        /* \"#utility.yul\":9215:9287   */\n      tag_257\n      jump\t// in\n    tag_399:\n        /* \"#utility.yul\":8852:9294   */\n      swap5\n      swap4\n      pop\n      pop\n      pop\n      pop\n      jump\t// out\n        /* \"#utility.yul\":9300:9480   */\n    tag_285:\n        /* \"#utility.yul\":9348:9425   */\n      0x4e487b7100000000000000000000000000000000000000000000000000000000\n        /* \"#utility.yul\":9345:9346   */\n      0x00\n        /* \"#utility.yul\":9338:9426   */\n      mstore\n        /* \"#utility.yul\":9445:9449   */\n      0x22\n        /* \"#utility.yul\":9442:9443   */\n      0x04\n        /* \"#utility.yul\":9435:9450   */\n      mstore\n        /* \"#utility.yul\":9469:9473   */\n      0x24\n        /* \"#utility.yul\":9466:9467   */\n      0x00\n        /* \"#utility.yul\":9459:9474   */\n      revert\n        /* \"#utility.yul\":9486:9806   */\n    tag_186:\n        /* \"#utility.yul\":9530:9536   */\n      0x00\n        /* \"#utility.yul\":9567:9568   */\n      0x02\n        /* \"#utility.yul\":9561:9565   */\n      dup3\n        /* \"#utility.yul\":9557:9569   */\n      div\n        /* \"#utility.yul\":9547:9569   */\n      swap1\n      pop\n        /* \"#utility.yul\":9614:9615   */\n      0x01\n        /* \"#utility.yul\":9608:9612   */\n      dup3\n        /* \"#utility.yul\":9604:9616   */\n      and\n        /* \"#utility.yul\":9635:9653   */\n      dup1\n        /* \"#utility.yul\":9625:9706   */\n      tag_402\n      jumpi\n        /* \"#utility.yul\":9691:9695   */\n      0x7f\n        /* \"#utility.yul\":9683:9689   */\n      dup3\n        /* \"#utility.yul\":9679:9696   */\n      and\n        /* \"#utility.yul\":9669:9696   */\n      swap2\n      pop\n        /* \"#utility.yul\":9625:9706   */\n    tag_402:\n        /* \"#utility.yul\":9753:9755   */\n      0x20\n        /* \"#utility.yul\":9745:9751   */\n      dup3\n        /* \"#utility.yul\":9742:9756   */\n      lt\n        /* \"#utility.yul\":9722:9740   */\n      dup2\n        /* \"#utility.yul\":9719:9757   */\n      sub\n        /* \"#utility.yul\":9716:9800   */\n      tag_403\n      jumpi\n        /* \"#utility.yul\":9772:9790   */\n      tag_404\n      tag_285\n      jump\t// in\n    tag_404:\n        /* \"#utility.yul\":9716:9800   */\n    tag_403:\n        /* \"#utility.yul\":9537:9806   */\n      pop\n        /* \"#utility.yul\":9486:9806   */\n      swap2\n      swap1\n      pop\n      jump\t// out\n\n    auxdata: 0xa2646970667358221220e1904c30b3c07b336d35ddbbffa48708d0a9b901e848e77465f2f30a7228807a64736f6c634300080e0033\n}\n",
				"bytecode": {
					"linkReferences": {},
					"object": "60806040526040518060400160405280600881526020017f597573546f6b656e0000000000000000000000000000000000000000000000008152506000908051906020019062000051929190620002af565b506040518060400160405280600381526020017f5955530000000000000000000000000000000000000000000000000000000000815250600190805190602001906200009f929190620002af565b50600060025566038d7ea4c68000600955680ad78ebc5ac6200000600a55603c42620000cc919062000398565b600c5562093a8042620000e0919062000398565b600d5562093a80600d54620000f6919062000398565b600e55678ac7230489e80000600f5567016345785d8a00006010553480156200011e57600080fd5b5060405162001f2838038062001f2883398181016040528101906200014491906200045f565b633b9aca0060038190555033600460006101000a81548173ffffffffffffffffffffffffffffffffffffffff021916908373ffffffffffffffffffffffffffffffffffffffff16021790555060035460056000600460009054906101000a900473ffffffffffffffffffffffffffffffffffffffff1673ffffffffffffffffffffffffffffffffffffffff1673ffffffffffffffffffffffffffffffffffffffff1681526020019081526020016000208190555080600860006101000a81548173ffffffffffffffffffffffffffffffffffffffff021916908373ffffffffffffffffffffffffffffffffffffffff16021790555033600760006101000a81548173ffffffffffffffffffffffffffffffffffffffff021916908373ffffffffffffffffffffffffffffffffffffffff1602179055506000601160006101000a81548160ff02191690836003811115620002a357620002a262000491565b5b02179055505062000524565b828054620002bd90620004ef565b90600052602060002090601f016020900481019282620002e157600085556200032d565b82601f10620002fc57805160ff19168380011785556200032d565b828001600101855582156200032d579182015b828111156200032c5782518255916020019190600101906200030f565b5b5090506200033c919062000340565b5090565b5b808211156200035b57600081600090555060010162000341565b5090565b6000819050919050565b7f4e487b7100000000000000000000000000000000000000000000000000000000600052601160045260246000fd5b6000620003a5826200035f565b9150620003b2836200035f565b9250827fffffffffffffffffffffffffffffffffffffffffffffffffffffffffffffffff03821115620003ea57620003e962000369565b5b828201905092915050565b600080fd5b600073ffffffffffffffffffffffffffffffffffffffff82169050919050565b60006200042782620003fa565b9050919050565b62000439816200041a565b81146200044557600080fd5b50565b60008151905062000459816200042e565b92915050565b600060208284031215620004785762000477620003f5565b5b6000620004888482850162000448565b91505092915050565b7f4e487b7100000000000000000000000000000000000000000000000000000000600052602160045260246000fd5b7f4e487b7100000000000000000000000000000000000000000000000000000000600052602260045260246000fd5b600060028204905060018216806200050857607f821691505b6020821081036200051e576200051d620004c0565b5b50919050565b6119f480620005346000396000f3fe60806040526004361061019f5760003560e01c80636d58c88f116100ec578063ab0bcc411161008a578063cc9ba58311610064578063cc9ba583146105b3578063d0e30db0146105de578063dd62ed3e14610609578063f851a44014610646576101ae565b8063ab0bcc4114610532578063c10b93581461055d578063c59ee1dc14610588576101ae565b80638ac2c680116100c65780638ac2c6801461048857806395d89b41146104b35780639cbd7da5146104de578063a9059cbb146104f5576101ae565b80636d58c88f1461040457806370a082311461042d578063783f525f1461046a576101ae565b806323b872dd11610159578063355274ea11610133578063355274ea14610358578063378aa7011461038357806344f38756146103ae5780634d853ee5146103d9576101ae565b806323b872dd146102b357806327e235e3146102f0578063313ce5671461032d576101ae565b80622e1316146101b357806306fdde03146101de57806308003f7814610209578063095ea7b314610234578063129caa181461027157806318160ddd14610288576101ae565b366101ae576101ac610671565b005b600080fd5b3480156101bf57600080fd5b506101c86108b7565b6040516101d59190611422565b60405180910390f35b3480156101ea57600080fd5b506101f36108bd565b60405161020091906114d6565b60405180910390f35b34801561021557600080fd5b5061021e61094b565b60405161022b9190611513565b60405180910390f35b34801561024057600080fd5b5061025b600480360381019061025691906115bd565b610a2a565b6040516102689190611513565b60405180910390f35b34801561027d57600080fd5b50610286610b75565b005b34801561029457600080fd5b5061029d610bfc565b6040516102aa9190611422565b60405180910390f35b3480156102bf57600080fd5b506102da60048036038101906102d591906115fd565b610c02565b6040516102e79190611513565b60405180910390f35b3480156102fc57600080fd5b5061031760048036038101906103129190611650565b610c29565b6040516103249190611422565b60405180910390f35b34801561033957600080fd5b50610342610c41565b60405161034f9190611422565b60405180910390f35b34801561036457600080fd5b5061036d610c47565b60405161037a9190611422565b60405180910390f35b34801561038f57600080fd5b50610398610c4d565b6040516103a591906116f4565b60405180910390f35b3480156103ba57600080fd5b506103c3610ccf565b6040516103d091906116f4565b60405180910390f35b3480156103e557600080fd5b506103ee610ce2565b6040516103fb919061171e565b60405180910390f35b34801561041057600080fd5b5061042b60048036038101906104269190611777565b610d08565b005b34801561043957600080fd5b50610454600480360381019061044f9190611650565b610da6565b6040516104619190611422565b60405180910390f35b610472610671565b60405161047f9190611513565b60405180910390f35b34801561049457600080fd5b5061049d610def565b6040516104aa9190611422565b60405180910390f35b3480156104bf57600080fd5b506104c8610df5565b6040516104d591906114d6565b60405180910390f35b3480156104ea57600080fd5b506104f3610e83565b005b34801561050157600080fd5b5061051c600480360381019061051791906115bd565b610f0a565b6040516105299190611513565b60405180910390f35b34801561053e57600080fd5b50610547610f2f565b6040516105549190611422565b60405180910390f35b34801561056957600080fd5b50610572610f35565b60405161057f9190611422565b60405180910390f35b34801561059457600080fd5b5061059d610f3b565b6040516105aa9190611422565b60405180910390f35b3480156105bf57600080fd5b506105c8610f41565b6040516105d59190611422565b60405180910390f35b3480156105ea57600080fd5b506105f3610f47565b60405161060091906117b3565b60405180910390f35b34801561061557600080fd5b50610630600480360381019061062b91906117ce565b610f6d565b60405161063d9190611422565b60405180910390f35b34801561065257600080fd5b5061065b610ff4565b604051610668919061171e565b60405180910390f35b600061067b610c4d565b601160006101000a81548160ff0219169083600381111561069f5761069e61167d565b5b0217905550600160038111156106b8576106b761167d565b5b601160009054906101000a900460ff1660038111156106da576106d961167d565b5b146106e457600080fd5b60105434101580156106f85750600f543411155b61070157600080fd5b34600b6000828254610713919061183d565b92505081905550600a54600b54111561072b57600080fd5b60006009543461073b91906118c2565b905080600560003373ffffffffffffffffffffffffffffffffffffffff1673ffffffffffffffffffffffffffffffffffffffff168152602001908152602001600020600082825461078c919061183d565b925050819055508060056000600460009054906101000a900473ffffffffffffffffffffffffffffffffffffffff1673ffffffffffffffffffffffffffffffffffffffff1673ffffffffffffffffffffffffffffffffffffffff168152602001908152602001600020600082825461080491906118f3565b92505081905550600860009054906101000a900473ffffffffffffffffffffffffffffffffffffffff1673ffffffffffffffffffffffffffffffffffffffff166108fc349081150290604051600060405180830381858888f19350505050158015610873573d6000803e3d6000fd5b507fe58b7d87d21cf1b6c9066ff73d56461fc687bb4858b6501c4273fa5cda2102243334836040516108a793929190611927565b60405180910390a1600191505090565b600f5481565b600080546108ca9061198d565b80601f01602080910402602001604051908101604052809291908181526020018280546108f69061198d565b80156109435780601f1061091857610100808354040283529160200191610943565b820191906000526020600020905b81548152906001019060200180831161092657829003601f168201915b505050505081565b6000610955610c4d565b601160006101000a81548160ff021916908360038111156109795761097861167d565b5b0217905550600260038111156109925761099161167d565b5b601160009054906101000a900460ff1660038111156109b4576109b361167d565b5b146109be57600080fd5b600060056000600460009054906101000a900473ffffffffffffffffffffffffffffffffffffffff1673ffffffffffffffffffffffffffffffffffffffff1673ffffffffffffffffffffffffffffffffffffffff16815260200190815260200160002050506001905090565b600081600560003373ffffffffffffffffffffffffffffffffffffffff1673ffffffffffffffffffffffffffffffffffffffff168152602001908152602001600020541015610a7857600080fd5b60008211610a8557600080fd5b81600660003373ffffffffffffffffffffffffffffffffffffffff1673ffffffffffffffffffffffffffffffffffffffff16815260200190815260200160002060008573ffffffffffffffffffffffffffffffffffffffff1673ffffffffffffffffffffffffffffffffffffffff168152602001908152602001600020819055508273ffffffffffffffffffffffffffffffffffffffff163373ffffffffffffffffffffffffffffffffffffffff167f8c5be1e5ebec7d5bd14f71427d1e84f3dd0314c0f7b2291e5b200ac8c7c3b92584604051610b639190611422565b60405180910390a36001905092915050565b600760009054906101000a900473ffffffffffffffffffffffffffffffffffffffff1673ffffffffffffffffffffffffffffffffffffffff163373ffffffffffffffffffffffffffffffffffffffff1614610bcf57600080fd5b6003601160006101000a81548160ff02191690836003811115610bf557610bf461167d565b5b0217905550565b60035481565b6000600e544211610c1257600080fd5b610c1d84848461101a565b50600190509392505050565b60056020528060005260406000206000915090505481565b60025481565b600a5481565b6000600380811115610c6257610c6161167d565b5b601160009054906101000a900460ff166003811115610c8457610c8361167d565b5b03610c925760039050610ccc565b600c54421015610ca55760009050610ccc565b600d544211158015610cb95750600c544210155b15610cc75760019050610ccc565b600290505b90565b601160009054906101000a900460ff1681565b600460009054906101000a900473ffffffffffffffffffffffffffffffffffffffff1681565b600760009054906101000a900473ffffffffffffffffffffffffffffffffffffffff1673ffffffffffffffffffffffffffffffffffffffff163373ffffffffffffffffffffffffffffffffffffffff1614610d6257600080fd5b80600860006101000a81548173ffffffffffffffffffffffffffffffffffffffff021916908373ffffffffffffffffffffffffffffffffffffffff16021790555050565b6000600560008373ffffffffffffffffffffffffffffffffffffffff1673ffffffffffffffffffffffffffffffffffffffff168152602001908152602001600020549050919050565b60105481565b60018054610e029061198d565b80601f0160208091040260200160405190810160405280929190818152602001828054610e2e9061198d565b8015610e7b5780601f10610e5057610100808354040283529160200191610e7b565b820191906000526020600020905b815481529060010190602001808311610e5e57829003601f168201915b505050505081565b600760009054906101000a900473ffffffffffffffffffffffffffffffffffffffff1673ffffffffffffffffffffffffffffffffffffffff163373ffffffffffffffffffffffffffffffffffffffff1614610edd57600080fd5b6001601160006101000a81548160ff02191690836003811115610f0357610f0261167d565b5b0217905550565b6000600e544211610f1a57600080fd5b610f2483836112a0565b506001905092915050565b600c5481565b600d5481565b600b5481565b600e5481565b600860009054906101000a900473ffffffffffffffffffffffffffffffffffffffff1681565b6000600660008473ffffffffffffffffffffffffffffffffffffffff1673ffffffffffffffffffffffffffffffffffffffff16815260200190815260200160002060008373ffffffffffffffffffffffffffffffffffffffff1673ffffffffffffffffffffffffffffffffffffffff16815260200190815260200160002054905092915050565b600760009054906101000a900473ffffffffffffffffffffffffffffffffffffffff1681565b600081600660008673ffffffffffffffffffffffffffffffffffffffff1673ffffffffffffffffffffffffffffffffffffffff16815260200190815260200160002060003373ffffffffffffffffffffffffffffffffffffffff1673ffffffffffffffffffffffffffffffffffffffff1681526020019081526020016000205410156110a557600080fd5b81600560008673ffffffffffffffffffffffffffffffffffffffff1673ffffffffffffffffffffffffffffffffffffffff1681526020019081526020016000205410156110f157600080fd5b81600560008673ffffffffffffffffffffffffffffffffffffffff1673ffffffffffffffffffffffffffffffffffffffff168152602001908152602001600020600082825461114091906118f3565b9250508190555081600660008673ffffffffffffffffffffffffffffffffffffffff1673ffffffffffffffffffffffffffffffffffffffff16815260200190815260200160002060003373ffffffffffffffffffffffffffffffffffffffff1673ffffffffffffffffffffffffffffffffffffffff16815260200190815260200160002060008282546111d391906118f3565b9250508190555081600560008573ffffffffffffffffffffffffffffffffffffffff1673ffffffffffffffffffffffffffffffffffffffff1681526020019081526020016000206000828254611229919061183d565b925050819055508273ffffffffffffffffffffffffffffffffffffffff168473ffffffffffffffffffffffffffffffffffffffff167fddf252ad1be2c89b69c2b068fc378daa952ba7f163c4a11628f55a4df523b3ef8460405161128d9190611422565b60405180910390a3600190509392505050565b600081600560003373ffffffffffffffffffffffffffffffffffffffff1673ffffffffffffffffffffffffffffffffffffffff1681526020019081526020016000205410156112ee57600080fd5b81600560008573ffffffffffffffffffffffffffffffffffffffff1673ffffffffffffffffffffffffffffffffffffffff168152602001908152602001600020600082825461133d919061183d565b9250508190555081600560003373ffffffffffffffffffffffffffffffffffffffff1673ffffffffffffffffffffffffffffffffffffffff168152602001908152602001600020600082825461139391906118f3565b925050819055508273ffffffffffffffffffffffffffffffffffffffff163373ffffffffffffffffffffffffffffffffffffffff167fddf252ad1be2c89b69c2b068fc378daa952ba7f163c4a11628f55a4df523b3ef846040516113f79190611422565b60405180910390a36001905092915050565b6000819050919050565b61141c81611409565b82525050565b60006020820190506114376000830184611413565b92915050565b600081519050919050565b600082825260208201905092915050565b60005b8381101561147757808201518184015260208101905061145c565b83811115611486576000848401525b50505050565b6000601f19601f8301169050919050565b60006114a88261143d565b6114b28185611448565b93506114c2818560208601611459565b6114cb8161148c565b840191505092915050565b600060208201905081810360008301526114f0818461149d565b905092915050565b60008115159050919050565b61150d816114f8565b82525050565b60006020820190506115286000830184611504565b92915050565b600080fd5b600073ffffffffffffffffffffffffffffffffffffffff82169050919050565b600061155e82611533565b9050919050565b61156e81611553565b811461157957600080fd5b50565b60008135905061158b81611565565b92915050565b61159a81611409565b81146115a557600080fd5b50565b6000813590506115b781611591565b92915050565b600080604083850312156115d4576115d361152e565b5b60006115e28582860161157c565b92505060206115f3858286016115a8565b9150509250929050565b6000806000606084860312156116165761161561152e565b5b60006116248682870161157c565b93505060206116358682870161157c565b9250506040611646868287016115a8565b9150509250925092565b6000602082840312156116665761166561152e565b5b60006116748482850161157c565b91505092915050565b7f4e487b7100000000000000000000000000000000000000000000000000000000600052602160045260246000fd5b600481106116bd576116bc61167d565b5b50565b60008190506116ce826116ac565b919050565b60006116de826116c0565b9050919050565b6116ee816116d3565b82525050565b600060208201905061170960008301846116e5565b92915050565b61171881611553565b82525050565b6000602082019050611733600083018461170f565b92915050565b600061174482611533565b9050919050565b61175481611739565b811461175f57600080fd5b50565b6000813590506117718161174b565b92915050565b60006020828403121561178d5761178c61152e565b5b600061179b84828501611762565b91505092915050565b6117ad81611739565b82525050565b60006020820190506117c860008301846117a4565b92915050565b600080604083850312156117e5576117e461152e565b5b60006117f38582860161157c565b92505060206118048582860161157c565b9150509250929050565b7f4e487b7100000000000000000000000000000000000000000000000000000000600052601160045260246000fd5b600061184882611409565b915061185383611409565b9250827fffffffffffffffffffffffffffffffffffffffffffffffffffffffffffffffff038211156118885761188761180e565b5b828201905092915050565b7f4e487b7100000000000000000000000000000000000000000000000000000000600052601260045260246000fd5b60006118cd82611409565b91506118d883611409565b9250826118e8576118e7611893565b5b828204905092915050565b60006118fe82611409565b915061190983611409565b92508282101561191c5761191b61180e565b5b828203905092915050565b600060608201905061193c600083018661170f565b6119496020830185611413565b6119566040830184611413565b949350505050565b7f4e487b7100000000000000000000000000000000000000000000000000000000600052602260045260246000fd5b600060028204905060018216806119a557607f821691505b6020821081036119b8576119b761195e565b5b5091905056fea2646970667358221220e1904c30b3c07b336d35ddbbffa48708d0a9b901e848e77465f2f30a7228807a64736f6c634300080e0033",
					"opcodes": "PUSH1 0x80 PUSH1 0x40 MSTORE PUSH1 0x40 MLOAD DUP1 PUSH1 0x40 ADD PUSH1 0x40 MSTORE DUP1 PUSH1 0x8 DUP2 MSTORE PUSH1 0x20 ADD PUSH32 0x597573546F6B656E000000000000000000000000000000000000000000000000 DUP2 MSTORE POP PUSH1 0x0 SWAP1 DUP1 MLOAD SWAP1 PUSH1 0x20 ADD SWAP1 PUSH3 0x51 SWAP3 SWAP2 SWAP1 PUSH3 0x2AF JUMP JUMPDEST POP PUSH1 0x40 MLOAD DUP1 PUSH1 0x40 ADD PUSH1 0x40 MSTORE DUP1 PUSH1 0x3 DUP2 MSTORE PUSH1 0x20 ADD PUSH32 0x5955530000000000000000000000000000000000000000000000000000000000 DUP2 MSTORE POP PUSH1 0x1 SWAP1 DUP1 MLOAD SWAP1 PUSH1 0x20 ADD SWAP1 PUSH3 0x9F SWAP3 SWAP2 SWAP1 PUSH3 0x2AF JUMP JUMPDEST POP PUSH1 0x0 PUSH1 0x2 SSTORE PUSH7 0x38D7EA4C68000 PUSH1 0x9 SSTORE PUSH9 0xAD78EBC5AC6200000 PUSH1 0xA SSTORE PUSH1 0x3C TIMESTAMP PUSH3 0xCC SWAP2 SWAP1 PUSH3 0x398 JUMP JUMPDEST PUSH1 0xC SSTORE PUSH3 0x93A80 TIMESTAMP PUSH3 0xE0 SWAP2 SWAP1 PUSH3 0x398 JUMP JUMPDEST PUSH1 0xD SSTORE PUSH3 0x93A80 PUSH1 0xD SLOAD PUSH3 0xF6 SWAP2 SWAP1 PUSH3 0x398 JUMP JUMPDEST PUSH1 0xE SSTORE PUSH8 0x8AC7230489E80000 PUSH1 0xF SSTORE PUSH8 0x16345785D8A0000 PUSH1 0x10 SSTORE CALLVALUE DUP1 ISZERO PUSH3 0x11E JUMPI PUSH1 0x0 DUP1 REVERT JUMPDEST POP PUSH1 0x40 MLOAD PUSH3 0x1F28 CODESIZE SUB DUP1 PUSH3 0x1F28 DUP4 CODECOPY DUP2 DUP2 ADD PUSH1 0x40 MSTORE DUP2 ADD SWAP1 PUSH3 0x144 SWAP2 SWAP1 PUSH3 0x45F JUMP JUMPDEST PUSH4 0x3B9ACA00 PUSH1 0x3 DUP2 SWAP1 SSTORE POP CALLER PUSH1 0x4 PUSH1 0x0 PUSH2 0x100 EXP DUP2 SLOAD DUP2 PUSH20 0xFFFFFFFFFFFFFFFFFFFFFFFFFFFFFFFFFFFFFFFF MUL NOT AND SWAP1 DUP4 PUSH20 0xFFFFFFFFFFFFFFFFFFFFFFFFFFFFFFFFFFFFFFFF AND MUL OR SWAP1 SSTORE POP PUSH1 0x3 SLOAD PUSH1 0x5 PUSH1 0x0 PUSH1 0x4 PUSH1 0x0 SWAP1 SLOAD SWAP1 PUSH2 0x100 EXP SWAP1 DIV PUSH20 0xFFFFFFFFFFFFFFFFFFFFFFFFFFFFFFFFFFFFFFFF AND PUSH20 0xFFFFFFFFFFFFFFFFFFFFFFFFFFFFFFFFFFFFFFFF AND PUSH20 0xFFFFFFFFFFFFFFFFFFFFFFFFFFFFFFFFFFFFFFFF AND DUP2 MSTORE PUSH1 0x20 ADD SWAP1 DUP2 MSTORE PUSH1 0x20 ADD PUSH1 0x0 KECCAK256 DUP2 SWAP1 SSTORE POP DUP1 PUSH1 0x8 PUSH1 0x0 PUSH2 0x100 EXP DUP2 SLOAD DUP2 PUSH20 0xFFFFFFFFFFFFFFFFFFFFFFFFFFFFFFFFFFFFFFFF MUL NOT AND SWAP1 DUP4 PUSH20 0xFFFFFFFFFFFFFFFFFFFFFFFFFFFFFFFFFFFFFFFF AND MUL OR SWAP1 SSTORE POP CALLER PUSH1 0x7 PUSH1 0x0 PUSH2 0x100 EXP DUP2 SLOAD DUP2 PUSH20 0xFFFFFFFFFFFFFFFFFFFFFFFFFFFFFFFFFFFFFFFF MUL NOT AND SWAP1 DUP4 PUSH20 0xFFFFFFFFFFFFFFFFFFFFFFFFFFFFFFFFFFFFFFFF AND MUL OR SWAP1 SSTORE POP PUSH1 0x0 PUSH1 0x11 PUSH1 0x0 PUSH2 0x100 EXP DUP2 SLOAD DUP2 PUSH1 0xFF MUL NOT AND SWAP1 DUP4 PUSH1 0x3 DUP2 GT ISZERO PUSH3 0x2A3 JUMPI PUSH3 0x2A2 PUSH3 0x491 JUMP JUMPDEST JUMPDEST MUL OR SWAP1 SSTORE POP POP PUSH3 0x524 JUMP JUMPDEST DUP3 DUP1 SLOAD PUSH3 0x2BD SWAP1 PUSH3 0x4EF JUMP JUMPDEST SWAP1 PUSH1 0x0 MSTORE PUSH1 0x20 PUSH1 0x0 KECCAK256 SWAP1 PUSH1 0x1F ADD PUSH1 0x20 SWAP1 DIV DUP2 ADD SWAP3 DUP3 PUSH3 0x2E1 JUMPI PUSH1 0x0 DUP6 SSTORE PUSH3 0x32D JUMP JUMPDEST DUP3 PUSH1 0x1F LT PUSH3 0x2FC JUMPI DUP1 MLOAD PUSH1 0xFF NOT AND DUP4 DUP1 ADD OR DUP6 SSTORE PUSH3 0x32D JUMP JUMPDEST DUP3 DUP1 ADD PUSH1 0x1 ADD DUP6 SSTORE DUP3 ISZERO PUSH3 0x32D JUMPI SWAP2 DUP3 ADD JUMPDEST DUP3 DUP2 GT ISZERO PUSH3 0x32C JUMPI DUP3 MLOAD DUP3 SSTORE SWAP2 PUSH1 0x20 ADD SWAP2 SWAP1 PUSH1 0x1 ADD SWAP1 PUSH3 0x30F JUMP JUMPDEST JUMPDEST POP SWAP1 POP PUSH3 0x33C SWAP2 SWAP1 PUSH3 0x340 JUMP JUMPDEST POP SWAP1 JUMP JUMPDEST JUMPDEST DUP1 DUP3 GT ISZERO PUSH3 0x35B JUMPI PUSH1 0x0 DUP2 PUSH1 0x0 SWAP1 SSTORE POP PUSH1 0x1 ADD PUSH3 0x341 JUMP JUMPDEST POP SWAP1 JUMP JUMPDEST PUSH1 0x0 DUP2 SWAP1 POP SWAP2 SWAP1 POP JUMP JUMPDEST PUSH32 0x4E487B7100000000000000000000000000000000000000000000000000000000 PUSH1 0x0 MSTORE PUSH1 0x11 PUSH1 0x4 MSTORE PUSH1 0x24 PUSH1 0x0 REVERT JUMPDEST PUSH1 0x0 PUSH3 0x3A5 DUP3 PUSH3 0x35F JUMP JUMPDEST SWAP2 POP PUSH3 0x3B2 DUP4 PUSH3 0x35F JUMP JUMPDEST SWAP3 POP DUP3 PUSH32 0xFFFFFFFFFFFFFFFFFFFFFFFFFFFFFFFFFFFFFFFFFFFFFFFFFFFFFFFFFFFFFFFF SUB DUP3 GT ISZERO PUSH3 0x3EA JUMPI PUSH3 0x3E9 PUSH3 0x369 JUMP JUMPDEST JUMPDEST DUP3 DUP3 ADD SWAP1 POP SWAP3 SWAP2 POP POP JUMP JUMPDEST PUSH1 0x0 DUP1 REVERT JUMPDEST PUSH1 0x0 PUSH20 0xFFFFFFFFFFFFFFFFFFFFFFFFFFFFFFFFFFFFFFFF DUP3 AND SWAP1 POP SWAP2 SWAP1 POP JUMP JUMPDEST PUSH1 0x0 PUSH3 0x427 DUP3 PUSH3 0x3FA JUMP JUMPDEST SWAP1 POP SWAP2 SWAP1 POP JUMP JUMPDEST PUSH3 0x439 DUP2 PUSH3 0x41A JUMP JUMPDEST DUP2 EQ PUSH3 0x445 JUMPI PUSH1 0x0 DUP1 REVERT JUMPDEST POP JUMP JUMPDEST PUSH1 0x0 DUP2 MLOAD SWAP1 POP PUSH3 0x459 DUP2 PUSH3 0x42E JUMP JUMPDEST SWAP3 SWAP2 POP POP JUMP JUMPDEST PUSH1 0x0 PUSH1 0x20 DUP3 DUP5 SUB SLT ISZERO PUSH3 0x478 JUMPI PUSH3 0x477 PUSH3 0x3F5 JUMP JUMPDEST JUMPDEST PUSH1 0x0 PUSH3 0x488 DUP5 DUP3 DUP6 ADD PUSH3 0x448 JUMP JUMPDEST SWAP2 POP POP SWAP3 SWAP2 POP POP JUMP JUMPDEST PUSH32 0x4E487B7100000000000000000000000000000000000000000000000000000000 PUSH1 0x0 MSTORE PUSH1 0x21 PUSH1 0x4 MSTORE PUSH1 0x24 PUSH1 0x0 REVERT JUMPDEST PUSH32 0x4E487B7100000000000000000000000000000000000000000000000000000000 PUSH1 0x0 MSTORE PUSH1 0x22 PUSH1 0x4 MSTORE PUSH1 0x24 PUSH1 0x0 REVERT JUMPDEST PUSH1 0x0 PUSH1 0x2 DUP3 DIV SWAP1 POP PUSH1 0x1 DUP3 AND DUP1 PUSH3 0x508 JUMPI PUSH1 0x7F DUP3 AND SWAP2 POP JUMPDEST PUSH1 0x20 DUP3 LT DUP2 SUB PUSH3 0x51E JUMPI PUSH3 0x51D PUSH3 0x4C0 JUMP JUMPDEST JUMPDEST POP SWAP2 SWAP1 POP JUMP JUMPDEST PUSH2 0x19F4 DUP1 PUSH3 0x534 PUSH1 0x0 CODECOPY PUSH1 0x0 RETURN INVALID PUSH1 0x80 PUSH1 0x40 MSTORE PUSH1 0x4 CALLDATASIZE LT PUSH2 0x19F JUMPI PUSH1 0x0 CALLDATALOAD PUSH1 0xE0 SHR DUP1 PUSH4 0x6D58C88F GT PUSH2 0xEC JUMPI DUP1 PUSH4 0xAB0BCC41 GT PUSH2 0x8A JUMPI DUP1 PUSH4 0xCC9BA583 GT PUSH2 0x64 JUMPI DUP1 PUSH4 0xCC9BA583 EQ PUSH2 0x5B3 JUMPI DUP1 PUSH4 0xD0E30DB0 EQ PUSH2 0x5DE JUMPI DUP1 PUSH4 0xDD62ED3E EQ PUSH2 0x609 JUMPI DUP1 PUSH4 0xF851A440 EQ PUSH2 0x646 JUMPI PUSH2 0x1AE JUMP JUMPDEST DUP1 PUSH4 0xAB0BCC41 EQ PUSH2 0x532 JUMPI DUP1 PUSH4 0xC10B9358 EQ PUSH2 0x55D JUMPI DUP1 PUSH4 0xC59EE1DC EQ PUSH2 0x588 JUMPI PUSH2 0x1AE JUMP JUMPDEST DUP1 PUSH4 0x8AC2C680 GT PUSH2 0xC6 JUMPI DUP1 PUSH4 0x8AC2C680 EQ PUSH2 0x488 JUMPI DUP1 PUSH4 0x95D89B41 EQ PUSH2 0x4B3 JUMPI DUP1 PUSH4 0x9CBD7DA5 EQ PUSH2 0x4DE JUMPI DUP1 PUSH4 0xA9059CBB EQ PUSH2 0x4F5 JUMPI PUSH2 0x1AE JUMP JUMPDEST DUP1 PUSH4 0x6D58C88F EQ PUSH2 0x404 JUMPI DUP1 PUSH4 0x70A08231 EQ PUSH2 0x42D JUMPI DUP1 PUSH4 0x783F525F EQ PUSH2 0x46A JUMPI PUSH2 0x1AE JUMP JUMPDEST DUP1 PUSH4 0x23B872DD GT PUSH2 0x159 JUMPI DUP1 PUSH4 0x355274EA GT PUSH2 0x133 JUMPI DUP1 PUSH4 0x355274EA EQ PUSH2 0x358 JUMPI DUP1 PUSH4 0x378AA701 EQ PUSH2 0x383 JUMPI DUP1 PUSH4 0x44F38756 EQ PUSH2 0x3AE JUMPI DUP1 PUSH4 0x4D853EE5 EQ PUSH2 0x3D9 JUMPI PUSH2 0x1AE JUMP JUMPDEST DUP1 PUSH4 0x23B872DD EQ PUSH2 0x2B3 JUMPI DUP1 PUSH4 0x27E235E3 EQ PUSH2 0x2F0 JUMPI DUP1 PUSH4 0x313CE567 EQ PUSH2 0x32D JUMPI PUSH2 0x1AE JUMP JUMPDEST DUP1 PUSH3 0x2E1316 EQ PUSH2 0x1B3 JUMPI DUP1 PUSH4 0x6FDDE03 EQ PUSH2 0x1DE JUMPI DUP1 PUSH4 0x8003F78 EQ PUSH2 0x209 JUMPI DUP1 PUSH4 0x95EA7B3 EQ PUSH2 0x234 JUMPI DUP1 PUSH4 0x129CAA18 EQ PUSH2 0x271 JUMPI DUP1 PUSH4 0x18160DDD EQ PUSH2 0x288 JUMPI PUSH2 0x1AE JUMP JUMPDEST CALLDATASIZE PUSH2 0x1AE JUMPI PUSH2 0x1AC PUSH2 0x671 JUMP JUMPDEST STOP JUMPDEST PUSH1 0x0 DUP1 REVERT JUMPDEST CALLVALUE DUP1 ISZERO PUSH2 0x1BF JUMPI PUSH1 0x0 DUP1 REVERT JUMPDEST POP PUSH2 0x1C8 PUSH2 0x8B7 JUMP JUMPDEST PUSH1 0x40 MLOAD PUSH2 0x1D5 SWAP2 SWAP1 PUSH2 0x1422 JUMP JUMPDEST PUSH1 0x40 MLOAD DUP1 SWAP2 SUB SWAP1 RETURN JUMPDEST CALLVALUE DUP1 ISZERO PUSH2 0x1EA JUMPI PUSH1 0x0 DUP1 REVERT JUMPDEST POP PUSH2 0x1F3 PUSH2 0x8BD JUMP JUMPDEST PUSH1 0x40 MLOAD PUSH2 0x200 SWAP2 SWAP1 PUSH2 0x14D6 JUMP JUMPDEST PUSH1 0x40 MLOAD DUP1 SWAP2 SUB SWAP1 RETURN JUMPDEST CALLVALUE DUP1 ISZERO PUSH2 0x215 JUMPI PUSH1 0x0 DUP1 REVERT JUMPDEST POP PUSH2 0x21E PUSH2 0x94B JUMP JUMPDEST PUSH1 0x40 MLOAD PUSH2 0x22B SWAP2 SWAP1 PUSH2 0x1513 JUMP JUMPDEST PUSH1 0x40 MLOAD DUP1 SWAP2 SUB SWAP1 RETURN JUMPDEST CALLVALUE DUP1 ISZERO PUSH2 0x240 JUMPI PUSH1 0x0 DUP1 REVERT JUMPDEST POP PUSH2 0x25B PUSH1 0x4 DUP1 CALLDATASIZE SUB DUP2 ADD SWAP1 PUSH2 0x256 SWAP2 SWAP1 PUSH2 0x15BD JUMP JUMPDEST PUSH2 0xA2A JUMP JUMPDEST PUSH1 0x40 MLOAD PUSH2 0x268 SWAP2 SWAP1 PUSH2 0x1513 JUMP JUMPDEST PUSH1 0x40 MLOAD DUP1 SWAP2 SUB SWAP1 RETURN JUMPDEST CALLVALUE DUP1 ISZERO PUSH2 0x27D JUMPI PUSH1 0x0 DUP1 REVERT JUMPDEST POP PUSH2 0x286 PUSH2 0xB75 JUMP JUMPDEST STOP JUMPDEST CALLVALUE DUP1 ISZERO PUSH2 0x294 JUMPI PUSH1 0x0 DUP1 REVERT JUMPDEST POP PUSH2 0x29D PUSH2 0xBFC JUMP JUMPDEST PUSH1 0x40 MLOAD PUSH2 0x2AA SWAP2 SWAP1 PUSH2 0x1422 JUMP JUMPDEST PUSH1 0x40 MLOAD DUP1 SWAP2 SUB SWAP1 RETURN JUMPDEST CALLVALUE DUP1 ISZERO PUSH2 0x2BF JUMPI PUSH1 0x0 DUP1 REVERT JUMPDEST POP PUSH2 0x2DA PUSH1 0x4 DUP1 CALLDATASIZE SUB DUP2 ADD SWAP1 PUSH2 0x2D5 SWAP2 SWAP1 PUSH2 0x15FD JUMP JUMPDEST PUSH2 0xC02 JUMP JUMPDEST PUSH1 0x40 MLOAD PUSH2 0x2E7 SWAP2 SWAP1 PUSH2 0x1513 JUMP JUMPDEST PUSH1 0x40 MLOAD DUP1 SWAP2 SUB SWAP1 RETURN JUMPDEST CALLVALUE DUP1 ISZERO PUSH2 0x2FC JUMPI PUSH1 0x0 DUP1 REVERT JUMPDEST POP PUSH2 0x317 PUSH1 0x4 DUP1 CALLDATASIZE SUB DUP2 ADD SWAP1 PUSH2 0x312 SWAP2 SWAP1 PUSH2 0x1650 JUMP JUMPDEST PUSH2 0xC29 JUMP JUMPDEST PUSH1 0x40 MLOAD PUSH2 0x324 SWAP2 SWAP1 PUSH2 0x1422 JUMP JUMPDEST PUSH1 0x40 MLOAD DUP1 SWAP2 SUB SWAP1 RETURN JUMPDEST CALLVALUE DUP1 ISZERO PUSH2 0x339 JUMPI PUSH1 0x0 DUP1 REVERT JUMPDEST POP PUSH2 0x342 PUSH2 0xC41 JUMP JUMPDEST PUSH1 0x40 MLOAD PUSH2 0x34F SWAP2 SWAP1 PUSH2 0x1422 JUMP JUMPDEST PUSH1 0x40 MLOAD DUP1 SWAP2 SUB SWAP1 RETURN JUMPDEST CALLVALUE DUP1 ISZERO PUSH2 0x364 JUMPI PUSH1 0x0 DUP1 REVERT JUMPDEST POP PUSH2 0x36D PUSH2 0xC47 JUMP JUMPDEST PUSH1 0x40 MLOAD PUSH2 0x37A SWAP2 SWAP1 PUSH2 0x1422 JUMP JUMPDEST PUSH1 0x40 MLOAD DUP1 SWAP2 SUB SWAP1 RETURN JUMPDEST CALLVALUE DUP1 ISZERO PUSH2 0x38F JUMPI PUSH1 0x0 DUP1 REVERT JUMPDEST POP PUSH2 0x398 PUSH2 0xC4D JUMP JUMPDEST PUSH1 0x40 MLOAD PUSH2 0x3A5 SWAP2 SWAP1 PUSH2 0x16F4 JUMP JUMPDEST PUSH1 0x40 MLOAD DUP1 SWAP2 SUB SWAP1 RETURN JUMPDEST CALLVALUE DUP1 ISZERO PUSH2 0x3BA JUMPI PUSH1 0x0 DUP1 REVERT JUMPDEST POP PUSH2 0x3C3 PUSH2 0xCCF JUMP JUMPDEST PUSH1 0x40 MLOAD PUSH2 0x3D0 SWAP2 SWAP1 PUSH2 0x16F4 JUMP JUMPDEST PUSH1 0x40 MLOAD DUP1 SWAP2 SUB SWAP1 RETURN JUMPDEST CALLVALUE DUP1 ISZERO PUSH2 0x3E5 JUMPI PUSH1 0x0 DUP1 REVERT JUMPDEST POP PUSH2 0x3EE PUSH2 0xCE2 JUMP JUMPDEST PUSH1 0x40 MLOAD PUSH2 0x3FB SWAP2 SWAP1 PUSH2 0x171E JUMP JUMPDEST PUSH1 0x40 MLOAD DUP1 SWAP2 SUB SWAP1 RETURN JUMPDEST CALLVALUE DUP1 ISZERO PUSH2 0x410 JUMPI PUSH1 0x0 DUP1 REVERT JUMPDEST POP PUSH2 0x42B PUSH1 0x4 DUP1 CALLDATASIZE SUB DUP2 ADD SWAP1 PUSH2 0x426 SWAP2 SWAP1 PUSH2 0x1777 JUMP JUMPDEST PUSH2 0xD08 JUMP JUMPDEST STOP JUMPDEST CALLVALUE DUP1 ISZERO PUSH2 0x439 JUMPI PUSH1 0x0 DUP1 REVERT JUMPDEST POP PUSH2 0x454 PUSH1 0x4 DUP1 CALLDATASIZE SUB DUP2 ADD SWAP1 PUSH2 0x44F SWAP2 SWAP1 PUSH2 0x1650 JUMP JUMPDEST PUSH2 0xDA6 JUMP JUMPDEST PUSH1 0x40 MLOAD PUSH2 0x461 SWAP2 SWAP1 PUSH2 0x1422 JUMP JUMPDEST PUSH1 0x40 MLOAD DUP1 SWAP2 SUB SWAP1 RETURN JUMPDEST PUSH2 0x472 PUSH2 0x671 JUMP JUMPDEST PUSH1 0x40 MLOAD PUSH2 0x47F SWAP2 SWAP1 PUSH2 0x1513 JUMP JUMPDEST PUSH1 0x40 MLOAD DUP1 SWAP2 SUB SWAP1 RETURN JUMPDEST CALLVALUE DUP1 ISZERO PUSH2 0x494 JUMPI PUSH1 0x0 DUP1 REVERT JUMPDEST POP PUSH2 0x49D PUSH2 0xDEF JUMP JUMPDEST PUSH1 0x40 MLOAD PUSH2 0x4AA SWAP2 SWAP1 PUSH2 0x1422 JUMP JUMPDEST PUSH1 0x40 MLOAD DUP1 SWAP2 SUB SWAP1 RETURN JUMPDEST CALLVALUE DUP1 ISZERO PUSH2 0x4BF JUMPI PUSH1 0x0 DUP1 REVERT JUMPDEST POP PUSH2 0x4C8 PUSH2 0xDF5 JUMP JUMPDEST PUSH1 0x40 MLOAD PUSH2 0x4D5 SWAP2 SWAP1 PUSH2 0x14D6 JUMP JUMPDEST PUSH1 0x40 MLOAD DUP1 SWAP2 SUB SWAP1 RETURN JUMPDEST CALLVALUE DUP1 ISZERO PUSH2 0x4EA JUMPI PUSH1 0x0 DUP1 REVERT JUMPDEST POP PUSH2 0x4F3 PUSH2 0xE83 JUMP JUMPDEST STOP JUMPDEST CALLVALUE DUP1 ISZERO PUSH2 0x501 JUMPI PUSH1 0x0 DUP1 REVERT JUMPDEST POP PUSH2 0x51C PUSH1 0x4 DUP1 CALLDATASIZE SUB DUP2 ADD SWAP1 PUSH2 0x517 SWAP2 SWAP1 PUSH2 0x15BD JUMP JUMPDEST PUSH2 0xF0A JUMP JUMPDEST PUSH1 0x40 MLOAD PUSH2 0x529 SWAP2 SWAP1 PUSH2 0x1513 JUMP JUMPDEST PUSH1 0x40 MLOAD DUP1 SWAP2 SUB SWAP1 RETURN JUMPDEST CALLVALUE DUP1 ISZERO PUSH2 0x53E JUMPI PUSH1 0x0 DUP1 REVERT JUMPDEST POP PUSH2 0x547 PUSH2 0xF2F JUMP JUMPDEST PUSH1 0x40 MLOAD PUSH2 0x554 SWAP2 SWAP1 PUSH2 0x1422 JUMP JUMPDEST PUSH1 0x40 MLOAD DUP1 SWAP2 SUB SWAP1 RETURN JUMPDEST CALLVALUE DUP1 ISZERO PUSH2 0x569 JUMPI PUSH1 0x0 DUP1 REVERT JUMPDEST POP PUSH2 0x572 PUSH2 0xF35 JUMP JUMPDEST PUSH1 0x40 MLOAD PUSH2 0x57F SWAP2 SWAP1 PUSH2 0x1422 JUMP JUMPDEST PUSH1 0x40 MLOAD DUP1 SWAP2 SUB SWAP1 RETURN JUMPDEST CALLVALUE DUP1 ISZERO PUSH2 0x594 JUMPI PUSH1 0x0 DUP1 REVERT JUMPDEST POP PUSH2 0x59D PUSH2 0xF3B JUMP JUMPDEST PUSH1 0x40 MLOAD PUSH2 0x5AA SWAP2 SWAP1 PUSH2 0x1422 JUMP JUMPDEST PUSH1 0x40 MLOAD DUP1 SWAP2 SUB SWAP1 RETURN JUMPDEST CALLVALUE DUP1 ISZERO PUSH2 0x5BF JUMPI PUSH1 0x0 DUP1 REVERT JUMPDEST POP PUSH2 0x5C8 PUSH2 0xF41 JUMP JUMPDEST PUSH1 0x40 MLOAD PUSH2 0x5D5 SWAP2 SWAP1 PUSH2 0x1422 JUMP JUMPDEST PUSH1 0x40 MLOAD DUP1 SWAP2 SUB SWAP1 RETURN JUMPDEST CALLVALUE DUP1 ISZERO PUSH2 0x5EA JUMPI PUSH1 0x0 DUP1 REVERT JUMPDEST POP PUSH2 0x5F3 PUSH2 0xF47 JUMP JUMPDEST PUSH1 0x40 MLOAD PUSH2 0x600 SWAP2 SWAP1 PUSH2 0x17B3 JUMP JUMPDEST PUSH1 0x40 MLOAD DUP1 SWAP2 SUB SWAP1 RETURN JUMPDEST CALLVALUE DUP1 ISZERO PUSH2 0x615 JUMPI PUSH1 0x0 DUP1 REVERT JUMPDEST POP PUSH2 0x630 PUSH1 0x4 DUP1 CALLDATASIZE SUB DUP2 ADD SWAP1 PUSH2 0x62B SWAP2 SWAP1 PUSH2 0x17CE JUMP JUMPDEST PUSH2 0xF6D JUMP JUMPDEST PUSH1 0x40 MLOAD PUSH2 0x63D SWAP2 SWAP1 PUSH2 0x1422 JUMP JUMPDEST PUSH1 0x40 MLOAD DUP1 SWAP2 SUB SWAP1 RETURN JUMPDEST CALLVALUE DUP1 ISZERO PUSH2 0x652 JUMPI PUSH1 0x0 DUP1 REVERT JUMPDEST POP PUSH2 0x65B PUSH2 0xFF4 JUMP JUMPDEST PUSH1 0x40 MLOAD PUSH2 0x668 SWAP2 SWAP1 PUSH2 0x171E JUMP JUMPDEST PUSH1 0x40 MLOAD DUP1 SWAP2 SUB SWAP1 RETURN JUMPDEST PUSH1 0x0 PUSH2 0x67B PUSH2 0xC4D JUMP JUMPDEST PUSH1 0x11 PUSH1 0x0 PUSH2 0x100 EXP DUP2 SLOAD DUP2 PUSH1 0xFF MUL NOT AND SWAP1 DUP4 PUSH1 0x3 DUP2 GT ISZERO PUSH2 0x69F JUMPI PUSH2 0x69E PUSH2 0x167D JUMP JUMPDEST JUMPDEST MUL OR SWAP1 SSTORE POP PUSH1 0x1 PUSH1 0x3 DUP2 GT ISZERO PUSH2 0x6B8 JUMPI PUSH2 0x6B7 PUSH2 0x167D JUMP JUMPDEST JUMPDEST PUSH1 0x11 PUSH1 0x0 SWAP1 SLOAD SWAP1 PUSH2 0x100 EXP SWAP1 DIV PUSH1 0xFF AND PUSH1 0x3 DUP2 GT ISZERO PUSH2 0x6DA JUMPI PUSH2 0x6D9 PUSH2 0x167D JUMP JUMPDEST JUMPDEST EQ PUSH2 0x6E4 JUMPI PUSH1 0x0 DUP1 REVERT JUMPDEST PUSH1 0x10 SLOAD CALLVALUE LT ISZERO DUP1 ISZERO PUSH2 0x6F8 JUMPI POP PUSH1 0xF SLOAD CALLVALUE GT ISZERO JUMPDEST PUSH2 0x701 JUMPI PUSH1 0x0 DUP1 REVERT JUMPDEST CALLVALUE PUSH1 0xB PUSH1 0x0 DUP3 DUP3 SLOAD PUSH2 0x713 SWAP2 SWAP1 PUSH2 0x183D JUMP JUMPDEST SWAP3 POP POP DUP2 SWAP1 SSTORE POP PUSH1 0xA SLOAD PUSH1 0xB SLOAD GT ISZERO PUSH2 0x72B JUMPI PUSH1 0x0 DUP1 REVERT JUMPDEST PUSH1 0x0 PUSH1 0x9 SLOAD CALLVALUE PUSH2 0x73B SWAP2 SWAP1 PUSH2 0x18C2 JUMP JUMPDEST SWAP1 POP DUP1 PUSH1 0x5 PUSH1 0x0 CALLER PUSH20 0xFFFFFFFFFFFFFFFFFFFFFFFFFFFFFFFFFFFFFFFF AND PUSH20 0xFFFFFFFFFFFFFFFFFFFFFFFFFFFFFFFFFFFFFFFF AND DUP2 MSTORE PUSH1 0x20 ADD SWAP1 DUP2 MSTORE PUSH1 0x20 ADD PUSH1 0x0 KECCAK256 PUSH1 0x0 DUP3 DUP3 SLOAD PUSH2 0x78C SWAP2 SWAP1 PUSH2 0x183D JUMP JUMPDEST SWAP3 POP POP DUP2 SWAP1 SSTORE POP DUP1 PUSH1 0x5 PUSH1 0x0 PUSH1 0x4 PUSH1 0x0 SWAP1 SLOAD SWAP1 PUSH2 0x100 EXP SWAP1 DIV PUSH20 0xFFFFFFFFFFFFFFFFFFFFFFFFFFFFFFFFFFFFFFFF AND PUSH20 0xFFFFFFFFFFFFFFFFFFFFFFFFFFFFFFFFFFFFFFFF AND PUSH20 0xFFFFFFFFFFFFFFFFFFFFFFFFFFFFFFFFFFFFFFFF AND DUP2 MSTORE PUSH1 0x20 ADD SWAP1 DUP2 MSTORE PUSH1 0x20 ADD PUSH1 0x0 KECCAK256 PUSH1 0x0 DUP3 DUP3 SLOAD PUSH2 0x804 SWAP2 SWAP1 PUSH2 0x18F3 JUMP JUMPDEST SWAP3 POP POP DUP2 SWAP1 SSTORE POP PUSH1 0x8 PUSH1 0x0 SWAP1 SLOAD SWAP1 PUSH2 0x100 EXP SWAP1 DIV PUSH20 0xFFFFFFFFFFFFFFFFFFFFFFFFFFFFFFFFFFFFFFFF AND PUSH20 0xFFFFFFFFFFFFFFFFFFFFFFFFFFFFFFFFFFFFFFFF AND PUSH2 0x8FC CALLVALUE SWAP1 DUP2 ISZERO MUL SWAP1 PUSH1 0x40 MLOAD PUSH1 0x0 PUSH1 0x40 MLOAD DUP1 DUP4 SUB DUP2 DUP6 DUP9 DUP9 CALL SWAP4 POP POP POP POP ISZERO DUP1 ISZERO PUSH2 0x873 JUMPI RETURNDATASIZE PUSH1 0x0 DUP1 RETURNDATACOPY RETURNDATASIZE PUSH1 0x0 REVERT JUMPDEST POP PUSH32 0xE58B7D87D21CF1B6C9066FF73D56461FC687BB4858B6501C4273FA5CDA210224 CALLER CALLVALUE DUP4 PUSH1 0x40 MLOAD PUSH2 0x8A7 SWAP4 SWAP3 SWAP2 SWAP1 PUSH2 0x1927 JUMP JUMPDEST PUSH1 0x40 MLOAD DUP1 SWAP2 SUB SWAP1 LOG1 PUSH1 0x1 SWAP2 POP POP SWAP1 JUMP JUMPDEST PUSH1 0xF SLOAD DUP2 JUMP JUMPDEST PUSH1 0x0 DUP1 SLOAD PUSH2 0x8CA SWAP1 PUSH2 0x198D JUMP JUMPDEST DUP1 PUSH1 0x1F ADD PUSH1 0x20 DUP1 SWAP2 DIV MUL PUSH1 0x20 ADD PUSH1 0x40 MLOAD SWAP1 DUP2 ADD PUSH1 0x40 MSTORE DUP1 SWAP3 SWAP2 SWAP1 DUP2 DUP2 MSTORE PUSH1 0x20 ADD DUP3 DUP1 SLOAD PUSH2 0x8F6 SWAP1 PUSH2 0x198D JUMP JUMPDEST DUP1 ISZERO PUSH2 0x943 JUMPI DUP1 PUSH1 0x1F LT PUSH2 0x918 JUMPI PUSH2 0x100 DUP1 DUP4 SLOAD DIV MUL DUP4 MSTORE SWAP2 PUSH1 0x20 ADD SWAP2 PUSH2 0x943 JUMP JUMPDEST DUP3 ADD SWAP2 SWAP1 PUSH1 0x0 MSTORE PUSH1 0x20 PUSH1 0x0 KECCAK256 SWAP1 JUMPDEST DUP2 SLOAD DUP2 MSTORE SWAP1 PUSH1 0x1 ADD SWAP1 PUSH1 0x20 ADD DUP1 DUP4 GT PUSH2 0x926 JUMPI DUP3 SWAP1 SUB PUSH1 0x1F AND DUP3 ADD SWAP2 JUMPDEST POP POP POP POP POP DUP2 JUMP JUMPDEST PUSH1 0x0 PUSH2 0x955 PUSH2 0xC4D JUMP JUMPDEST PUSH1 0x11 PUSH1 0x0 PUSH2 0x100 EXP DUP2 SLOAD DUP2 PUSH1 0xFF MUL NOT AND SWAP1 DUP4 PUSH1 0x3 DUP2 GT ISZERO PUSH2 0x979 JUMPI PUSH2 0x978 PUSH2 0x167D JUMP JUMPDEST JUMPDEST MUL OR SWAP1 SSTORE POP PUSH1 0x2 PUSH1 0x3 DUP2 GT ISZERO PUSH2 0x992 JUMPI PUSH2 0x991 PUSH2 0x167D JUMP JUMPDEST JUMPDEST PUSH1 0x11 PUSH1 0x0 SWAP1 SLOAD SWAP1 PUSH2 0x100 EXP SWAP1 DIV PUSH1 0xFF AND PUSH1 0x3 DUP2 GT ISZERO PUSH2 0x9B4 JUMPI PUSH2 0x9B3 PUSH2 0x167D JUMP JUMPDEST JUMPDEST EQ PUSH2 0x9BE JUMPI PUSH1 0x0 DUP1 REVERT JUMPDEST PUSH1 0x0 PUSH1 0x5 PUSH1 0x0 PUSH1 0x4 PUSH1 0x0 SWAP1 SLOAD SWAP1 PUSH2 0x100 EXP SWAP1 DIV PUSH20 0xFFFFFFFFFFFFFFFFFFFFFFFFFFFFFFFFFFFFFFFF AND PUSH20 0xFFFFFFFFFFFFFFFFFFFFFFFFFFFFFFFFFFFFFFFF AND PUSH20 0xFFFFFFFFFFFFFFFFFFFFFFFFFFFFFFFFFFFFFFFF AND DUP2 MSTORE PUSH1 0x20 ADD SWAP1 DUP2 MSTORE PUSH1 0x20 ADD PUSH1 0x0 KECCAK256 POP POP PUSH1 0x1 SWAP1 POP SWAP1 JUMP JUMPDEST PUSH1 0x0 DUP2 PUSH1 0x5 PUSH1 0x0 CALLER PUSH20 0xFFFFFFFFFFFFFFFFFFFFFFFFFFFFFFFFFFFFFFFF AND PUSH20 0xFFFFFFFFFFFFFFFFFFFFFFFFFFFFFFFFFFFFFFFF AND DUP2 MSTORE PUSH1 0x20 ADD SWAP1 DUP2 MSTORE PUSH1 0x20 ADD PUSH1 0x0 KECCAK256 SLOAD LT ISZERO PUSH2 0xA78 JUMPI PUSH1 0x0 DUP1 REVERT JUMPDEST PUSH1 0x0 DUP3 GT PUSH2 0xA85 JUMPI PUSH1 0x0 DUP1 REVERT JUMPDEST DUP2 PUSH1 0x6 PUSH1 0x0 CALLER PUSH20 0xFFFFFFFFFFFFFFFFFFFFFFFFFFFFFFFFFFFFFFFF AND PUSH20 0xFFFFFFFFFFFFFFFFFFFFFFFFFFFFFFFFFFFFFFFF AND DUP2 MSTORE PUSH1 0x20 ADD SWAP1 DUP2 MSTORE PUSH1 0x20 ADD PUSH1 0x0 KECCAK256 PUSH1 0x0 DUP6 PUSH20 0xFFFFFFFFFFFFFFFFFFFFFFFFFFFFFFFFFFFFFFFF AND PUSH20 0xFFFFFFFFFFFFFFFFFFFFFFFFFFFFFFFFFFFFFFFF AND DUP2 MSTORE PUSH1 0x20 ADD SWAP1 DUP2 MSTORE PUSH1 0x20 ADD PUSH1 0x0 KECCAK256 DUP2 SWAP1 SSTORE POP DUP3 PUSH20 0xFFFFFFFFFFFFFFFFFFFFFFFFFFFFFFFFFFFFFFFF AND CALLER PUSH20 0xFFFFFFFFFFFFFFFFFFFFFFFFFFFFFFFFFFFFFFFF AND PUSH32 0x8C5BE1E5EBEC7D5BD14F71427D1E84F3DD0314C0F7B2291E5B200AC8C7C3B925 DUP5 PUSH1 0x40 MLOAD PUSH2 0xB63 SWAP2 SWAP1 PUSH2 0x1422 JUMP JUMPDEST PUSH1 0x40 MLOAD DUP1 SWAP2 SUB SWAP1 LOG3 PUSH1 0x1 SWAP1 POP SWAP3 SWAP2 POP POP JUMP JUMPDEST PUSH1 0x7 PUSH1 0x0 SWAP1 SLOAD SWAP1 PUSH2 0x100 EXP SWAP1 DIV PUSH20 0xFFFFFFFFFFFFFFFFFFFFFFFFFFFFFFFFFFFFFFFF AND PUSH20 0xFFFFFFFFFFFFFFFFFFFFFFFFFFFFFFFFFFFFFFFF AND CALLER PUSH20 0xFFFFFFFFFFFFFFFFFFFFFFFFFFFFFFFFFFFFFFFF AND EQ PUSH2 0xBCF JUMPI PUSH1 0x0 DUP1 REVERT JUMPDEST PUSH1 0x3 PUSH1 0x11 PUSH1 0x0 PUSH2 0x100 EXP DUP2 SLOAD DUP2 PUSH1 0xFF MUL NOT AND SWAP1 DUP4 PUSH1 0x3 DUP2 GT ISZERO PUSH2 0xBF5 JUMPI PUSH2 0xBF4 PUSH2 0x167D JUMP JUMPDEST JUMPDEST MUL OR SWAP1 SSTORE POP JUMP JUMPDEST PUSH1 0x3 SLOAD DUP2 JUMP JUMPDEST PUSH1 0x0 PUSH1 0xE SLOAD TIMESTAMP GT PUSH2 0xC12 JUMPI PUSH1 0x0 DUP1 REVERT JUMPDEST PUSH2 0xC1D DUP5 DUP5 DUP5 PUSH2 0x101A JUMP JUMPDEST POP PUSH1 0x1 SWAP1 POP SWAP4 SWAP3 POP POP POP JUMP JUMPDEST PUSH1 0x5 PUSH1 0x20 MSTORE DUP1 PUSH1 0x0 MSTORE PUSH1 0x40 PUSH1 0x0 KECCAK256 PUSH1 0x0 SWAP2 POP SWAP1 POP SLOAD DUP2 JUMP JUMPDEST PUSH1 0x2 SLOAD DUP2 JUMP JUMPDEST PUSH1 0xA SLOAD DUP2 JUMP JUMPDEST PUSH1 0x0 PUSH1 0x3 DUP1 DUP2 GT ISZERO PUSH2 0xC62 JUMPI PUSH2 0xC61 PUSH2 0x167D JUMP JUMPDEST JUMPDEST PUSH1 0x11 PUSH1 0x0 SWAP1 SLOAD SWAP1 PUSH2 0x100 EXP SWAP1 DIV PUSH1 0xFF AND PUSH1 0x3 DUP2 GT ISZERO PUSH2 0xC84 JUMPI PUSH2 0xC83 PUSH2 0x167D JUMP JUMPDEST JUMPDEST SUB PUSH2 0xC92 JUMPI PUSH1 0x3 SWAP1 POP PUSH2 0xCCC JUMP JUMPDEST PUSH1 0xC SLOAD TIMESTAMP LT ISZERO PUSH2 0xCA5 JUMPI PUSH1 0x0 SWAP1 POP PUSH2 0xCCC JUMP JUMPDEST PUSH1 0xD SLOAD TIMESTAMP GT ISZERO DUP1 ISZERO PUSH2 0xCB9 JUMPI POP PUSH1 0xC SLOAD TIMESTAMP LT ISZERO JUMPDEST ISZERO PUSH2 0xCC7 JUMPI PUSH1 0x1 SWAP1 POP PUSH2 0xCCC JUMP JUMPDEST PUSH1 0x2 SWAP1 POP JUMPDEST SWAP1 JUMP JUMPDEST PUSH1 0x11 PUSH1 0x0 SWAP1 SLOAD SWAP1 PUSH2 0x100 EXP SWAP1 DIV PUSH1 0xFF AND DUP2 JUMP JUMPDEST PUSH1 0x4 PUSH1 0x0 SWAP1 SLOAD SWAP1 PUSH2 0x100 EXP SWAP1 DIV PUSH20 0xFFFFFFFFFFFFFFFFFFFFFFFFFFFFFFFFFFFFFFFF AND DUP2 JUMP JUMPDEST PUSH1 0x7 PUSH1 0x0 SWAP1 SLOAD SWAP1 PUSH2 0x100 EXP SWAP1 DIV PUSH20 0xFFFFFFFFFFFFFFFFFFFFFFFFFFFFFFFFFFFFFFFF AND PUSH20 0xFFFFFFFFFFFFFFFFFFFFFFFFFFFFFFFFFFFFFFFF AND CALLER PUSH20 0xFFFFFFFFFFFFFFFFFFFFFFFFFFFFFFFFFFFFFFFF AND EQ PUSH2 0xD62 JUMPI PUSH1 0x0 DUP1 REVERT JUMPDEST DUP1 PUSH1 0x8 PUSH1 0x0 PUSH2 0x100 EXP DUP2 SLOAD DUP2 PUSH20 0xFFFFFFFFFFFFFFFFFFFFFFFFFFFFFFFFFFFFFFFF MUL NOT AND SWAP1 DUP4 PUSH20 0xFFFFFFFFFFFFFFFFFFFFFFFFFFFFFFFFFFFFFFFF AND MUL OR SWAP1 SSTORE POP POP JUMP JUMPDEST PUSH1 0x0 PUSH1 0x5 PUSH1 0x0 DUP4 PUSH20 0xFFFFFFFFFFFFFFFFFFFFFFFFFFFFFFFFFFFFFFFF AND PUSH20 0xFFFFFFFFFFFFFFFFFFFFFFFFFFFFFFFFFFFFFFFF AND DUP2 MSTORE PUSH1 0x20 ADD SWAP1 DUP2 MSTORE PUSH1 0x20 ADD PUSH1 0x0 KECCAK256 SLOAD SWAP1 POP SWAP2 SWAP1 POP JUMP JUMPDEST PUSH1 0x10 SLOAD DUP2 JUMP JUMPDEST PUSH1 0x1 DUP1 SLOAD PUSH2 0xE02 SWAP1 PUSH2 0x198D JUMP JUMPDEST DUP1 PUSH1 0x1F ADD PUSH1 0x20 DUP1 SWAP2 DIV MUL PUSH1 0x20 ADD PUSH1 0x40 MLOAD SWAP1 DUP2 ADD PUSH1 0x40 MSTORE DUP1 SWAP3 SWAP2 SWAP1 DUP2 DUP2 MSTORE PUSH1 0x20 ADD DUP3 DUP1 SLOAD PUSH2 0xE2E SWAP1 PUSH2 0x198D JUMP JUMPDEST DUP1 ISZERO PUSH2 0xE7B JUMPI DUP1 PUSH1 0x1F LT PUSH2 0xE50 JUMPI PUSH2 0x100 DUP1 DUP4 SLOAD DIV MUL DUP4 MSTORE SWAP2 PUSH1 0x20 ADD SWAP2 PUSH2 0xE7B JUMP JUMPDEST DUP3 ADD SWAP2 SWAP1 PUSH1 0x0 MSTORE PUSH1 0x20 PUSH1 0x0 KECCAK256 SWAP1 JUMPDEST DUP2 SLOAD DUP2 MSTORE SWAP1 PUSH1 0x1 ADD SWAP1 PUSH1 0x20 ADD DUP1 DUP4 GT PUSH2 0xE5E JUMPI DUP3 SWAP1 SUB PUSH1 0x1F AND DUP3 ADD SWAP2 JUMPDEST POP POP POP POP POP DUP2 JUMP JUMPDEST PUSH1 0x7 PUSH1 0x0 SWAP1 SLOAD SWAP1 PUSH2 0x100 EXP SWAP1 DIV PUSH20 0xFFFFFFFFFFFFFFFFFFFFFFFFFFFFFFFFFFFFFFFF AND PUSH20 0xFFFFFFFFFFFFFFFFFFFFFFFFFFFFFFFFFFFFFFFF AND CALLER PUSH20 0xFFFFFFFFFFFFFFFFFFFFFFFFFFFFFFFFFFFFFFFF AND EQ PUSH2 0xEDD JUMPI PUSH1 0x0 DUP1 REVERT JUMPDEST PUSH1 0x1 PUSH1 0x11 PUSH1 0x0 PUSH2 0x100 EXP DUP2 SLOAD DUP2 PUSH1 0xFF MUL NOT AND SWAP1 DUP4 PUSH1 0x3 DUP2 GT ISZERO PUSH2 0xF03 JUMPI PUSH2 0xF02 PUSH2 0x167D JUMP JUMPDEST JUMPDEST MUL OR SWAP1 SSTORE POP JUMP JUMPDEST PUSH1 0x0 PUSH1 0xE SLOAD TIMESTAMP GT PUSH2 0xF1A JUMPI PUSH1 0x0 DUP1 REVERT JUMPDEST PUSH2 0xF24 DUP4 DUP4 PUSH2 0x12A0 JUMP JUMPDEST POP PUSH1 0x1 SWAP1 POP SWAP3 SWAP2 POP POP JUMP JUMPDEST PUSH1 0xC SLOAD DUP2 JUMP JUMPDEST PUSH1 0xD SLOAD DUP2 JUMP JUMPDEST PUSH1 0xB SLOAD DUP2 JUMP JUMPDEST PUSH1 0xE SLOAD DUP2 JUMP JUMPDEST PUSH1 0x8 PUSH1 0x0 SWAP1 SLOAD SWAP1 PUSH2 0x100 EXP SWAP1 DIV PUSH20 0xFFFFFFFFFFFFFFFFFFFFFFFFFFFFFFFFFFFFFFFF AND DUP2 JUMP JUMPDEST PUSH1 0x0 PUSH1 0x6 PUSH1 0x0 DUP5 PUSH20 0xFFFFFFFFFFFFFFFFFFFFFFFFFFFFFFFFFFFFFFFF AND PUSH20 0xFFFFFFFFFFFFFFFFFFFFFFFFFFFFFFFFFFFFFFFF AND DUP2 MSTORE PUSH1 0x20 ADD SWAP1 DUP2 MSTORE PUSH1 0x20 ADD PUSH1 0x0 KECCAK256 PUSH1 0x0 DUP4 PUSH20 0xFFFFFFFFFFFFFFFFFFFFFFFFFFFFFFFFFFFFFFFF AND PUSH20 0xFFFFFFFFFFFFFFFFFFFFFFFFFFFFFFFFFFFFFFFF AND DUP2 MSTORE PUSH1 0x20 ADD SWAP1 DUP2 MSTORE PUSH1 0x20 ADD PUSH1 0x0 KECCAK256 SLOAD SWAP1 POP SWAP3 SWAP2 POP POP JUMP JUMPDEST PUSH1 0x7 PUSH1 0x0 SWAP1 SLOAD SWAP1 PUSH2 0x100 EXP SWAP1 DIV PUSH20 0xFFFFFFFFFFFFFFFFFFFFFFFFFFFFFFFFFFFFFFFF AND DUP2 JUMP JUMPDEST PUSH1 0x0 DUP2 PUSH1 0x6 PUSH1 0x0 DUP7 PUSH20 0xFFFFFFFFFFFFFFFFFFFFFFFFFFFFFFFFFFFFFFFF AND PUSH20 0xFFFFFFFFFFFFFFFFFFFFFFFFFFFFFFFFFFFFFFFF AND DUP2 MSTORE PUSH1 0x20 ADD SWAP1 DUP2 MSTORE PUSH1 0x20 ADD PUSH1 0x0 KECCAK256 PUSH1 0x0 CALLER PUSH20 0xFFFFFFFFFFFFFFFFFFFFFFFFFFFFFFFFFFFFFFFF AND PUSH20 0xFFFFFFFFFFFFFFFFFFFFFFFFFFFFFFFFFFFFFFFF AND DUP2 MSTORE PUSH1 0x20 ADD SWAP1 DUP2 MSTORE PUSH1 0x20 ADD PUSH1 0x0 KECCAK256 SLOAD LT ISZERO PUSH2 0x10A5 JUMPI PUSH1 0x0 DUP1 REVERT JUMPDEST DUP2 PUSH1 0x5 PUSH1 0x0 DUP7 PUSH20 0xFFFFFFFFFFFFFFFFFFFFFFFFFFFFFFFFFFFFFFFF AND PUSH20 0xFFFFFFFFFFFFFFFFFFFFFFFFFFFFFFFFFFFFFFFF AND DUP2 MSTORE PUSH1 0x20 ADD SWAP1 DUP2 MSTORE PUSH1 0x20 ADD PUSH1 0x0 KECCAK256 SLOAD LT ISZERO PUSH2 0x10F1 JUMPI PUSH1 0x0 DUP1 REVERT JUMPDEST DUP2 PUSH1 0x5 PUSH1 0x0 DUP7 PUSH20 0xFFFFFFFFFFFFFFFFFFFFFFFFFFFFFFFFFFFFFFFF AND PUSH20 0xFFFFFFFFFFFFFFFFFFFFFFFFFFFFFFFFFFFFFFFF AND DUP2 MSTORE PUSH1 0x20 ADD SWAP1 DUP2 MSTORE PUSH1 0x20 ADD PUSH1 0x0 KECCAK256 PUSH1 0x0 DUP3 DUP3 SLOAD PUSH2 0x1140 SWAP2 SWAP1 PUSH2 0x18F3 JUMP JUMPDEST SWAP3 POP POP DUP2 SWAP1 SSTORE POP DUP2 PUSH1 0x6 PUSH1 0x0 DUP7 PUSH20 0xFFFFFFFFFFFFFFFFFFFFFFFFFFFFFFFFFFFFFFFF AND PUSH20 0xFFFFFFFFFFFFFFFFFFFFFFFFFFFFFFFFFFFFFFFF AND DUP2 MSTORE PUSH1 0x20 ADD SWAP1 DUP2 MSTORE PUSH1 0x20 ADD PUSH1 0x0 KECCAK256 PUSH1 0x0 CALLER PUSH20 0xFFFFFFFFFFFFFFFFFFFFFFFFFFFFFFFFFFFFFFFF AND PUSH20 0xFFFFFFFFFFFFFFFFFFFFFFFFFFFFFFFFFFFFFFFF AND DUP2 MSTORE PUSH1 0x20 ADD SWAP1 DUP2 MSTORE PUSH1 0x20 ADD PUSH1 0x0 KECCAK256 PUSH1 0x0 DUP3 DUP3 SLOAD PUSH2 0x11D3 SWAP2 SWAP1 PUSH2 0x18F3 JUMP JUMPDEST SWAP3 POP POP DUP2 SWAP1 SSTORE POP DUP2 PUSH1 0x5 PUSH1 0x0 DUP6 PUSH20 0xFFFFFFFFFFFFFFFFFFFFFFFFFFFFFFFFFFFFFFFF AND PUSH20 0xFFFFFFFFFFFFFFFFFFFFFFFFFFFFFFFFFFFFFFFF AND DUP2 MSTORE PUSH1 0x20 ADD SWAP1 DUP2 MSTORE PUSH1 0x20 ADD PUSH1 0x0 KECCAK256 PUSH1 0x0 DUP3 DUP3 SLOAD PUSH2 0x1229 SWAP2 SWAP1 PUSH2 0x183D JUMP JUMPDEST SWAP3 POP POP DUP2 SWAP1 SSTORE POP DUP3 PUSH20 0xFFFFFFFFFFFFFFFFFFFFFFFFFFFFFFFFFFFFFFFF AND DUP5 PUSH20 0xFFFFFFFFFFFFFFFFFFFFFFFFFFFFFFFFFFFFFFFF AND PUSH32 0xDDF252AD1BE2C89B69C2B068FC378DAA952BA7F163C4A11628F55A4DF523B3EF DUP5 PUSH1 0x40 MLOAD PUSH2 0x128D SWAP2 SWAP1 PUSH2 0x1422 JUMP JUMPDEST PUSH1 0x40 MLOAD DUP1 SWAP2 SUB SWAP1 LOG3 PUSH1 0x1 SWAP1 POP SWAP4 SWAP3 POP POP POP JUMP JUMPDEST PUSH1 0x0 DUP2 PUSH1 0x5 PUSH1 0x0 CALLER PUSH20 0xFFFFFFFFFFFFFFFFFFFFFFFFFFFFFFFFFFFFFFFF AND PUSH20 0xFFFFFFFFFFFFFFFFFFFFFFFFFFFFFFFFFFFFFFFF AND DUP2 MSTORE PUSH1 0x20 ADD SWAP1 DUP2 MSTORE PUSH1 0x20 ADD PUSH1 0x0 KECCAK256 SLOAD LT ISZERO PUSH2 0x12EE JUMPI PUSH1 0x0 DUP1 REVERT JUMPDEST DUP2 PUSH1 0x5 PUSH1 0x0 DUP6 PUSH20 0xFFFFFFFFFFFFFFFFFFFFFFFFFFFFFFFFFFFFFFFF AND PUSH20 0xFFFFFFFFFFFFFFFFFFFFFFFFFFFFFFFFFFFFFFFF AND DUP2 MSTORE PUSH1 0x20 ADD SWAP1 DUP2 MSTORE PUSH1 0x20 ADD PUSH1 0x0 KECCAK256 PUSH1 0x0 DUP3 DUP3 SLOAD PUSH2 0x133D SWAP2 SWAP1 PUSH2 0x183D JUMP JUMPDEST SWAP3 POP POP DUP2 SWAP1 SSTORE POP DUP2 PUSH1 0x5 PUSH1 0x0 CALLER PUSH20 0xFFFFFFFFFFFFFFFFFFFFFFFFFFFFFFFFFFFFFFFF AND PUSH20 0xFFFFFFFFFFFFFFFFFFFFFFFFFFFFFFFFFFFFFFFF AND DUP2 MSTORE PUSH1 0x20 ADD SWAP1 DUP2 MSTORE PUSH1 0x20 ADD PUSH1 0x0 KECCAK256 PUSH1 0x0 DUP3 DUP3 SLOAD PUSH2 0x1393 SWAP2 SWAP1 PUSH2 0x18F3 JUMP JUMPDEST SWAP3 POP POP DUP2 SWAP1 SSTORE POP DUP3 PUSH20 0xFFFFFFFFFFFFFFFFFFFFFFFFFFFFFFFFFFFFFFFF AND CALLER PUSH20 0xFFFFFFFFFFFFFFFFFFFFFFFFFFFFFFFFFFFFFFFF AND PUSH32 0xDDF252AD1BE2C89B69C2B068FC378DAA952BA7F163C4A11628F55A4DF523B3EF DUP5 PUSH1 0x40 MLOAD PUSH2 0x13F7 SWAP2 SWAP1 PUSH2 0x1422 JUMP JUMPDEST PUSH1 0x40 MLOAD DUP1 SWAP2 SUB SWAP1 LOG3 PUSH1 0x1 SWAP1 POP SWAP3 SWAP2 POP POP JUMP JUMPDEST PUSH1 0x0 DUP2 SWAP1 POP SWAP2 SWAP1 POP JUMP JUMPDEST PUSH2 0x141C DUP2 PUSH2 0x1409 JUMP JUMPDEST DUP3 MSTORE POP POP JUMP JUMPDEST PUSH1 0x0 PUSH1 0x20 DUP3 ADD SWAP1 POP PUSH2 0x1437 PUSH1 0x0 DUP4 ADD DUP5 PUSH2 0x1413 JUMP JUMPDEST SWAP3 SWAP2 POP POP JUMP JUMPDEST PUSH1 0x0 DUP2 MLOAD SWAP1 POP SWAP2 SWAP1 POP JUMP JUMPDEST PUSH1 0x0 DUP3 DUP3 MSTORE PUSH1 0x20 DUP3 ADD SWAP1 POP SWAP3 SWAP2 POP POP JUMP JUMPDEST PUSH1 0x0 JUMPDEST DUP4 DUP2 LT ISZERO PUSH2 0x1477 JUMPI DUP1 DUP3 ADD MLOAD DUP2 DUP5 ADD MSTORE PUSH1 0x20 DUP2 ADD SWAP1 POP PUSH2 0x145C JUMP JUMPDEST DUP4 DUP2 GT ISZERO PUSH2 0x1486 JUMPI PUSH1 0x0 DUP5 DUP5 ADD MSTORE JUMPDEST POP POP POP POP JUMP JUMPDEST PUSH1 0x0 PUSH1 0x1F NOT PUSH1 0x1F DUP4 ADD AND SWAP1 POP SWAP2 SWAP1 POP JUMP JUMPDEST PUSH1 0x0 PUSH2 0x14A8 DUP3 PUSH2 0x143D JUMP JUMPDEST PUSH2 0x14B2 DUP2 DUP6 PUSH2 0x1448 JUMP JUMPDEST SWAP4 POP PUSH2 0x14C2 DUP2 DUP6 PUSH1 0x20 DUP7 ADD PUSH2 0x1459 JUMP JUMPDEST PUSH2 0x14CB DUP2 PUSH2 0x148C JUMP JUMPDEST DUP5 ADD SWAP2 POP POP SWAP3 SWAP2 POP POP JUMP JUMPDEST PUSH1 0x0 PUSH1 0x20 DUP3 ADD SWAP1 POP DUP2 DUP2 SUB PUSH1 0x0 DUP4 ADD MSTORE PUSH2 0x14F0 DUP2 DUP5 PUSH2 0x149D JUMP JUMPDEST SWAP1 POP SWAP3 SWAP2 POP POP JUMP JUMPDEST PUSH1 0x0 DUP2 ISZERO ISZERO SWAP1 POP SWAP2 SWAP1 POP JUMP JUMPDEST PUSH2 0x150D DUP2 PUSH2 0x14F8 JUMP JUMPDEST DUP3 MSTORE POP POP JUMP JUMPDEST PUSH1 0x0 PUSH1 0x20 DUP3 ADD SWAP1 POP PUSH2 0x1528 PUSH1 0x0 DUP4 ADD DUP5 PUSH2 0x1504 JUMP JUMPDEST SWAP3 SWAP2 POP POP JUMP JUMPDEST PUSH1 0x0 DUP1 REVERT JUMPDEST PUSH1 0x0 PUSH20 0xFFFFFFFFFFFFFFFFFFFFFFFFFFFFFFFFFFFFFFFF DUP3 AND SWAP1 POP SWAP2 SWAP1 POP JUMP JUMPDEST PUSH1 0x0 PUSH2 0x155E DUP3 PUSH2 0x1533 JUMP JUMPDEST SWAP1 POP SWAP2 SWAP1 POP JUMP JUMPDEST PUSH2 0x156E DUP2 PUSH2 0x1553 JUMP JUMPDEST DUP2 EQ PUSH2 0x1579 JUMPI PUSH1 0x0 DUP1 REVERT JUMPDEST POP JUMP JUMPDEST PUSH1 0x0 DUP2 CALLDATALOAD SWAP1 POP PUSH2 0x158B DUP2 PUSH2 0x1565 JUMP JUMPDEST SWAP3 SWAP2 POP POP JUMP JUMPDEST PUSH2 0x159A DUP2 PUSH2 0x1409 JUMP JUMPDEST DUP2 EQ PUSH2 0x15A5 JUMPI PUSH1 0x0 DUP1 REVERT JUMPDEST POP JUMP JUMPDEST PUSH1 0x0 DUP2 CALLDATALOAD SWAP1 POP PUSH2 0x15B7 DUP2 PUSH2 0x1591 JUMP JUMPDEST SWAP3 SWAP2 POP POP JUMP JUMPDEST PUSH1 0x0 DUP1 PUSH1 0x40 DUP4 DUP6 SUB SLT ISZERO PUSH2 0x15D4 JUMPI PUSH2 0x15D3 PUSH2 0x152E JUMP JUMPDEST JUMPDEST PUSH1 0x0 PUSH2 0x15E2 DUP6 DUP3 DUP7 ADD PUSH2 0x157C JUMP JUMPDEST SWAP3 POP POP PUSH1 0x20 PUSH2 0x15F3 DUP6 DUP3 DUP7 ADD PUSH2 0x15A8 JUMP JUMPDEST SWAP2 POP POP SWAP3 POP SWAP3 SWAP1 POP JUMP JUMPDEST PUSH1 0x0 DUP1 PUSH1 0x0 PUSH1 0x60 DUP5 DUP7 SUB SLT ISZERO PUSH2 0x1616 JUMPI PUSH2 0x1615 PUSH2 0x152E JUMP JUMPDEST JUMPDEST PUSH1 0x0 PUSH2 0x1624 DUP7 DUP3 DUP8 ADD PUSH2 0x157C JUMP JUMPDEST SWAP4 POP POP PUSH1 0x20 PUSH2 0x1635 DUP7 DUP3 DUP8 ADD PUSH2 0x157C JUMP JUMPDEST SWAP3 POP POP PUSH1 0x40 PUSH2 0x1646 DUP7 DUP3 DUP8 ADD PUSH2 0x15A8 JUMP JUMPDEST SWAP2 POP POP SWAP3 POP SWAP3 POP SWAP3 JUMP JUMPDEST PUSH1 0x0 PUSH1 0x20 DUP3 DUP5 SUB SLT ISZERO PUSH2 0x1666 JUMPI PUSH2 0x1665 PUSH2 0x152E JUMP JUMPDEST JUMPDEST PUSH1 0x0 PUSH2 0x1674 DUP5 DUP3 DUP6 ADD PUSH2 0x157C JUMP JUMPDEST SWAP2 POP POP SWAP3 SWAP2 POP POP JUMP JUMPDEST PUSH32 0x4E487B7100000000000000000000000000000000000000000000000000000000 PUSH1 0x0 MSTORE PUSH1 0x21 PUSH1 0x4 MSTORE PUSH1 0x24 PUSH1 0x0 REVERT JUMPDEST PUSH1 0x4 DUP2 LT PUSH2 0x16BD JUMPI PUSH2 0x16BC PUSH2 0x167D JUMP JUMPDEST JUMPDEST POP JUMP JUMPDEST PUSH1 0x0 DUP2 SWAP1 POP PUSH2 0x16CE DUP3 PUSH2 0x16AC JUMP JUMPDEST SWAP2 SWAP1 POP JUMP JUMPDEST PUSH1 0x0 PUSH2 0x16DE DUP3 PUSH2 0x16C0 JUMP JUMPDEST SWAP1 POP SWAP2 SWAP1 POP JUMP JUMPDEST PUSH2 0x16EE DUP2 PUSH2 0x16D3 JUMP JUMPDEST DUP3 MSTORE POP POP JUMP JUMPDEST PUSH1 0x0 PUSH1 0x20 DUP3 ADD SWAP1 POP PUSH2 0x1709 PUSH1 0x0 DUP4 ADD DUP5 PUSH2 0x16E5 JUMP JUMPDEST SWAP3 SWAP2 POP POP JUMP JUMPDEST PUSH2 0x1718 DUP2 PUSH2 0x1553 JUMP JUMPDEST DUP3 MSTORE POP POP JUMP JUMPDEST PUSH1 0x0 PUSH1 0x20 DUP3 ADD SWAP1 POP PUSH2 0x1733 PUSH1 0x0 DUP4 ADD DUP5 PUSH2 0x170F JUMP JUMPDEST SWAP3 SWAP2 POP POP JUMP JUMPDEST PUSH1 0x0 PUSH2 0x1744 DUP3 PUSH2 0x1533 JUMP JUMPDEST SWAP1 POP SWAP2 SWAP1 POP JUMP JUMPDEST PUSH2 0x1754 DUP2 PUSH2 0x1739 JUMP JUMPDEST DUP2 EQ PUSH2 0x175F JUMPI PUSH1 0x0 DUP1 REVERT JUMPDEST POP JUMP JUMPDEST PUSH1 0x0 DUP2 CALLDATALOAD SWAP1 POP PUSH2 0x1771 DUP2 PUSH2 0x174B JUMP JUMPDEST SWAP3 SWAP2 POP POP JUMP JUMPDEST PUSH1 0x0 PUSH1 0x20 DUP3 DUP5 SUB SLT ISZERO PUSH2 0x178D JUMPI PUSH2 0x178C PUSH2 0x152E JUMP JUMPDEST JUMPDEST PUSH1 0x0 PUSH2 0x179B DUP5 DUP3 DUP6 ADD PUSH2 0x1762 JUMP JUMPDEST SWAP2 POP POP SWAP3 SWAP2 POP POP JUMP JUMPDEST PUSH2 0x17AD DUP2 PUSH2 0x1739 JUMP JUMPDEST DUP3 MSTORE POP POP JUMP JUMPDEST PUSH1 0x0 PUSH1 0x20 DUP3 ADD SWAP1 POP PUSH2 0x17C8 PUSH1 0x0 DUP4 ADD DUP5 PUSH2 0x17A4 JUMP JUMPDEST SWAP3 SWAP2 POP POP JUMP JUMPDEST PUSH1 0x0 DUP1 PUSH1 0x40 DUP4 DUP6 SUB SLT ISZERO PUSH2 0x17E5 JUMPI PUSH2 0x17E4 PUSH2 0x152E JUMP JUMPDEST JUMPDEST PUSH1 0x0 PUSH2 0x17F3 DUP6 DUP3 DUP7 ADD PUSH2 0x157C JUMP JUMPDEST SWAP3 POP POP PUSH1 0x20 PUSH2 0x1804 DUP6 DUP3 DUP7 ADD PUSH2 0x157C JUMP JUMPDEST SWAP2 POP POP SWAP3 POP SWAP3 SWAP1 POP JUMP JUMPDEST PUSH32 0x4E487B7100000000000000000000000000000000000000000000000000000000 PUSH1 0x0 MSTORE PUSH1 0x11 PUSH1 0x4 MSTORE PUSH1 0x24 PUSH1 0x0 REVERT JUMPDEST PUSH1 0x0 PUSH2 0x1848 DUP3 PUSH2 0x1409 JUMP JUMPDEST SWAP2 POP PUSH2 0x1853 DUP4 PUSH2 0x1409 JUMP JUMPDEST SWAP3 POP DUP3 PUSH32 0xFFFFFFFFFFFFFFFFFFFFFFFFFFFFFFFFFFFFFFFFFFFFFFFFFFFFFFFFFFFFFFFF SUB DUP3 GT ISZERO PUSH2 0x1888 JUMPI PUSH2 0x1887 PUSH2 0x180E JUMP JUMPDEST JUMPDEST DUP3 DUP3 ADD SWAP1 POP SWAP3 SWAP2 POP POP JUMP JUMPDEST PUSH32 0x4E487B7100000000000000000000000000000000000000000000000000000000 PUSH1 0x0 MSTORE PUSH1 0x12 PUSH1 0x4 MSTORE PUSH1 0x24 PUSH1 0x0 REVERT JUMPDEST PUSH1 0x0 PUSH2 0x18CD DUP3 PUSH2 0x1409 JUMP JUMPDEST SWAP2 POP PUSH2 0x18D8 DUP4 PUSH2 0x1409 JUMP JUMPDEST SWAP3 POP DUP3 PUSH2 0x18E8 JUMPI PUSH2 0x18E7 PUSH2 0x1893 JUMP JUMPDEST JUMPDEST DUP3 DUP3 DIV SWAP1 POP SWAP3 SWAP2 POP POP JUMP JUMPDEST PUSH1 0x0 PUSH2 0x18FE DUP3 PUSH2 0x1409 JUMP JUMPDEST SWAP2 POP PUSH2 0x1909 DUP4 PUSH2 0x1409 JUMP JUMPDEST SWAP3 POP DUP3 DUP3 LT ISZERO PUSH2 0x191C JUMPI PUSH2 0x191B PUSH2 0x180E JUMP JUMPDEST JUMPDEST DUP3 DUP3 SUB SWAP1 POP SWAP3 SWAP2 POP POP JUMP JUMPDEST PUSH1 0x0 PUSH1 0x60 DUP3 ADD SWAP1 POP PUSH2 0x193C PUSH1 0x0 DUP4 ADD DUP7 PUSH2 0x170F JUMP JUMPDEST PUSH2 0x1949 PUSH1 0x20 DUP4 ADD DUP6 PUSH2 0x1413 JUMP JUMPDEST PUSH2 0x1956 PUSH1 0x40 DUP4 ADD DUP5 PUSH2 0x1413 JUMP JUMPDEST SWAP5 SWAP4 POP POP POP POP JUMP JUMPDEST PUSH32 0x4E487B7100000000000000000000000000000000000000000000000000000000 PUSH1 0x0 MSTORE PUSH1 0x22 PUSH1 0x4 MSTORE PUSH1 0x24 PUSH1 0x0 REVERT JUMPDEST PUSH1 0x0 PUSH1 0x2 DUP3 DIV SWAP1 POP PUSH1 0x1 DUP3 AND DUP1 PUSH2 0x19A5 JUMPI PUSH1 0x7F DUP3 AND SWAP2 POP JUMPDEST PUSH1 0x20 DUP3 LT DUP2 SUB PUSH2 0x19B8 JUMPI PUSH2 0x19B7 PUSH2 0x195E JUMP JUMPDEST JUMPDEST POP SWAP2 SWAP1 POP JUMP INVALID LOG2 PUSH5 0x6970667358 0x22 SLT KECCAK256 0xE1 SWAP1 0x4C ADDRESS 0xB3 0xC0 PUSH28 0x336D35DDBBFFA48708D0A9B901E848E77465F2F30A7228807A64736F PUSH13 0x634300080E0033000000000000 "
				},
				"gasEstimates": {
					"creation": {
						"codeDepositCost": "1328800",
						"executionCost": "infinite",
						"totalCost": "infinite"
					},
					"external": {
						"admin()": "2624",
						"allowance(address,address)": "infinite",
						"approve(address,uint256)": "infinite",
						"balanceOf(address)": "2909",
						"balances(address)": "2882",
						"burnTokens()": "35352",
						"cap()": "2474",
						"changeDepositAddress(address)": "26938",
						"decimals()": "2519",
						"deposit()": "2580",
						"founder()": "2625",
						"getCurrentState()": "9107",
						"haltICO()": "26713",
						"icoState()": "2649",
						"investICO()": "infinite",
						"maxInvestment()": "2453",
						"minInvestment()": "2474",
						"name()": "infinite",
						"raisedAmount()": "2518",
						"resumeICO()": "26690",
						"saleEnd()": "2496",
						"saleStart()": "2474",
						"symbol()": "infinite",
						"tokenTradeStart()": "2473",
						"totalSupply()": "2563",
						"transfer(address,uint256)": "infinite",
						"transferFrom(address,address,uint256)": "infinite"
					}
				},
				"methodIdentifiers": {
					"admin()": "f851a440",
					"allowance(address,address)": "dd62ed3e",
					"approve(address,uint256)": "095ea7b3",
					"balanceOf(address)": "70a08231",
					"balances(address)": "27e235e3",
					"burnTokens()": "08003f78",
					"cap()": "355274ea",
					"changeDepositAddress(address)": "6d58c88f",
					"decimals()": "313ce567",
					"deposit()": "d0e30db0",
					"founder()": "4d853ee5",
					"getCurrentState()": "378aa701",
					"haltICO()": "129caa18",
					"icoState()": "44f38756",
					"investICO()": "783f525f",
					"maxInvestment()": "002e1316",
					"minInvestment()": "8ac2c680",
					"name()": "06fdde03",
					"raisedAmount()": "c59ee1dc",
					"resumeICO()": "9cbd7da5",
					"saleEnd()": "c10b9358",
					"saleStart()": "ab0bcc41",
					"symbol()": "95d89b41",
					"tokenTradeStart()": "cc9ba583",
					"totalSupply()": "18160ddd",
					"transfer(address,uint256)": "a9059cbb",
					"transferFrom(address,address,uint256)": "23b872dd"
				}
			},
			"storageLayout": {
				"storage": [
					{
						"astId": 73,
						"contract": "contracts/yusTokenICO.sol:yusICO",
						"label": "name",
						"offset": 0,
						"slot": "0",
						"type": "t_string_storage"
					},
					{
						"astId": 76,
						"contract": "contracts/yusTokenICO.sol:yusICO",
						"label": "symbol",
						"offset": 0,
						"slot": "1",
						"type": "t_string_storage"
					},
					{
						"astId": 79,
						"contract": "contracts/yusTokenICO.sol:yusICO",
						"label": "decimals",
						"offset": 0,
						"slot": "2",
						"type": "t_uint256"
					},
					{
						"astId": 82,
						"contract": "contracts/yusTokenICO.sol:yusICO",
						"label": "totalSupply",
						"offset": 0,
						"slot": "3",
						"type": "t_uint256"
					},
					{
						"astId": 84,
						"contract": "contracts/yusTokenICO.sol:yusICO",
						"label": "founder",
						"offset": 0,
						"slot": "4",
						"type": "t_address"
					},
					{
						"astId": 88,
						"contract": "contracts/yusTokenICO.sol:yusICO",
						"label": "balances",
						"offset": 0,
						"slot": "5",
						"type": "t_mapping(t_address,t_uint256)"
					},
					{
						"astId": 94,
						"contract": "contracts/yusTokenICO.sol:yusICO",
						"label": "allowed",
						"offset": 0,
						"slot": "6",
						"type": "t_mapping(t_address,t_mapping(t_address,t_uint256))"
					},
					{
						"astId": 295,
						"contract": "contracts/yusTokenICO.sol:yusICO",
						"label": "admin",
						"offset": 0,
						"slot": "7",
						"type": "t_address"
					},
					{
						"astId": 297,
						"contract": "contracts/yusTokenICO.sol:yusICO",
						"label": "deposit",
						"offset": 0,
						"slot": "8",
						"type": "t_address_payable"
					},
					{
						"astId": 300,
						"contract": "contracts/yusTokenICO.sol:yusICO",
						"label": "tokenPrice",
						"offset": 0,
						"slot": "9",
						"type": "t_uint256"
					},
					{
						"astId": 303,
						"contract": "contracts/yusTokenICO.sol:yusICO",
						"label": "cap",
						"offset": 0,
						"slot": "10",
						"type": "t_uint256"
					},
					{
						"astId": 305,
						"contract": "contracts/yusTokenICO.sol:yusICO",
						"label": "raisedAmount",
						"offset": 0,
						"slot": "11",
						"type": "t_uint256"
					},
					{
						"astId": 311,
						"contract": "contracts/yusTokenICO.sol:yusICO",
						"label": "saleStart",
						"offset": 0,
						"slot": "12",
						"type": "t_uint256"
					},
					{
						"astId": 317,
						"contract": "contracts/yusTokenICO.sol:yusICO",
						"label": "saleEnd",
						"offset": 0,
						"slot": "13",
						"type": "t_uint256"
					},
					{
						"astId": 322,
						"contract": "contracts/yusTokenICO.sol:yusICO",
						"label": "tokenTradeStart",
						"offset": 0,
						"slot": "14",
						"type": "t_uint256"
					},
					{
						"astId": 325,
						"contract": "contracts/yusTokenICO.sol:yusICO",
						"label": "maxInvestment",
						"offset": 0,
						"slot": "15",
						"type": "t_uint256"
					},
					{
						"astId": 328,
						"contract": "contracts/yusTokenICO.sol:yusICO",
						"label": "minInvestment",
						"offset": 0,
						"slot": "16",
						"type": "t_uint256"
					},
					{
						"astId": 336,
						"contract": "contracts/yusTokenICO.sol:yusICO",
						"label": "icoState",
						"offset": 0,
						"slot": "17",
						"type": "t_enum(State)333"
					}
				],
				"types": {
					"t_address": {
						"encoding": "inplace",
						"label": "address",
						"numberOfBytes": "20"
					},
					"t_address_payable": {
						"encoding": "inplace",
						"label": "address payable",
						"numberOfBytes": "20"
					},
					"t_enum(State)333": {
						"encoding": "inplace",
						"label": "enum yusICO.State",
						"numberOfBytes": "1"
					},
					"t_mapping(t_address,t_mapping(t_address,t_uint256))": {
						"encoding": "mapping",
						"key": "t_address",
						"label": "mapping(address => mapping(address => uint256))",
						"numberOfBytes": "32",
						"value": "t_mapping(t_address,t_uint256)"
					},
					"t_mapping(t_address,t_uint256)": {
						"encoding": "mapping",
						"key": "t_address",
						"label": "mapping(address => uint256)",
						"numberOfBytes": "32",
						"value": "t_uint256"
					},
					"t_string_storage": {
						"encoding": "bytes",
						"label": "string",
						"numberOfBytes": "32"
					},
					"t_uint256": {
						"encoding": "inplace",
						"label": "uint256",
						"numberOfBytes": "32"
					}
				}
			},
			"userdoc": {
				"kind": "user",
				"methods": {},
				"version": 1
			}
		}
	}
}